{
  "address": "0xEc9FdF5C7aEB89Ecb829bf7B00b67AD15907E58B",
  "abi": [
    {
      "inputs": [
        {
          "components": [
            {
              "components": [
                {
                  "internalType": "address",
                  "name": "owner",
                  "type": "address"
                },
                {
                  "internalType": "uint256",
                  "name": "salt",
                  "type": "uint256"
                },
                {
                  "components": [
                    {
                      "internalType": "address",
                      "name": "token",
                      "type": "address"
                    },
                    {
                      "internalType": "uint256",
                      "name": "tokenId",
                      "type": "uint256"
                    },
                    {
                      "internalType": "enum ExchangeDomainV1.AssetType",
                      "name": "assetType",
                      "type": "uint8"
                    }
                  ],
                  "internalType": "struct ExchangeDomainV1.Asset",
                  "name": "sellAsset",
                  "type": "tuple"
                },
                {
                  "components": [
                    {
                      "internalType": "address",
                      "name": "token",
                      "type": "address"
                    },
                    {
                      "internalType": "uint256",
                      "name": "tokenId",
                      "type": "uint256"
                    },
                    {
                      "internalType": "enum ExchangeDomainV1.AssetType",
                      "name": "assetType",
                      "type": "uint8"
                    }
                  ],
                  "internalType": "struct ExchangeDomainV1.Asset",
                  "name": "buyAsset",
                  "type": "tuple"
                }
              ],
              "internalType": "struct ExchangeDomainV1.OrderKey",
              "name": "key",
              "type": "tuple"
            },
            {
              "internalType": "uint256",
              "name": "selling",
              "type": "uint256"
            },
            {
              "internalType": "uint256",
              "name": "buying",
              "type": "uint256"
            },
            {
              "internalType": "uint256",
              "name": "sellerFee",
              "type": "uint256"
            }
          ],
          "internalType": "struct ExchangeDomainV1.Order",
          "name": "order",
          "type": "tuple"
        }
      ],
      "name": "add",
      "outputs": [],
      "stateMutability": "nonpayable",
      "type": "function"
    },
    {
      "inputs": [
        {
          "components": [
            {
              "components": [
                {
                  "internalType": "address",
                  "name": "owner",
                  "type": "address"
                },
                {
                  "internalType": "uint256",
                  "name": "salt",
                  "type": "uint256"
                },
                {
                  "components": [
                    {
                      "internalType": "address",
                      "name": "token",
                      "type": "address"
                    },
                    {
                      "internalType": "uint256",
                      "name": "tokenId",
                      "type": "uint256"
                    },
                    {
                      "internalType": "enum ExchangeDomainV1.AssetType",
                      "name": "assetType",
                      "type": "uint8"
                    }
                  ],
                  "internalType": "struct ExchangeDomainV1.Asset",
                  "name": "sellAsset",
                  "type": "tuple"
                },
                {
                  "components": [
                    {
                      "internalType": "address",
                      "name": "token",
                      "type": "address"
                    },
                    {
                      "internalType": "uint256",
                      "name": "tokenId",
                      "type": "uint256"
                    },
                    {
                      "internalType": "enum ExchangeDomainV1.AssetType",
                      "name": "assetType",
                      "type": "uint8"
                    }
                  ],
                  "internalType": "struct ExchangeDomainV1.Asset",
                  "name": "buyAsset",
                  "type": "tuple"
                }
              ],
              "internalType": "struct ExchangeDomainV1.OrderKey",
              "name": "key",
              "type": "tuple"
            },
            {
              "internalType": "uint256",
              "name": "selling",
              "type": "uint256"
            },
            {
              "internalType": "uint256",
              "name": "buying",
              "type": "uint256"
            },
            {
              "internalType": "uint256",
              "name": "sellerFee",
              "type": "uint256"
            }
          ],
          "internalType": "struct ExchangeDomainV1.Order",
          "name": "order",
          "type": "tuple"
        }
      ],
      "name": "exists",
      "outputs": [
        {
          "internalType": "bool",
          "name": "",
          "type": "bool"
        }
      ],
      "stateMutability": "view",
      "type": "function"
    }
  ],
  "transactionHash": "0xa480bfe9b30e6d9831eebce38c1f82088ba892a76a519c307fda76f7abcc859d",
  "args": [],
  "solcInputHash": "d6e83a1dd9b505d6d59703f04dc2089b",
  "bytecode": "0x608060405234801561001057600080fd5b506104ca806100206000396000f3fe608060405234801561001057600080fd5b50600436106100365760003560e01c80632aee7a311461003b5780639f6cc6d614610062575b600080fd5b61004e6100493660046102b0565b610077565b604051901515815260200160405180910390f35b6100756100703660046102b0565b61017f565b005b60008061011361008c368590038501856103d8565b80516040808201518051602091820151845160608087015180519086015197860151875173ffffffffffffffffffffffffffffffffffffffff96871697810197909752968601939093529083169084015216608082015260a081019290925260c082015260009060e001604051602081830303815290604052805190602001209050919050565b600081815260208181526040918290208251606081018452815481526001820154928101839052600290910154928101929092529192509061012085013514801561016357508051610100850135145b801561017757508361014001358160400151145b949350505050565b61018c6020820182610472565b73ffffffffffffffffffffffffffffffffffffffff163373ffffffffffffffffffffffffffffffffffffffff161461024a576040517f08c379a000000000000000000000000000000000000000000000000000000000815260206004820152602260248201527f6f7264657220636f756c64206265206164646564206279206f776e6572206f6e60448201527f6c79000000000000000000000000000000000000000000000000000000000000606482015260840160405180910390fd5b600061025e61008c368490038401846103d8565b6040805160608101825261010085013581526101208501356020808301918252610140909601358284019081526000948552958490529190922091518255516001820155915160029092019190915550565b600061016082840312156102c357600080fd5b50919050565b6040516080810167ffffffffffffffff81118282101715610313577f4e487b7100000000000000000000000000000000000000000000000000000000600052604160045260246000fd5b60405290565b803573ffffffffffffffffffffffffffffffffffffffff8116811461033d57600080fd5b919050565b60006060828403121561035457600080fd5b6040516060810181811067ffffffffffffffff8211171561039e577f4e487b7100000000000000000000000000000000000000000000000000000000600052604160045260246000fd5b6040529050806103ad83610319565b8152602083013560208201526040830135600581106103cb57600080fd5b6040919091015292915050565b60008183036101608112156103ec57600080fd5b6103f46102c9565b6101008083121561040457600080fd5b61040c6102c9565b925061041785610319565b8352602085013560208401526104308660408701610342565b60408401526104428660a08701610342565b60608481019190915292825284013560208201526101208401356040820152610140909301359083015250919050565b60006020828403121561048457600080fd5b61048d82610319565b939250505056fea264697066735822122031d7027fd4a31a566a350bcf7d41a7433a1ab7943f803aea4c7293b2c6ba015864736f6c63430008090033",
  "devdoc": {
    "kind": "dev",
    "methods": {},
    "version": 1
  },
  "userdoc": {
    "kind": "user",
    "methods": {},
    "version": 1
  },
  "storageLayout": {
    "storage": [
      {
        "astId": 3534,
        "contract": "src/marketplace/ExchangeOrdersHolderV1.sol:ExchangeOrdersHolderV1",
        "label": "orders",
        "offset": 0,
        "slot": "0",
        "type": "t_mapping(t_bytes32,t_struct(OrderParams)3541_storage)"
      }
    ],
    "types": {
      "t_bytes32": {
        "encoding": "inplace",
        "label": "bytes32",
        "numberOfBytes": "32"
      },
      "t_mapping(t_bytes32,t_struct(OrderParams)3541_storage)": {
        "encoding": "mapping",
        "key": "t_bytes32",
        "label": "mapping(bytes32 => struct ExchangeOrdersHolderV1.OrderParams)",
        "numberOfBytes": "32",
        "value": "t_struct(OrderParams)3541_storage"
      },
      "t_struct(OrderParams)3541_storage": {
        "encoding": "inplace",
        "label": "struct ExchangeOrdersHolderV1.OrderParams",
        "members": [
          {
            "astId": 3536,
            "contract": "src/marketplace/ExchangeOrdersHolderV1.sol:ExchangeOrdersHolderV1",
            "label": "selling",
            "offset": 0,
            "slot": "0",
            "type": "t_uint256"
          },
          {
            "astId": 3538,
            "contract": "src/marketplace/ExchangeOrdersHolderV1.sol:ExchangeOrdersHolderV1",
            "label": "buying",
            "offset": 0,
            "slot": "1",
            "type": "t_uint256"
          },
          {
            "astId": 3540,
            "contract": "src/marketplace/ExchangeOrdersHolderV1.sol:ExchangeOrdersHolderV1",
            "label": "sellerFee",
            "offset": 0,
            "slot": "2",
            "type": "t_uint256"
          }
        ],
        "numberOfBytes": "96"
      },
      "t_uint256": {
        "encoding": "inplace",
        "label": "uint256",
        "numberOfBytes": "32"
      }
    }
  }
}