{
  "address": "0x40A2d5ABE17B0B77a050e6c33102937aab476EcC",
  "abi": [
    {
      "inputs": [
        {
          "internalType": "string",
          "name": "_name",
          "type": "string"
        },
        {
          "internalType": "string",
          "name": "_symbol",
          "type": "string"
        },
        {
          "internalType": "address",
          "name": "signer",
          "type": "address"
        },
        {
          "internalType": "string",
          "name": "contractURI",
          "type": "string"
        },
        {
          "internalType": "string",
          "name": "tokenURIPrefix",
          "type": "string"
        }
      ],
      "stateMutability": "nonpayable",
      "type": "constructor"
    },
    {
      "anonymous": false,
      "inputs": [
        {
          "indexed": true,
          "internalType": "address",
          "name": "_owner",
          "type": "address"
        },
        {
          "indexed": true,
          "internalType": "address",
          "name": "_operator",
          "type": "address"
        },
        {
          "indexed": false,
          "internalType": "bool",
          "name": "_approved",
          "type": "bool"
        }
      ],
      "name": "ApprovalForAll",
      "type": "event"
    },
    {
      "anonymous": false,
      "inputs": [
        {
          "indexed": true,
          "internalType": "address",
          "name": "previousOwner",
          "type": "address"
        },
        {
          "indexed": true,
          "internalType": "address",
          "name": "newOwner",
          "type": "address"
        }
      ],
      "name": "OwnershipTransferred",
      "type": "event"
    },
    {
      "anonymous": false,
      "inputs": [
        {
          "indexed": false,
          "internalType": "uint256",
          "name": "tokenId",
          "type": "uint256"
        },
        {
          "indexed": false,
          "internalType": "address[]",
          "name": "recipients",
          "type": "address[]"
        },
        {
          "indexed": false,
          "internalType": "uint256[]",
          "name": "bps",
          "type": "uint256[]"
        }
      ],
      "name": "SecondarySaleFees",
      "type": "event"
    },
    {
      "anonymous": false,
      "inputs": [
        {
          "indexed": true,
          "internalType": "address",
          "name": "account",
          "type": "address"
        }
      ],
      "name": "SignerAdded",
      "type": "event"
    },
    {
      "anonymous": false,
      "inputs": [
        {
          "indexed": true,
          "internalType": "address",
          "name": "account",
          "type": "address"
        }
      ],
      "name": "SignerRemoved",
      "type": "event"
    },
    {
      "anonymous": false,
      "inputs": [
        {
          "indexed": true,
          "internalType": "address",
          "name": "_operator",
          "type": "address"
        },
        {
          "indexed": true,
          "internalType": "address",
          "name": "_from",
          "type": "address"
        },
        {
          "indexed": true,
          "internalType": "address",
          "name": "_to",
          "type": "address"
        },
        {
          "indexed": false,
          "internalType": "uint256[]",
          "name": "_ids",
          "type": "uint256[]"
        },
        {
          "indexed": false,
          "internalType": "uint256[]",
          "name": "_values",
          "type": "uint256[]"
        }
      ],
      "name": "TransferBatch",
      "type": "event"
    },
    {
      "anonymous": false,
      "inputs": [
        {
          "indexed": true,
          "internalType": "address",
          "name": "_operator",
          "type": "address"
        },
        {
          "indexed": true,
          "internalType": "address",
          "name": "_from",
          "type": "address"
        },
        {
          "indexed": true,
          "internalType": "address",
          "name": "_to",
          "type": "address"
        },
        {
          "indexed": false,
          "internalType": "uint256",
          "name": "_id",
          "type": "uint256"
        },
        {
          "indexed": false,
          "internalType": "uint256",
          "name": "_value",
          "type": "uint256"
        }
      ],
      "name": "TransferSingle",
      "type": "event"
    },
    {
      "anonymous": false,
      "inputs": [
        {
          "indexed": false,
          "internalType": "string",
          "name": "_value",
          "type": "string"
        },
        {
          "indexed": true,
          "internalType": "uint256",
          "name": "_id",
          "type": "uint256"
        }
      ],
      "name": "URI",
      "type": "event"
    },
    {
      "inputs": [
        {
          "internalType": "address",
          "name": "account",
          "type": "address"
        }
      ],
      "name": "addSigner",
      "outputs": [],
      "stateMutability": "nonpayable",
      "type": "function"
    },
    {
      "inputs": [
        {
          "internalType": "address",
          "name": "_owner",
          "type": "address"
        },
        {
          "internalType": "uint256",
          "name": "_id",
          "type": "uint256"
        }
      ],
      "name": "balanceOf",
      "outputs": [
        {
          "internalType": "uint256",
          "name": "",
          "type": "uint256"
        }
      ],
      "stateMutability": "view",
      "type": "function"
    },
    {
      "inputs": [
        {
          "internalType": "address[]",
          "name": "_owners",
          "type": "address[]"
        },
        {
          "internalType": "uint256[]",
          "name": "_ids",
          "type": "uint256[]"
        }
      ],
      "name": "balanceOfBatch",
      "outputs": [
        {
          "internalType": "uint256[]",
          "name": "",
          "type": "uint256[]"
        }
      ],
      "stateMutability": "view",
      "type": "function"
    },
    {
      "inputs": [
        {
          "internalType": "address",
          "name": "_owner",
          "type": "address"
        },
        {
          "internalType": "uint256",
          "name": "_id",
          "type": "uint256"
        },
        {
          "internalType": "uint256",
          "name": "_value",
          "type": "uint256"
        }
      ],
      "name": "burn",
      "outputs": [],
      "stateMutability": "nonpayable",
      "type": "function"
    },
    {
      "inputs": [],
      "name": "contractURI",
      "outputs": [
        {
          "internalType": "string",
          "name": "",
          "type": "string"
        }
      ],
      "stateMutability": "view",
      "type": "function"
    },
    {
      "inputs": [
        {
          "internalType": "uint256",
          "name": "",
          "type": "uint256"
        }
      ],
      "name": "creators",
      "outputs": [
        {
          "internalType": "address",
          "name": "",
          "type": "address"
        }
      ],
      "stateMutability": "view",
      "type": "function"
    },
    {
      "inputs": [
        {
          "internalType": "uint256",
          "name": "id",
          "type": "uint256"
        }
      ],
      "name": "encodePackedData",
      "outputs": [
        {
          "internalType": "bytes32",
          "name": "",
          "type": "bytes32"
        }
      ],
      "stateMutability": "view",
      "type": "function"
    },
    {
      "inputs": [
        {
          "internalType": "uint256",
          "name": "",
          "type": "uint256"
        },
        {
          "internalType": "uint256",
          "name": "",
          "type": "uint256"
        }
      ],
      "name": "fees",
      "outputs": [
        {
          "internalType": "address payable",
          "name": "recipient",
          "type": "address"
        },
        {
          "internalType": "uint256",
          "name": "value",
          "type": "uint256"
        }
      ],
      "stateMutability": "view",
      "type": "function"
    },
    {
      "inputs": [
        {
          "internalType": "uint256",
          "name": "id",
          "type": "uint256"
        }
      ],
      "name": "getFeeBps",
      "outputs": [
        {
          "internalType": "uint256[]",
          "name": "",
          "type": "uint256[]"
        }
      ],
      "stateMutability": "view",
      "type": "function"
    },
    {
      "inputs": [
        {
          "internalType": "uint256",
          "name": "id",
          "type": "uint256"
        }
      ],
      "name": "getFeeRecipients",
      "outputs": [
        {
          "internalType": "address payable[]",
          "name": "",
          "type": "address[]"
        }
      ],
      "stateMutability": "view",
      "type": "function"
    },
    {
      "inputs": [
        {
          "internalType": "uint256",
          "name": "id",
          "type": "uint256"
        },
        {
          "internalType": "uint8",
          "name": "v",
          "type": "uint8"
        },
        {
          "internalType": "bytes32",
          "name": "r",
          "type": "bytes32"
        },
        {
          "internalType": "bytes32",
          "name": "s",
          "type": "bytes32"
        }
      ],
      "name": "getecrecover",
      "outputs": [
        {
          "internalType": "address",
          "name": "",
          "type": "address"
        }
      ],
      "stateMutability": "view",
      "type": "function"
    },
    {
      "inputs": [
        {
          "internalType": "address",
          "name": "_owner",
          "type": "address"
        },
        {
          "internalType": "address",
          "name": "_operator",
          "type": "address"
        }
      ],
      "name": "isApprovedForAll",
      "outputs": [
        {
          "internalType": "bool",
          "name": "",
          "type": "bool"
        }
      ],
      "stateMutability": "view",
      "type": "function"
    },
    {
      "inputs": [
        {
          "internalType": "address",
          "name": "account",
          "type": "address"
        }
      ],
      "name": "isSigner",
      "outputs": [
        {
          "internalType": "bool",
          "name": "",
          "type": "bool"
        }
      ],
      "stateMutability": "view",
      "type": "function"
    },
    {
      "inputs": [
        {
          "internalType": "uint256",
          "name": "id",
          "type": "uint256"
        },
        {
          "internalType": "uint8",
          "name": "v",
          "type": "uint8"
        },
        {
          "internalType": "bytes32",
          "name": "r",
          "type": "bytes32"
        },
        {
          "internalType": "bytes32",
          "name": "s",
          "type": "bytes32"
        },
        {
          "components": [
            {
              "internalType": "address payable",
              "name": "recipient",
              "type": "address"
            },
            {
              "internalType": "uint256",
              "name": "value",
              "type": "uint256"
            }
          ],
          "internalType": "struct ERC1155Base.Fee[]",
          "name": "fees",
          "type": "tuple[]"
        },
        {
          "internalType": "uint256",
          "name": "supply",
          "type": "uint256"
        },
        {
          "internalType": "string",
          "name": "uri",
          "type": "string"
        }
      ],
      "name": "mint",
      "outputs": [],
      "stateMutability": "nonpayable",
      "type": "function"
    },
    {
      "inputs": [],
      "name": "name",
      "outputs": [
        {
          "internalType": "string",
          "name": "",
          "type": "string"
        }
      ],
      "stateMutability": "view",
      "type": "function"
    },
    {
      "inputs": [],
      "name": "owner",
      "outputs": [
        {
          "internalType": "address",
          "name": "",
          "type": "address"
        }
      ],
      "stateMutability": "view",
      "type": "function"
    },
    {
      "inputs": [],
      "name": "renounceOwnership",
      "outputs": [],
      "stateMutability": "nonpayable",
      "type": "function"
    },
    {
      "inputs": [],
      "name": "renounceSigner",
      "outputs": [],
      "stateMutability": "nonpayable",
      "type": "function"
    },
    {
      "inputs": [
        {
          "internalType": "address",
          "name": "_from",
          "type": "address"
        },
        {
          "internalType": "address",
          "name": "_to",
          "type": "address"
        },
        {
          "internalType": "uint256[]",
          "name": "_ids",
          "type": "uint256[]"
        },
        {
          "internalType": "uint256[]",
          "name": "_values",
          "type": "uint256[]"
        },
        {
          "internalType": "bytes",
          "name": "_data",
          "type": "bytes"
        }
      ],
      "name": "safeBatchTransferFrom",
      "outputs": [],
      "stateMutability": "nonpayable",
      "type": "function"
    },
    {
      "inputs": [
        {
          "internalType": "address",
          "name": "_from",
          "type": "address"
        },
        {
          "internalType": "address",
          "name": "_to",
          "type": "address"
        },
        {
          "internalType": "uint256",
          "name": "_id",
          "type": "uint256"
        },
        {
          "internalType": "uint256",
          "name": "_value",
          "type": "uint256"
        },
        {
          "internalType": "bytes",
          "name": "_data",
          "type": "bytes"
        }
      ],
      "name": "safeTransferFrom",
      "outputs": [],
      "stateMutability": "nonpayable",
      "type": "function"
    },
    {
      "inputs": [
        {
          "internalType": "address",
          "name": "_operator",
          "type": "address"
        },
        {
          "internalType": "bool",
          "name": "_approved",
          "type": "bool"
        }
      ],
      "name": "setApprovalForAll",
      "outputs": [],
      "stateMutability": "nonpayable",
      "type": "function"
    },
    {
      "inputs": [
        {
          "internalType": "string",
          "name": "contractURI",
          "type": "string"
        }
      ],
      "name": "setContractURI",
      "outputs": [],
      "stateMutability": "nonpayable",
      "type": "function"
    },
    {
      "inputs": [
        {
          "internalType": "string",
          "name": "tokenURIPrefix",
          "type": "string"
        }
      ],
      "name": "setTokenURIPrefix",
      "outputs": [],
      "stateMutability": "nonpayable",
      "type": "function"
    },
    {
      "inputs": [
        {
          "internalType": "bytes4",
          "name": "interfaceId",
          "type": "bytes4"
        }
      ],
      "name": "supportsInterface",
      "outputs": [
        {
          "internalType": "bool",
          "name": "",
          "type": "bool"
        }
      ],
      "stateMutability": "view",
      "type": "function"
    },
    {
      "inputs": [],
      "name": "symbol",
      "outputs": [
        {
          "internalType": "string",
          "name": "",
          "type": "string"
        }
      ],
      "stateMutability": "view",
      "type": "function"
    },
    {
      "inputs": [],
      "name": "tokenURIPrefix",
      "outputs": [
        {
          "internalType": "string",
          "name": "",
          "type": "string"
        }
      ],
      "stateMutability": "view",
      "type": "function"
    },
    {
      "inputs": [
        {
          "internalType": "address",
          "name": "newOwner",
          "type": "address"
        }
      ],
      "name": "transferOwnership",
      "outputs": [],
      "stateMutability": "nonpayable",
      "type": "function"
    },
    {
      "inputs": [
        {
          "internalType": "uint256",
          "name": "_id",
          "type": "uint256"
        }
      ],
      "name": "uri",
      "outputs": [
        {
          "internalType": "string",
          "name": "",
          "type": "string"
        }
      ],
      "stateMutability": "view",
      "type": "function"
    }
  ],
  "transactionHash": "0xd6ad6d776fcc961277f195a49f588280457b081b7a74deb4a0555ceb9a074b26",
  "args": [
    "ERC1155EMUSK",
    "EMUSK",
    "0x80aEa81791Ded20568221346C79B0ad4E0890FAA",
    "https://api.emusk.com/contractMetadata/{address}",
    "https://ipfs.io/"
  ],
  "solcInputHash": "d6e83a1dd9b505d6d59703f04dc2089b",
  "bytecode": "0x60806040523480156200001157600080fd5b50604051620033fb380380620033fb8339810160408190526200003491620004d6565b81818181806200004b6301ffc9a760e01b62000135565b6200005d632dde656160e21b62000135565b6200006833620001ba565b62000073336200020c565b80516200008890600390602084019062000363565b50508151620000a09150600590602084019062000363565b50620000b363e8a3d48560e01b62000135565b50620000c6636cdb3d1360e11b62000135565b50508451620000dd90600a90602088019062000363565b508351620000f390600b90602087019062000363565b50620000ff836200020c565b6200012a7fe37243f27916e395706434720b54132b80ef5cc8c56f39b0df6485e8dfb697cf62000135565b5050505050620005ee565b6001600160e01b03198082161415620001955760405162461bcd60e51b815260206004820152601c60248201527f4552433136353a20696e76616c696420696e746572666163652069640000000060448201526064015b60405180910390fd5b6001600160e01b0319166000908152602081905260409020805460ff19166001179055565b600180546001600160a01b038381166001600160a01b0319831681179093556040519116919082907f8be0079c531659141344cd1fd0a4f28419497f9722a3daafe3b4186f6b6457e090600090a35050565b620002278160026200025e60201b620015861790919060201c565b6040516001600160a01b038216907f47d1c22a25bb3a5d4e481b9b1e6944c2eade3181a0a20b495ed61d35b5323f2490600090a250565b6200026a8282620002de565b15620002b95760405162461bcd60e51b815260206004820152601f60248201527f526f6c65733a206163636f756e7420616c72656164792068617320726f6c650060448201526064016200018c565b6001600160a01b0316600090815260209190915260409020805460ff19166001179055565b60006001600160a01b038216620003435760405162461bcd60e51b815260206004820152602260248201527f526f6c65733a206163636f756e7420697320746865207a65726f206164647265604482015261737360f01b60648201526084016200018c565b506001600160a01b03166000908152602091909152604090205460ff1690565b8280546200037190620005b1565b90600052602060002090601f016020900481019282620003955760008555620003e0565b82601f10620003b057805160ff1916838001178555620003e0565b82800160010185558215620003e0579182015b82811115620003e0578251825591602001919060010190620003c3565b50620003ee929150620003f2565b5090565b5b80821115620003ee5760008155600101620003f3565b634e487b7160e01b600052604160045260246000fd5b600082601f8301126200043157600080fd5b81516001600160401b03808211156200044e576200044e62000409565b604051601f8301601f19908116603f0116810190828211818310171562000479576200047962000409565b816040528381526020925086838588010111156200049657600080fd5b600091505b83821015620004ba57858201830151818301840152908201906200049b565b83821115620004cc5760008385830101525b9695505050505050565b600080600080600060a08688031215620004ef57600080fd5b85516001600160401b03808211156200050757600080fd5b6200051589838a016200041f565b965060208801519150808211156200052c57600080fd5b6200053a89838a016200041f565b604089015190965091506001600160a01b03821682146200055a57600080fd5b6060880151919450808211156200057057600080fd5b6200057e89838a016200041f565b935060808801519150808211156200059557600080fd5b50620005a4888289016200041f565b9150509295509295909350565b600181811c90821680620005c657607f821691505b60208210811415620005e857634e487b7160e01b600052602260045260246000fd5b50919050565b612dfd80620005fe6000396000f3fe608060405234801561001057600080fd5b50600436106101c35760003560e01c806399e0dd7c116100f9578063e8a3d48511610097578063f242432a11610071578063f242432a1461043c578063f2fde38b1461044f578063f5298aca14610462578063f53bbb7f1461047557600080fd5b8063e8a3d485146103e5578063e985e9c5146103ed578063eb12d61e1461042957600080fd5b8063c0ac9983116100d3578063c0ac998314610399578063c6bf3262146103a1578063cd53d08e146103b4578063e5c8b03d146103dd57600080fd5b806399e0dd7c14610353578063a22cb46514610366578063b9c4d9fb1461037957600080fd5b80634e1273f4116101665780637df73e27116101405780637df73e27146103005780638da5cb5b14610313578063938e3d7b1461033857806395d89b411461034b57600080fd5b80634e1273f4146102b35780636308f1cd146102c6578063715018a6146102f857600080fd5b80630e89341c116101a25780630e89341c146102585780630ebd4c7f1461026b5780631ff702a81461028b5780632eb2c2d61461029e57600080fd5b8062fdd58e146101c857806301ffc9a7146101ee57806306fdde0314610243575b600080fd5b6101db6101d6366004612412565b610488565b6040519081526020015b60405180910390f35b6102336101fc36600461246c565b7fffffffff000000000000000000000000000000000000000000000000000000001660009081526020819052604090205460ff1690565b60405190151581526020016101e5565b61024b6104b2565b6040516101e591906124d6565b61024b6102663660046124e9565b610540565b61027e6102793660046124e9565b61054b565b6040516101e5919061253d565b6101db6102993660046124e9565b61066d565b6102b16102ac3660046125de565b6106b3565b005b61027e6102c136600461269d565b610abd565b6102d96102d4366004612709565b610bc9565b604080516001600160a01b0390931683526020830191909152016101e5565b6102b1610c0f565b61023361030e36600461272b565b610c75565b6001546001600160a01b03165b6040516001600160a01b0390911681526020016101e5565b6102b1610346366004612828565b610c82565b61024b610ce8565b6102b1610361366004612828565b610cf5565b6102b1610374366004612865565b610d58565b61038c6103873660046124e9565b610dc4565b6040516101e591906128a3565b61024b610eeb565b6102b16103af3660046128fa565b610ef8565b6103206103c23660046124e9565b6008602052600090815260409020546001600160a01b031681565b6102b1611002565b61024b61100b565b6102336103fb366004612a36565b6001600160a01b03918216600090815260076020908152604080832093909416825291909152205460ff1690565b6102b161043736600461272b565b611018565b6102b161044a366004612a64565b61109c565b6102b161045d36600461272b565b6112ca565b6102b1610470366004612ae0565b6113a9565b610320610483366004612b15565b6114f0565b60008181526006602090815260408083206001600160a01b03861684529091529020545b92915050565b600a80546104bf90612b50565b80601f01602080910402602001604051908101604052809291908181526020018280546104eb90612b50565b80156105385780601f1061050d57610100808354040283529160200191610538565b820191906000526020600020905b81548152906001019060200180831161051b57829003601f168201915b505050505081565b60606104ac82611602565b6000818152600960209081526040808320805482518185028101850190935280835260609493849084015b828210156105be576000848152602090819020604080518082019091526002850290910180546001600160a01b03168252600190810154828401529083529092019101610576565b5050505090506000815167ffffffffffffffff8111156105e0576105e0612748565b604051908082528060200260200182016040528015610609578160200160208202803683370190505b50905060005b82518110156106655782818151811061062a5761062a612b8b565b60200260200101516020015182828151811061064857610648612b8b565b60209081029190910101528061065d81612bb7565b91505061060f565b509392505050565b6040516bffffffffffffffffffffffff193060601b166020820152603481018290526000906054015b604051602081830303815290604052805190602001209050919050565b6001600160a01b0387166107345760405162461bcd60e51b815260206004820152602560248201527f64657374696e6174696f6e2061646472657373206d757374206265206e6f6e2d60448201527f7a65726f2e00000000000000000000000000000000000000000000000000000060648201526084015b60405180910390fd5b8483146107a95760405162461bcd60e51b815260206004820152602960248201527f5f69647320616e64205f76616c756573206172726179206c656e676874206d7560448201527f7374206d617463682e0000000000000000000000000000000000000000000000606482015260840161072b565b6001600160a01b0388163314806107e857506001600160a01b038816600090815260076020908152604080832033845290915290205460ff1615156001145b61085a5760405162461bcd60e51b815260206004820152602f60248201527f4e656564206f70657261746f7220617070726f76616c20666f7220337264207060448201527f61727479207472616e73666572732e0000000000000000000000000000000000606482015260840161072b565b60005b858110156109a357600087878381811061087957610879612b8b565b905060200201359050600086868481811061089657610896612b8b565b9050602002013590506108e8816006600085815260200190815260200160002060008e6001600160a01b03166001600160a01b031681526020019081526020016000205461173990919063ffffffff16565b6006600084815260200190815260200160002060008d6001600160a01b03166001600160a01b031681526020019081526020016000208190555061096b6006600084815260200190815260200160002060008c6001600160a01b03166001600160a01b03168152602001908152602001600020548261175c90919063ffffffff16565b60009283526006602090815260408085206001600160a01b038e168652909152909220919091555061099c81612bb7565b905061085d565b50866001600160a01b0316886001600160a01b0316336001600160a01b03167f4a39dc06d4c0dbc64b70af90fd698a233a518aa5d07e595d983b8c0526c8f7fb898989896040516109f79493929190612c3f565b60405180910390a46001600160a01b0387163b15610ab357610ab333898989898080602002602001604051908101604052809392919081815260200183836020028082843760009201919091525050604080516020808d0282810182019093528c82529093508c92508b91829185019084908082843760009201919091525050604080516020601f8c018190048102820181019092528a815292508a915089908190840183828082843760009201919091525061177a92505050565b5050505050505050565b6060838214610acb57600080fd5b60008467ffffffffffffffff811115610ae657610ae6612748565b604051908082528060200260200182016040528015610b0f578160200160208202803683370190505b50905060005b85811015610bbf5760066000868684818110610b3357610b33612b8b565b9050602002013581526020019081526020016000206000888884818110610b5c57610b5c612b8b565b9050602002016020810190610b71919061272b565b6001600160a01b03166001600160a01b0316815260200190815260200160002054828281518110610ba457610ba4612b8b565b6020908102919091010152610bb881612bb7565b9050610b15565b5095945050505050565b60096020528160005260406000208181548110610be557600080fd5b6000918252602090912060029091020180546001909101546001600160a01b039091169250905082565b6001546001600160a01b03163314610c695760405162461bcd60e51b815260206004820181905260248201527f4f776e61626c653a2063616c6c6572206973206e6f7420746865206f776e6572604482015260640161072b565b610c7360006118b0565b565b60006104ac60028361190f565b6001546001600160a01b03163314610cdc5760405162461bcd60e51b815260206004820181905260248201527f4f776e61626c653a2063616c6c6572206973206e6f7420746865206f776e6572604482015260640161072b565b610ce5816119ad565b50565b600b80546104bf90612b50565b6001546001600160a01b03163314610d4f5760405162461bcd60e51b815260206004820181905260248201527f4f776e61626c653a2063616c6c6572206973206e6f7420746865206f776e6572604482015260640161072b565b610ce5816119c4565b3360008181526007602090815260408083206001600160a01b03871680855290835292819020805460ff191686151590811790915590519081529192917f17307eab39ab6107e8899845ad3d59bd9653f200f220920489ca2b5937696c31910160405180910390a35050565b6000818152600960209081526040808320805482518185028101850190935280835260609493849084015b82821015610e37576000848152602090819020604080518082019091526002850290910180546001600160a01b03168252600190810154828401529083529092019101610def565b5050505090506000815167ffffffffffffffff811115610e5957610e59612748565b604051908082528060200260200182016040528015610e82578160200160208202803683370190505b50905060005b825181101561066557828181518110610ea357610ea3612b8b565b602002602001015160000151828281518110610ec157610ec1612b8b565b6001600160a01b039092166020928302919091019091015280610ee381612bb7565b915050610e88565b600380546104bf90612b50565b6040516bffffffffffffffffffffffff193060601b16602082015260348101889052610fa190600190610f44906054015b604051602081830303815290604052805190602001206119d7565b6040805160008152602081018083529290925260ff8a1690820152606081018890526080810187905260a0016020604051602081039080840390855afa158015610f92573d6000803e3d6000fd5b50505060206040510351610c75565b610fed5760405162461bcd60e51b815260206004820152601a60248201527f7369676e65722073686f756c64207369676e20746f6b656e4964000000000000604482015260640161072b565b610ff987848484611a12565b50505050505050565b610c7333611ec9565b600580546104bf90612b50565b61102133610c75565b6110935760405162461bcd60e51b815260206004820152603060248201527f5369676e6572526f6c653a2063616c6c657220646f6573206e6f74206861766560448201527f20746865205369676e657220726f6c6500000000000000000000000000000000606482015260840161072b565b610ce581611f0b565b6001600160a01b0385166110f25760405162461bcd60e51b815260206004820152601560248201527f5f746f206d757374206265206e6f6e2d7a65726f2e0000000000000000000000604482015260640161072b565b6001600160a01b03861633148061113157506001600160a01b038616600090815260076020908152604080832033845290915290205460ff1615156001145b6111a35760405162461bcd60e51b815260206004820152602f60248201527f4e656564206f70657261746f7220617070726f76616c20666f7220337264207060448201527f61727479207472616e73666572732e0000000000000000000000000000000000606482015260840161072b565b60008481526006602090815260408083206001600160a01b038a1684529091529020546111d09084611739565b60008581526006602090815260408083206001600160a01b038b8116855292528083209390935587168152205461120890849061175c565b60008581526006602090815260408083206001600160a01b038a8116808652918452938290209490945580518881529182018790529189169133917fc3d58168c5ae7397731d063d5bbf3d657854427343f4c083240f7aacaa2d0f62910160405180910390a46001600160a01b0385163b156112c2576112c2338787878787878080601f016020809104026020016040519081016040528093929190818152602001838380828437600092019190915250611f4d92505050565b505050505050565b6001546001600160a01b031633146113245760405162461bcd60e51b815260206004820181905260248201527f4f776e61626c653a2063616c6c6572206973206e6f7420746865206f776e6572604482015260640161072b565b6001600160a01b0381166113a05760405162461bcd60e51b815260206004820152602660248201527f4f776e61626c653a206e6577206f776e657220697320746865207a65726f206160448201527f6464726573730000000000000000000000000000000000000000000000000000606482015260840161072b565b610ce5816118b0565b6001600160a01b0383163314806113e857506001600160a01b038316600090815260076020908152604080832033845290915290205460ff1615156001145b61145a5760405162461bcd60e51b815260206004820152602b60248201527f4e656564206f70657261746f7220617070726f76616c20666f7220337264207060448201527f61727479206275726e732e000000000000000000000000000000000000000000606482015260840161072b565b60008281526006602090815260408083206001600160a01b0387168452909152902054611488908290612c71565b60008381526006602090815260408083206001600160a01b03881680855290835281842094909455805186815291820185905291929133917fc3d58168c5ae7397731d063d5bbf3d657854427343f4c083240f7aacaa2d0f62910160405180910390a4505050565b6040516bffffffffffffffffffffffff193060601b1660208201526034810185905260009060019061152490605401610f29565b6040805160008152602081018083529290925260ff871690820152606081018590526080810184905260a0016020604051602081039080840390855afa158015611572573d6000803e3d6000fd5b5050604051601f1901519695505050505050565b611590828261190f565b156115dd5760405162461bcd60e51b815260206004820152601f60248201527f526f6c65733a206163636f756e7420616c72656164792068617320726f6c6500604482015260640161072b565b6001600160a01b0316600090815260209190915260409020805460ff19166001179055565b600081815260046020526040902080546060916104ac9161162290612b50565b80601f016020809104026020016040519081016040528092919081815260200182805461164e90612b50565b801561169b5780601f106116705761010080835404028352916020019161169b565b820191906000526020600020905b81548152906001019060200180831161167e57829003601f168201915b5050505050600380546116ad90612b50565b80601f01602080910402602001604051908101604052809291908181526020018280546116d990612b50565b80156117265780601f106116fb57610100808354040283529160200191611726565b820191906000526020600020905b81548152906001019060200180831161170957829003601f168201915b505050505061208390919063ffffffff16565b60008282111561174b5761174b612c88565b6117558284612c71565b9392505050565b60006117688284612c9e565b9050828110156104ac576104ac612c88565b6040517fbc197c8100000000000000000000000000000000000000000000000000000000808252906001600160a01b0386169063bc197c81906117c9908a908a90899089908990600401612cb6565b602060405180830381600087803b1580156117e357600080fd5b505af11580156117f7573d6000803e3d6000fd5b505050506040513d601f19601f8201168201806040525081019061181b9190612d14565b7fffffffff0000000000000000000000000000000000000000000000000000000016146112c25760405162461bcd60e51b815260206004820152603e60248201527f636f6e74726163742072657475726e656420616e20756e6b6e6f776e2076616c60448201527f75652066726f6d206f6e45524331313535426174636852656365697665640000606482015260840161072b565b600180546001600160a01b0383811673ffffffffffffffffffffffffffffffffffffffff19831681179093556040519116919082907f8be0079c531659141344cd1fd0a4f28419497f9722a3daafe3b4186f6b6457e090600090a35050565b60006001600160a01b03821661198d5760405162461bcd60e51b815260206004820152602260248201527f526f6c65733a206163636f756e7420697320746865207a65726f20616464726560448201527f7373000000000000000000000000000000000000000000000000000000000000606482015260840161072b565b506001600160a01b03166000908152602091909152604090205460ff1690565b80516119c0906005906020840190612364565b5050565b80516119c0906003906020840190612364565b6040517f19457468657265756d205369676e6564204d6573736167653a0a3332000000006020820152603c8101829052600090605c01610696565b6000848152600860205260409020546001600160a01b031615611a775760405162461bcd60e51b815260206004820152601760248201527f546f6b656e20697320616c7265616479206d696e746564000000000000000000604482015260640161072b565b81611ac45760405162461bcd60e51b815260206004820152601960248201527f537570706c792073686f756c6420626520706f73697469766500000000000000604482015260640161072b565b6000815111611b155760405162461bcd60e51b815260206004820152601160248201527f7572692073686f756c6420626520736574000000000000000000000000000000604482015260640161072b565b6000848152600860205260408120805473ffffffffffffffffffffffffffffffffffffffff191633179055835167ffffffffffffffff811115611b5a57611b5a612748565b604051908082528060200260200182016040528015611b83578160200160208202803683370190505b5090506000845167ffffffffffffffff811115611ba257611ba2612748565b604051908082528060200260200182016040528015611bcb578160200160208202803683370190505b50905060005b8551811015611ddf5760006001600160a01b0316868281518110611bf757611bf7612b8b565b6020026020010151600001516001600160a01b03161415611c5a5760405162461bcd60e51b815260206004820152601b60248201527f526563697069656e742073686f756c642062652070726573656e740000000000604482015260640161072b565b858181518110611c6c57611c6c612b8b565b60200260200101516020015160001415611cc85760405162461bcd60e51b815260206004820152601c60248201527f4665652076616c75652073686f756c6420626520706f73697469766500000000604482015260640161072b565b60008781526009602052604090208651879083908110611cea57611cea612b8b565b6020908102919091018101518254600180820185556000948552938390208251600290920201805473ffffffffffffffffffffffffffffffffffffffff19166001600160a01b039092169190911781559101519101558551869082908110611d5457611d54612b8b565b602002602001015160000151838281518110611d7257611d72612b8b565b60200260200101906001600160a01b031690816001600160a01b031681525050858181518110611da457611da4612b8b565b602002602001015160200151828281518110611dc257611dc2612b8b565b602090810291909101015280611dd781612bb7565b915050611bd1565b50845115611e23577f99aba1d63749cfd5ad1afda7c4663840924d54eb5f005bbbeadedc6ec13674b2868383604051611e1a93929190612d31565b60405180910390a15b60008681526006602090815260408083203384529091529020849055611e498684612234565b6040805187815260208101869052339160009183917fc3d58168c5ae7397731d063d5bbf3d657854427343f4c083240f7aacaa2d0f62910160405180910390a4857f6bb7ff708619ba0610cba295a58592e0451dee2622938c8755667688daf3529b84604051611eb991906124d6565b60405180910390a2505050505050565b611ed46002826122a2565b6040516001600160a01b038216907f3525e22824a8a7df2c9a6029941c824cf95b6447f1e13d5128fd3826d35afe8b90600090a250565b611f16600282611586565b6040516001600160a01b038216907f47d1c22a25bb3a5d4e481b9b1e6944c2eade3181a0a20b495ed61d35b5323f2490600090a250565b6040517ff23a6e6100000000000000000000000000000000000000000000000000000000808252906001600160a01b0386169063f23a6e6190611f9c908a908a90899089908990600401612d8f565b602060405180830381600087803b158015611fb657600080fd5b505af1158015611fca573d6000803e3d6000fd5b505050506040513d601f19601f82011682018060405250810190611fee9190612d14565b7fffffffff0000000000000000000000000000000000000000000000000000000016146112c25760405162461bcd60e51b815260206004820152603960248201527f636f6e74726163742072657475726e656420616e20756e6b6e6f776e2076616c60448201527f75652066726f6d206f6e45524331313535526563656976656400000000000000606482015260840161072b565b805182516060918491849160009161209b9190612c9e565b67ffffffffffffffff8111156120b3576120b3612748565b6040519080825280601f01601f1916602001820160405280156120dd576020820181803683370190505b5090506000805b8451811015612184578481815181106120ff576120ff612b8b565b01602001517fff0000000000000000000000000000000000000000000000000000000000000016838361213181612bb7565b94508151811061214357612143612b8b565b60200101907effffffffffffffffffffffffffffffffffffffffffffffffffffffffffffff1916908160001a9053508061217c81612bb7565b9150506120e4565b5060005b8351811015612228578381815181106121a3576121a3612b8b565b01602001517fff000000000000000000000000000000000000000000000000000000000000001683836121d581612bb7565b9450815181106121e7576121e7612b8b565b60200101907effffffffffffffffffffffffffffffffffffffffffffffffffffffffffffff1916908160001a9053508061222081612bb7565b915050612188565b50909695505050505050565b6000828152600860205260409020546001600160a01b03166122985760405162461bcd60e51b815260206004820181905260248201527f5f736574546f6b656e5552493a20546f6b656e2073686f756c64206578697374604482015260640161072b565b6119c08282612340565b6122ac828261190f565b61231e5760405162461bcd60e51b815260206004820152602160248201527f526f6c65733a206163636f756e7420646f6573206e6f74206861766520726f6c60448201527f6500000000000000000000000000000000000000000000000000000000000000606482015260840161072b565b6001600160a01b0316600090815260209190915260409020805460ff19169055565b6000828152600460209081526040909120825161235f92840190612364565b505050565b82805461237090612b50565b90600052602060002090601f01602090048101928261239257600085556123d8565b82601f106123ab57805160ff19168380011785556123d8565b828001600101855582156123d8579182015b828111156123d85782518255916020019190600101906123bd565b506123e49291506123e8565b5090565b5b808211156123e457600081556001016123e9565b6001600160a01b0381168114610ce557600080fd5b6000806040838503121561242557600080fd5b8235612430816123fd565b946020939093013593505050565b7fffffffff0000000000000000000000000000000000000000000000000000000081168114610ce557600080fd5b60006020828403121561247e57600080fd5b81356117558161243e565b6000815180845260005b818110156124af57602081850181015186830182015201612493565b818111156124c1576000602083870101525b50601f01601f19169290920160200192915050565b6020815260006117556020830184612489565b6000602082840312156124fb57600080fd5b5035919050565b600081518084526020808501945080840160005b8381101561253257815187529582019590820190600101612516565b509495945050505050565b6020815260006117556020830184612502565b60008083601f84011261256257600080fd5b50813567ffffffffffffffff81111561257a57600080fd5b6020830191508360208260051b850101111561259557600080fd5b9250929050565b60008083601f8401126125ae57600080fd5b50813567ffffffffffffffff8111156125c657600080fd5b60208301915083602082850101111561259557600080fd5b60008060008060008060008060a0898b0312156125fa57600080fd5b8835612605816123fd565b97506020890135612615816123fd565b9650604089013567ffffffffffffffff8082111561263257600080fd5b61263e8c838d01612550565b909850965060608b013591508082111561265757600080fd5b6126638c838d01612550565b909650945060808b013591508082111561267c57600080fd5b506126898b828c0161259c565b999c989b5096995094979396929594505050565b600080600080604085870312156126b357600080fd5b843567ffffffffffffffff808211156126cb57600080fd5b6126d788838901612550565b909650945060208701359150808211156126f057600080fd5b506126fd87828801612550565b95989497509550505050565b6000806040838503121561271c57600080fd5b50508035926020909101359150565b60006020828403121561273d57600080fd5b8135611755816123fd565b634e487b7160e01b600052604160045260246000fd5b6040805190810167ffffffffffffffff8111828210171561278157612781612748565b60405290565b604051601f8201601f1916810167ffffffffffffffff811182821017156127b0576127b0612748565b604052919050565b600082601f8301126127c957600080fd5b813567ffffffffffffffff8111156127e3576127e3612748565b6127f66020601f19601f84011601612787565b81815284602083860101111561280b57600080fd5b816020850160208301376000918101602001919091529392505050565b60006020828403121561283a57600080fd5b813567ffffffffffffffff81111561285157600080fd5b61285d848285016127b8565b949350505050565b6000806040838503121561287857600080fd5b8235612883816123fd565b91506020830135801515811461289857600080fd5b809150509250929050565b6020808252825182820181905260009190848201906040850190845b818110156122285783516001600160a01b0316835292840192918401916001016128bf565b803560ff811681146128f557600080fd5b919050565b600080600080600080600060e0888a03121561291557600080fd5b87359650612925602089016128e4565b95506040880135945060608801359350608088013567ffffffffffffffff8082111561295057600080fd5b818a0191508a601f83011261296457600080fd5b81358181111561297657612976612748565b61298560208260051b01612787565b8082825260208201915060208360061b86010192508d8311156129a757600080fd5b6020850194505b828510156129fb576040858f0312156129c657600080fd5b6129ce61275e565b6129d886356123fd565b8535815260208601356020820152808352506020820191506040850194506129ae565b9650505060a08a0135935060c08a0135915080821115612a1a57600080fd5b50612a278a828b016127b8565b91505092959891949750929550565b60008060408385031215612a4957600080fd5b8235612a54816123fd565b91506020830135612898816123fd565b60008060008060008060a08789031215612a7d57600080fd5b8635612a88816123fd565b95506020870135612a98816123fd565b94506040870135935060608701359250608087013567ffffffffffffffff811115612ac257600080fd5b612ace89828a0161259c565b979a9699509497509295939492505050565b600080600060608486031215612af557600080fd5b8335612b00816123fd565b95602085013595506040909401359392505050565b60008060008060808587031215612b2b57600080fd5b84359350612b3b602086016128e4565b93969395505050506040820135916060013590565b600181811c90821680612b6457607f821691505b60208210811415612b8557634e487b7160e01b600052602260045260246000fd5b50919050565b634e487b7160e01b600052603260045260246000fd5b634e487b7160e01b600052601160045260246000fd5b60007fffffffffffffffffffffffffffffffffffffffffffffffffffffffffffffffff821415612be957612be9612ba1565b5060010190565b81835260007f07ffffffffffffffffffffffffffffffffffffffffffffffffffffffffffffff831115612c2257600080fd5b8260051b8083602087013760009401602001938452509192915050565b604081526000612c53604083018688612bf0565b8281036020840152612c66818587612bf0565b979650505050505050565b600082821015612c8357612c83612ba1565b500390565b634e487b7160e01b600052600160045260246000fd5b60008219821115612cb157612cb1612ba1565b500190565b60006001600160a01b03808816835280871660208401525060a06040830152612ce260a0830186612502565b8281036060840152612cf48186612502565b90508281036080840152612d088185612489565b98975050505050505050565b600060208284031215612d2657600080fd5b81516117558161243e565b6000606082018583526020606081850152818651808452608086019150828801935060005b81811015612d7b5784516001600160a01b031683529383019391830191600101612d56565b50508481036040860152612d088187612502565b60006001600160a01b03808816835280871660208401525084604083015283606083015260a06080830152612c6660a083018461248956fea26469706673582212202c64f0a79e206cefc42b774940a7b4a5b9686f7f40a9f69256d5ad0bf067637a64736f6c63430008090033",
  "devdoc": {
    "kind": "dev",
    "methods": {
      "balanceOf(address,uint256)": {
        "params": {
          "_id": "ID of the Token",
          "_owner": "The address of the token holder"
        },
        "returns": {
          "_0": "The _owner's balance of the Token type requested"
        }
      },
      "balanceOfBatch(address[],uint256[])": {
        "params": {
          "_ids": "ID of the Tokens",
          "_owners": "The addresses of the token holders"
        },
        "returns": {
          "_0": "The _owner's balance of the Token types requested (i.e. balance for each (owner, id) pair)"
        }
      },
      "isApprovedForAll(address,address)": {
        "params": {
          "_operator": "Address of authorized operator",
          "_owner": "The owner of the Tokens"
        },
        "returns": {
          "_0": "True if the operator is approved, false if not"
        }
      },
      "owner()": {
        "details": "Returns the address of the current owner."
      },
      "renounceOwnership()": {
        "details": "Leaves the contract without owner. It will not be possible to call `onlyOwner` functions anymore. Can only be called by the current owner. NOTE: Renouncing ownership will leave the contract without an owner, thereby removing any functionality that is only available to the owner."
      },
      "safeBatchTransferFrom(address,address,uint256[],uint256[],bytes)": {
        "details": "Caller must be approved to manage the tokens being transferred out of the `_from` account (see \"Approval\" section of the standard). MUST revert if `_to` is the zero address. MUST revert if length of `_ids` is not the same as length of `_values`. MUST revert if any of the balance(s) of the holder(s) for token(s) in `_ids` is lower than the respective amount(s) in `_values` sent to the recipient. MUST revert on any other error. MUST emit `TransferSingle` or `TransferBatch` event(s) such that all the balance changes are reflected (see \"Safe Transfer Rules\" section of the standard). Balance changes and events MUST follow the ordering of the arrays (_ids[0]/_values[0] before _ids[1]/_values[1], etc). After the above conditions for the transfer(s) in the batch are met, this function MUST check if `_to` is a smart contract (e.g. code size > 0). If so, it MUST call the relevant `ERC1155TokenReceiver` hook(s) on `_to` and act appropriately (see \"Safe Transfer Rules\" section of the standard).",
        "params": {
          "_data": "Additional data with no specified format, MUST be sent unaltered in call to the `ERC1155TokenReceiver` hook(s) on `_to`",
          "_from": "Source address",
          "_ids": "IDs of each token type (order and length must match _values array)",
          "_to": "Target address",
          "_values": "Transfer amounts per token type (order and length must match _ids array)"
        }
      },
      "safeTransferFrom(address,address,uint256,uint256,bytes)": {
        "details": "Caller must be approved to manage the tokens being transferred out of the `_from` account (see \"Approval\" section of the standard). MUST revert if `_to` is the zero address. MUST revert if balance of holder for token `_id` is lower than the `_value` sent. MUST revert on any other error. MUST emit the `TransferSingle` event to reflect the balance change (see \"Safe Transfer Rules\" section of the standard). After the above conditions are met, this function MUST check if `_to` is a smart contract (e.g. code size > 0). If so, it MUST call `onERC1155Received` on `_to` and act appropriately (see \"Safe Transfer Rules\" section of the standard).",
        "params": {
          "_data": "Additional data with no specified format, MUST be sent unaltered in call to `onERC1155Received` on `_to`",
          "_from": "Source address",
          "_id": "ID of the token type",
          "_to": "Target address",
          "_value": "Transfer amount"
        }
      },
      "setApprovalForAll(address,bool)": {
        "details": "MUST emit the ApprovalForAll event on success.",
        "params": {
          "_approved": "True if the operator is approved, false to revoke approval",
          "_operator": "Address to add to the set of authorized operators"
        }
      },
      "supportsInterface(bytes4)": {
        "details": "See {IERC165-supportsInterface}. Time complexity O(1), guaranteed to always use less than 30 000 gas."
      },
      "transferOwnership(address)": {
        "details": "Transfers ownership of the contract to a new account (`newOwner`). Can only be called by the current owner."
      },
      "uri(uint256)": {
        "details": "URIs are defined in RFC 3986. The URI may point to a JSON file that conforms to the \"ERC-1155 Metadata URI JSON Schema\".",
        "returns": {
          "_0": "URI string"
        }
      }
    },
    "version": 1
  },
  "userdoc": {
    "kind": "user",
    "methods": {
      "balanceOf(address,uint256)": {
        "notice": "Get the balance of an account's Tokens."
      },
      "balanceOfBatch(address[],uint256[])": {
        "notice": "Get the balance of multiple account/token pairs"
      },
      "isApprovedForAll(address,address)": {
        "notice": "Queries the approval status of an operator for a given owner."
      },
      "safeBatchTransferFrom(address,address,uint256[],uint256[],bytes)": {
        "notice": "Transfers `_values` amount(s) of `_ids` from the `_from` address to the `_to` address specified (with safety call)."
      },
      "safeTransferFrom(address,address,uint256,uint256,bytes)": {
        "notice": "Transfers `_value` amount of an `_id` from the `_from` address to the `_to` address specified (with safety call)."
      },
      "setApprovalForAll(address,bool)": {
        "notice": "Enable or disable approval for a third party (\"operator\") to manage all of the caller's tokens."
      },
      "uri(uint256)": {
        "notice": "A distinct Uniform Resource Identifier (URI) for a given token."
      }
    },
    "version": 1
  },
  "storageLayout": {
    "storage": [
      {
        "astId": 6327,
        "contract": "src/ERC1155EMUSK.sol:ERC1155EMUSK",
        "label": "_supportedInterfaces",
        "offset": 0,
        "slot": "0",
        "type": "t_mapping(t_bytes4,t_bool)"
      },
      {
        "astId": 1540,
        "contract": "src/ERC1155EMUSK.sol:ERC1155EMUSK",
        "label": "_owner",
        "offset": 0,
        "slot": "1",
        "type": "t_address"
      },
      {
        "astId": 1774,
        "contract": "src/ERC1155EMUSK.sol:ERC1155EMUSK",
        "label": "_signers",
        "offset": 0,
        "slot": "2",
        "type": "t_struct(Role)2723_storage"
      },
      {
        "astId": 6456,
        "contract": "src/ERC1155EMUSK.sol:ERC1155EMUSK",
        "label": "tokenURIPrefix",
        "offset": 0,
        "slot": "3",
        "type": "t_string_storage"
      },
      {
        "astId": 6460,
        "contract": "src/ERC1155EMUSK.sol:ERC1155EMUSK",
        "label": "_tokenURIs",
        "offset": 0,
        "slot": "4",
        "type": "t_mapping(t_uint256,t_string_storage)"
      },
      {
        "astId": 6376,
        "contract": "src/ERC1155EMUSK.sol:ERC1155EMUSK",
        "label": "contractURI",
        "offset": 0,
        "slot": "5",
        "type": "t_string_storage"
      },
      {
        "astId": 3887,
        "contract": "src/ERC1155EMUSK.sol:ERC1155EMUSK",
        "label": "balances",
        "offset": 0,
        "slot": "6",
        "type": "t_mapping(t_uint256,t_mapping(t_address,t_uint256))"
      },
      {
        "astId": 3893,
        "contract": "src/ERC1155EMUSK.sol:ERC1155EMUSK",
        "label": "operatorApproval",
        "offset": 0,
        "slot": "7",
        "type": "t_mapping(t_address,t_mapping(t_address,t_bool))"
      },
      {
        "astId": 4353,
        "contract": "src/ERC1155EMUSK.sol:ERC1155EMUSK",
        "label": "creators",
        "offset": 0,
        "slot": "8",
        "type": "t_mapping(t_uint256,t_address)"
      },
      {
        "astId": 4359,
        "contract": "src/ERC1155EMUSK.sol:ERC1155EMUSK",
        "label": "fees",
        "offset": 0,
        "slot": "9",
        "type": "t_mapping(t_uint256,t_array(t_struct(Fee)4349_storage)dyn_storage)"
      },
      {
        "astId": 13,
        "contract": "src/ERC1155EMUSK.sol:ERC1155EMUSK",
        "label": "name",
        "offset": 0,
        "slot": "10",
        "type": "t_string_storage"
      },
      {
        "astId": 15,
        "contract": "src/ERC1155EMUSK.sol:ERC1155EMUSK",
        "label": "symbol",
        "offset": 0,
        "slot": "11",
        "type": "t_string_storage"
      }
    ],
    "types": {
      "t_address": {
        "encoding": "inplace",
        "label": "address",
        "numberOfBytes": "20"
      },
      "t_address_payable": {
        "encoding": "inplace",
        "label": "address payable",
        "numberOfBytes": "20"
      },
      "t_array(t_struct(Fee)4349_storage)dyn_storage": {
        "base": "t_struct(Fee)4349_storage",
        "encoding": "dynamic_array",
        "label": "struct ERC1155Base.Fee[]",
        "numberOfBytes": "32"
      },
      "t_bool": {
        "encoding": "inplace",
        "label": "bool",
        "numberOfBytes": "1"
      },
      "t_bytes4": {
        "encoding": "inplace",
        "label": "bytes4",
        "numberOfBytes": "4"
      },
      "t_mapping(t_address,t_bool)": {
        "encoding": "mapping",
        "key": "t_address",
        "label": "mapping(address => bool)",
        "numberOfBytes": "32",
        "value": "t_bool"
      },
      "t_mapping(t_address,t_mapping(t_address,t_bool))": {
        "encoding": "mapping",
        "key": "t_address",
        "label": "mapping(address => mapping(address => bool))",
        "numberOfBytes": "32",
        "value": "t_mapping(t_address,t_bool)"
      },
      "t_mapping(t_address,t_uint256)": {
        "encoding": "mapping",
        "key": "t_address",
        "label": "mapping(address => uint256)",
        "numberOfBytes": "32",
        "value": "t_uint256"
      },
      "t_mapping(t_bytes4,t_bool)": {
        "encoding": "mapping",
        "key": "t_bytes4",
        "label": "mapping(bytes4 => bool)",
        "numberOfBytes": "32",
        "value": "t_bool"
      },
      "t_mapping(t_uint256,t_address)": {
        "encoding": "mapping",
        "key": "t_uint256",
        "label": "mapping(uint256 => address)",
        "numberOfBytes": "32",
        "value": "t_address"
      },
      "t_mapping(t_uint256,t_array(t_struct(Fee)4349_storage)dyn_storage)": {
        "encoding": "mapping",
        "key": "t_uint256",
        "label": "mapping(uint256 => struct ERC1155Base.Fee[])",
        "numberOfBytes": "32",
        "value": "t_array(t_struct(Fee)4349_storage)dyn_storage"
      },
      "t_mapping(t_uint256,t_mapping(t_address,t_uint256))": {
        "encoding": "mapping",
        "key": "t_uint256",
        "label": "mapping(uint256 => mapping(address => uint256))",
        "numberOfBytes": "32",
        "value": "t_mapping(t_address,t_uint256)"
      },
      "t_mapping(t_uint256,t_string_storage)": {
        "encoding": "mapping",
        "key": "t_uint256",
        "label": "mapping(uint256 => string)",
        "numberOfBytes": "32",
        "value": "t_string_storage"
      },
      "t_string_storage": {
        "encoding": "bytes",
        "label": "string",
        "numberOfBytes": "32"
      },
      "t_struct(Fee)4349_storage": {
        "encoding": "inplace",
        "label": "struct ERC1155Base.Fee",
        "members": [
          {
            "astId": 4346,
            "contract": "src/ERC1155EMUSK.sol:ERC1155EMUSK",
            "label": "recipient",
            "offset": 0,
            "slot": "0",
            "type": "t_address_payable"
          },
          {
            "astId": 4348,
            "contract": "src/ERC1155EMUSK.sol:ERC1155EMUSK",
            "label": "value",
            "offset": 0,
            "slot": "1",
            "type": "t_uint256"
          }
        ],
        "numberOfBytes": "64"
      },
      "t_struct(Role)2723_storage": {
        "encoding": "inplace",
        "label": "struct Roles.Role",
        "members": [
          {
            "astId": 2722,
            "contract": "src/ERC1155EMUSK.sol:ERC1155EMUSK",
            "label": "bearer",
            "offset": 0,
            "slot": "0",
            "type": "t_mapping(t_address,t_bool)"
          }
        ],
        "numberOfBytes": "32"
      },
      "t_uint256": {
        "encoding": "inplace",
        "label": "uint256",
        "numberOfBytes": "32"
      }
    }
  }
}