{
  "address": "0x8DC2461D68e73787C2631f003B1adBAC3d1b6CfB",
  "abi": [
    {
      "inputs": [
        {
          "internalType": "string",
          "name": "_name",
          "type": "string"
        },
        {
          "internalType": "string",
          "name": "_symbol",
          "type": "string"
        },
        {
          "internalType": "address",
          "name": "newOwner",
          "type": "address"
        },
        {
          "internalType": "string",
          "name": "contractURI",
          "type": "string"
        },
        {
          "internalType": "string",
          "name": "tokenURIPrefix",
          "type": "string"
        }
      ],
      "stateMutability": "nonpayable",
      "type": "constructor"
    },
    {
      "anonymous": false,
      "inputs": [
        {
          "indexed": true,
          "internalType": "address",
          "name": "owner",
          "type": "address"
        },
        {
          "indexed": true,
          "internalType": "address",
          "name": "approved",
          "type": "address"
        },
        {
          "indexed": true,
          "internalType": "uint256",
          "name": "tokenId",
          "type": "uint256"
        }
      ],
      "name": "Approval",
      "type": "event"
    },
    {
      "anonymous": false,
      "inputs": [
        {
          "indexed": true,
          "internalType": "address",
          "name": "owner",
          "type": "address"
        },
        {
          "indexed": true,
          "internalType": "address",
          "name": "operator",
          "type": "address"
        },
        {
          "indexed": false,
          "internalType": "bool",
          "name": "approved",
          "type": "bool"
        }
      ],
      "name": "ApprovalForAll",
      "type": "event"
    },
    {
      "anonymous": false,
      "inputs": [
        {
          "indexed": true,
          "internalType": "address",
          "name": "previousOwner",
          "type": "address"
        },
        {
          "indexed": true,
          "internalType": "address",
          "name": "newOwner",
          "type": "address"
        }
      ],
      "name": "OwnershipTransferred",
      "type": "event"
    },
    {
      "anonymous": false,
      "inputs": [
        {
          "indexed": false,
          "internalType": "uint256",
          "name": "tokenId",
          "type": "uint256"
        },
        {
          "indexed": false,
          "internalType": "address[]",
          "name": "recipients",
          "type": "address[]"
        },
        {
          "indexed": false,
          "internalType": "uint256[]",
          "name": "bps",
          "type": "uint256[]"
        }
      ],
      "name": "SecondarySaleFees",
      "type": "event"
    },
    {
      "anonymous": false,
      "inputs": [
        {
          "indexed": true,
          "internalType": "address",
          "name": "from",
          "type": "address"
        },
        {
          "indexed": true,
          "internalType": "address",
          "name": "to",
          "type": "address"
        },
        {
          "indexed": true,
          "internalType": "uint256",
          "name": "tokenId",
          "type": "uint256"
        }
      ],
      "name": "Transfer",
      "type": "event"
    },
    {
      "inputs": [
        {
          "internalType": "address",
          "name": "to",
          "type": "address"
        },
        {
          "internalType": "uint256",
          "name": "tokenId",
          "type": "uint256"
        }
      ],
      "name": "approve",
      "outputs": [],
      "stateMutability": "nonpayable",
      "type": "function"
    },
    {
      "inputs": [
        {
          "internalType": "address",
          "name": "owner",
          "type": "address"
        }
      ],
      "name": "balanceOf",
      "outputs": [
        {
          "internalType": "uint256",
          "name": "",
          "type": "uint256"
        }
      ],
      "stateMutability": "view",
      "type": "function"
    },
    {
      "inputs": [
        {
          "internalType": "uint256",
          "name": "tokenId",
          "type": "uint256"
        }
      ],
      "name": "burn",
      "outputs": [],
      "stateMutability": "nonpayable",
      "type": "function"
    },
    {
      "inputs": [],
      "name": "contractURI",
      "outputs": [
        {
          "internalType": "string",
          "name": "",
          "type": "string"
        }
      ],
      "stateMutability": "view",
      "type": "function"
    },
    {
      "inputs": [
        {
          "internalType": "uint256",
          "name": "",
          "type": "uint256"
        },
        {
          "internalType": "uint256",
          "name": "",
          "type": "uint256"
        }
      ],
      "name": "fees",
      "outputs": [
        {
          "internalType": "address payable",
          "name": "recipient",
          "type": "address"
        },
        {
          "internalType": "uint256",
          "name": "value",
          "type": "uint256"
        }
      ],
      "stateMutability": "view",
      "type": "function"
    },
    {
      "inputs": [
        {
          "internalType": "uint256",
          "name": "tokenId",
          "type": "uint256"
        }
      ],
      "name": "getApproved",
      "outputs": [
        {
          "internalType": "address",
          "name": "",
          "type": "address"
        }
      ],
      "stateMutability": "view",
      "type": "function"
    },
    {
      "inputs": [
        {
          "internalType": "uint256",
          "name": "id",
          "type": "uint256"
        }
      ],
      "name": "getFeeBps",
      "outputs": [
        {
          "internalType": "uint256[]",
          "name": "",
          "type": "uint256[]"
        }
      ],
      "stateMutability": "view",
      "type": "function"
    },
    {
      "inputs": [
        {
          "internalType": "uint256",
          "name": "id",
          "type": "uint256"
        }
      ],
      "name": "getFeeRecipients",
      "outputs": [
        {
          "internalType": "address payable[]",
          "name": "",
          "type": "address[]"
        }
      ],
      "stateMutability": "view",
      "type": "function"
    },
    {
      "inputs": [
        {
          "internalType": "address",
          "name": "owner",
          "type": "address"
        },
        {
          "internalType": "address",
          "name": "operator",
          "type": "address"
        }
      ],
      "name": "isApprovedForAll",
      "outputs": [
        {
          "internalType": "bool",
          "name": "",
          "type": "bool"
        }
      ],
      "stateMutability": "view",
      "type": "function"
    },
    {
      "inputs": [
        {
          "internalType": "uint256",
          "name": "tokenId",
          "type": "uint256"
        },
        {
          "internalType": "uint8",
          "name": "v",
          "type": "uint8"
        },
        {
          "internalType": "bytes32",
          "name": "r",
          "type": "bytes32"
        },
        {
          "internalType": "bytes32",
          "name": "s",
          "type": "bytes32"
        },
        {
          "components": [
            {
              "internalType": "address payable",
              "name": "recipient",
              "type": "address"
            },
            {
              "internalType": "uint256",
              "name": "value",
              "type": "uint256"
            }
          ],
          "internalType": "struct ERC721Base.Fee[]",
          "name": "_fees",
          "type": "tuple[]"
        },
        {
          "internalType": "string",
          "name": "_tokenURI",
          "type": "string"
        }
      ],
      "name": "mint",
      "outputs": [],
      "stateMutability": "nonpayable",
      "type": "function"
    },
    {
      "inputs": [],
      "name": "name",
      "outputs": [
        {
          "internalType": "string",
          "name": "",
          "type": "string"
        }
      ],
      "stateMutability": "view",
      "type": "function"
    },
    {
      "inputs": [],
      "name": "owner",
      "outputs": [
        {
          "internalType": "address",
          "name": "",
          "type": "address"
        }
      ],
      "stateMutability": "view",
      "type": "function"
    },
    {
      "inputs": [
        {
          "internalType": "uint256",
          "name": "tokenId",
          "type": "uint256"
        }
      ],
      "name": "ownerOf",
      "outputs": [
        {
          "internalType": "address",
          "name": "",
          "type": "address"
        }
      ],
      "stateMutability": "view",
      "type": "function"
    },
    {
      "inputs": [],
      "name": "renounceOwnership",
      "outputs": [],
      "stateMutability": "nonpayable",
      "type": "function"
    },
    {
      "inputs": [
        {
          "internalType": "address",
          "name": "from",
          "type": "address"
        },
        {
          "internalType": "address",
          "name": "to",
          "type": "address"
        },
        {
          "internalType": "uint256",
          "name": "tokenId",
          "type": "uint256"
        }
      ],
      "name": "safeTransferFrom",
      "outputs": [],
      "stateMutability": "nonpayable",
      "type": "function"
    },
    {
      "inputs": [
        {
          "internalType": "address",
          "name": "from",
          "type": "address"
        },
        {
          "internalType": "address",
          "name": "to",
          "type": "address"
        },
        {
          "internalType": "uint256",
          "name": "tokenId",
          "type": "uint256"
        },
        {
          "internalType": "bytes",
          "name": "_data",
          "type": "bytes"
        }
      ],
      "name": "safeTransferFrom",
      "outputs": [],
      "stateMutability": "nonpayable",
      "type": "function"
    },
    {
      "inputs": [
        {
          "internalType": "address",
          "name": "to",
          "type": "address"
        },
        {
          "internalType": "bool",
          "name": "approved",
          "type": "bool"
        }
      ],
      "name": "setApprovalForAll",
      "outputs": [],
      "stateMutability": "nonpayable",
      "type": "function"
    },
    {
      "inputs": [
        {
          "internalType": "string",
          "name": "contractURI",
          "type": "string"
        }
      ],
      "name": "setContractURI",
      "outputs": [],
      "stateMutability": "nonpayable",
      "type": "function"
    },
    {
      "inputs": [
        {
          "internalType": "string",
          "name": "tokenURIPrefix",
          "type": "string"
        }
      ],
      "name": "setTokenURIPrefix",
      "outputs": [],
      "stateMutability": "nonpayable",
      "type": "function"
    },
    {
      "inputs": [
        {
          "internalType": "bytes4",
          "name": "interfaceId",
          "type": "bytes4"
        }
      ],
      "name": "supportsInterface",
      "outputs": [
        {
          "internalType": "bool",
          "name": "",
          "type": "bool"
        }
      ],
      "stateMutability": "view",
      "type": "function"
    },
    {
      "inputs": [],
      "name": "symbol",
      "outputs": [
        {
          "internalType": "string",
          "name": "",
          "type": "string"
        }
      ],
      "stateMutability": "view",
      "type": "function"
    },
    {
      "inputs": [
        {
          "internalType": "uint256",
          "name": "index",
          "type": "uint256"
        }
      ],
      "name": "tokenByIndex",
      "outputs": [
        {
          "internalType": "uint256",
          "name": "",
          "type": "uint256"
        }
      ],
      "stateMutability": "view",
      "type": "function"
    },
    {
      "inputs": [
        {
          "internalType": "address",
          "name": "owner",
          "type": "address"
        },
        {
          "internalType": "uint256",
          "name": "index",
          "type": "uint256"
        }
      ],
      "name": "tokenOfOwnerByIndex",
      "outputs": [
        {
          "internalType": "uint256",
          "name": "",
          "type": "uint256"
        }
      ],
      "stateMutability": "view",
      "type": "function"
    },
    {
      "inputs": [
        {
          "internalType": "uint256",
          "name": "tokenId",
          "type": "uint256"
        }
      ],
      "name": "tokenURI",
      "outputs": [
        {
          "internalType": "string",
          "name": "",
          "type": "string"
        }
      ],
      "stateMutability": "view",
      "type": "function"
    },
    {
      "inputs": [],
      "name": "tokenURIPrefix",
      "outputs": [
        {
          "internalType": "string",
          "name": "",
          "type": "string"
        }
      ],
      "stateMutability": "view",
      "type": "function"
    },
    {
      "inputs": [],
      "name": "totalSupply",
      "outputs": [
        {
          "internalType": "uint256",
          "name": "",
          "type": "uint256"
        }
      ],
      "stateMutability": "view",
      "type": "function"
    },
    {
      "inputs": [
        {
          "internalType": "address",
          "name": "from",
          "type": "address"
        },
        {
          "internalType": "address",
          "name": "to",
          "type": "address"
        },
        {
          "internalType": "uint256",
          "name": "tokenId",
          "type": "uint256"
        }
      ],
      "name": "transferFrom",
      "outputs": [],
      "stateMutability": "nonpayable",
      "type": "function"
    },
    {
      "inputs": [
        {
          "internalType": "address",
          "name": "newOwner",
          "type": "address"
        }
      ],
      "name": "transferOwnership",
      "outputs": [],
      "stateMutability": "nonpayable",
      "type": "function"
    }
  ],
  "transactionHash": "0x8962f419f59758efd25224db2016621c111921fa80d9eb55a3ad1c65240c3162",
  "args": [
    "ERC721EMUSK",
    "EMUSK",
    "0x80aEa81791Ded20568221346C79B0ad4E0890FAA",
    "https://api.emusk.com/contractMetadata/{address}",
    "https://ipfs.io/"
  ],
  "solcInputHash": "bfee237833f79fb62b10e75a193797a6",
  "bytecode": "0x60806040523480156200001157600080fd5b506040516200337a3803806200337a833981016040819052620000349162000473565b848483838082620000453362000157565b620000576301ffc9a760e01b620001a7565b62000069632dde656160e21b620001a7565b6200007b6380ac58cd60e01b620001a7565b80516200009090600690602084019062000300565b50620000a363e8a3d48560e01b620001a7565b508051620000b990600790602084019062000300565b50620000ce905063780e9d6360e01b620001a7565b8351620000e390600d90602087019062000300565b508251620000f990600e90602086019062000300565b506200010c635b5e139f60e01b620001a7565b50505050620001417fe37243f27916e395706434720b54132b80ef5cc8c56f39b0df6485e8dfb697cf620001a760201b60201c565b6200014c836200022f565b50505050506200058b565b600080546001600160a01b038381166001600160a01b0319831681178455604051919092169283917f8be0079c531659141344cd1fd0a4f28419497f9722a3daafe3b4186f6b6457e09190a35050565b6001600160e01b03198082161415620002075760405162461bcd60e51b815260206004820152601c60248201527f4552433136353a20696e76616c696420696e746572666163652069640000000060448201526064015b60405180910390fd5b6001600160e01b0319166000908152600160208190526040909120805460ff19169091179055565b6000546001600160a01b031633146200028b5760405162461bcd60e51b815260206004820181905260248201527f4f776e61626c653a2063616c6c6572206973206e6f7420746865206f776e65726044820152606401620001fe565b6001600160a01b038116620002f25760405162461bcd60e51b815260206004820152602660248201527f4f776e61626c653a206e6577206f776e657220697320746865207a65726f206160448201526564647265737360d01b6064820152608401620001fe565b620002fd8162000157565b50565b8280546200030e906200054e565b90600052602060002090601f0160209004810192826200033257600085556200037d565b82601f106200034d57805160ff19168380011785556200037d565b828001600101855582156200037d579182015b828111156200037d57825182559160200191906001019062000360565b506200038b9291506200038f565b5090565b5b808211156200038b576000815560010162000390565b634e487b7160e01b600052604160045260246000fd5b600082601f830112620003ce57600080fd5b81516001600160401b0380821115620003eb57620003eb620003a6565b604051601f8301601f19908116603f01168101908282118183101715620004165762000416620003a6565b816040528381526020925086838588010111156200043357600080fd5b600091505b8382101562000457578582018301518183018401529082019062000438565b83821115620004695760008385830101525b9695505050505050565b600080600080600060a086880312156200048c57600080fd5b85516001600160401b0380821115620004a457600080fd5b620004b289838a01620003bc565b96506020880151915080821115620004c957600080fd5b620004d789838a01620003bc565b604089015190965091506001600160a01b0382168214620004f757600080fd5b6060880151919450808211156200050d57600080fd5b6200051b89838a01620003bc565b935060808801519150808211156200053257600080fd5b506200054188828901620003bc565b9150509295509295909350565b600181811c908216806200056357607f821691505b602082108114156200058557634e487b7160e01b600052602260045260246000fd5b50919050565b612ddf806200059b6000396000f3fe608060405234801561001057600080fd5b50600436106101c45760003560e01c806370a08231116100f9578063b88d4fde11610097578063c87b56dd11610071578063c87b56dd14610409578063e8a3d4851461041c578063e985e9c514610424578063f2fde38b1461046057600080fd5b8063b88d4fde146103ce578063b9c4d9fb146103e1578063c0ac99831461040157600080fd5b8063938e3d7b116100d3578063938e3d7b1461038d57806395d89b41146103a057806399e0dd7c146103a8578063a22cb465146103bb57600080fd5b806370a0823114610361578063715018a6146103745780638da5cb5b1461037c57600080fd5b80632f745c59116101665780634f6ccce7116101405780634f6ccce7146102f65780636308f1cd146103095780636352211e1461033b578063672a94001461034e57600080fd5b80632f745c59146102bd57806342842e0e146102d057806342966c68146102e357600080fd5b8063095ea7b3116101a2578063095ea7b3146102635780630ebd4c7f1461027857806318160ddd1461029857806323b872dd146102aa57600080fd5b806301ffc9a7146101c957806306fdde0314610223578063081812fc14610238575b600080fd5b61020e6101d73660046126a6565b7fffffffff000000000000000000000000000000000000000000000000000000001660009081526001602052604090205460ff1690565b60405190151581526020015b60405180910390f35b61022b610473565b60405161021a919061271b565b61024b61024636600461272e565b610501565b6040516001600160a01b03909116815260200161021a565b61027661027136600461275c565b6105ac565b005b61028b61028636600461272e565b610738565b60405161021a91906127c3565b600b545b60405190815260200161021a565b6102766102b83660046127d6565b61085a565b61029c6102cb36600461275c565b6108e7565b6102766102de3660046127d6565b6109a3565b6102766102f136600461272e565b6109be565b61029c61030436600461272e565b610a45565b61031c610317366004612817565b610ae9565b604080516001600160a01b03909316835260208301919091520161021a565b61024b61034936600461272e565b610b2f565b61027661035c366004612921565b610bc0565b61029c61036f366004612a50565b610cf1565b610276610d8d565b6000546001600160a01b031661024b565b61027661039b366004612a6d565b610df3565b61022b610e56565b6102766103b6366004612a6d565b610e63565b6102766103c9366004612aa2565b610ec6565b6102766103dc366004612ae0565b610fa9565b6103f46103ef36600461272e565b611037565b60405161021a9190612b60565b61022b61115e565b61022b61041736600461272e565b61116b565b61022b611201565b61020e610432366004612ba1565b6001600160a01b03918216600090815260056020908152604080832093909416825291909152205460ff1690565b61027661046e366004612a50565b61120e565b600d805461048090612bcf565b80601f01602080910402602001604051908101604052809291908181526020018280546104ac90612bcf565b80156104f95780601f106104ce576101008083540402835291602001916104f9565b820191906000526020600020905b8154815290600101906020018083116104dc57829003601f168201915b505050505081565b6000818152600260205260408120546001600160a01b03166105905760405162461bcd60e51b815260206004820152602c60248201527f4552433732313a20617070726f76656420717565727920666f72206e6f6e657860448201527f697374656e7420746f6b656e000000000000000000000000000000000000000060648201526084015b60405180910390fd5b506000908152600360205260409020546001600160a01b031690565b60006105b782610b2f565b9050806001600160a01b0316836001600160a01b031614156106415760405162461bcd60e51b815260206004820152602160248201527f4552433732313a20617070726f76616c20746f2063757272656e74206f776e6560448201527f72000000000000000000000000000000000000000000000000000000000000006064820152608401610587565b336001600160a01b038216148061065d575061065d8133610432565b6106cf5760405162461bcd60e51b815260206004820152603860248201527f4552433732313a20617070726f76652063616c6c6572206973206e6f74206f7760448201527f6e6572206e6f7220617070726f76656420666f7220616c6c00000000000000006064820152608401610587565b600082815260036020526040808220805473ffffffffffffffffffffffffffffffffffffffff19166001600160a01b0387811691821790925591518593918516917f8c5be1e5ebec7d5bd14f71427d1e84f3dd0314c0f7b2291e5b200ac8c7c3b92591a4505050565b6000818152600f60209081526040808320805482518185028101850190935280835260609493849084015b828210156107ab576000848152602090819020604080518082019091526002850290910180546001600160a01b03168252600190810154828401529083529092019101610763565b5050505090506000815167ffffffffffffffff8111156107cd576107cd612839565b6040519080825280602002602001820160405280156107f6578160200160208202803683370190505b50905060005b82518110156108525782818151811061081757610817612c0a565b60200260200101516020015182828151811061083557610835612c0a565b60209081029190910101528061084a81612c36565b9150506107fc565b509392505050565b610865335b826112ed565b6108d75760405162461bcd60e51b815260206004820152603160248201527f4552433732313a207472616e736665722063616c6c6572206973206e6f74206f60448201527f776e6572206e6f7220617070726f7665640000000000000000000000000000006064820152608401610587565b6108e28383836113f5565b505050565b60006108f283610cf1565b82106109665760405162461bcd60e51b815260206004820152602b60248201527f455243373231456e756d657261626c653a206f776e657220696e646578206f7560448201527f74206f6620626f756e64730000000000000000000000000000000000000000006064820152608401610587565b6001600160a01b038316600090815260096020526040902080548390811061099057610990612c0a565b9060005260206000200154905092915050565b6108e283838360405180602001604052806000815250610fa9565b6109c73361085f565b610a395760405162461bcd60e51b815260206004820152603060248201527f4552433732314275726e61626c653a2063616c6c6572206973206e6f74206f7760448201527f6e6572206e6f7220617070726f766564000000000000000000000000000000006064820152608401610587565b610a4281611400565b50565b6000610a50600b5490565b8210610ac45760405162461bcd60e51b815260206004820152602c60248201527f455243373231456e756d657261626c653a20676c6f62616c20696e646578206f60448201527f7574206f6620626f756e647300000000000000000000000000000000000000006064820152608401610587565b600b8281548110610ad757610ad7612c0a565b90600052602060002001549050919050565b600f6020528160005260406000208181548110610b0557600080fd5b6000918252602090912060029091020180546001909101546001600160a01b039091169250905082565b6000818152600260205260408120546001600160a01b031680610bba5760405162461bcd60e51b815260206004820152602960248201527f4552433732313a206f776e657220717565727920666f72206e6f6e657869737460448201527f656e7420746f6b656e00000000000000000000000000000000000000000000006064820152608401610587565b92915050565b6040517fffffffffffffffffffffffffffffffffffffffff0000000000000000000000003060601b1660208201526034810187905260019060540160408051601f198184030181528282528051602091820120600084529083018083525260ff881690820152606081018690526080810185905260a0016020604051602081039080840390855afa158015610c59573d6000803e3d6000fd5b505050602060405103516001600160a01b0316610c7e6000546001600160a01b031690565b6001600160a01b031614610cd45760405162461bcd60e51b815260206004820152601960248201527f6f776e65722073686f756c64207369676e20746f6b656e4964000000000000006044820152606401610587565b610cdf338784611412565b610ce98682611708565b505050505050565b60006001600160a01b038216610d6f5760405162461bcd60e51b815260206004820152602a60248201527f4552433732313a2062616c616e636520717565727920666f7220746865207a6560448201527f726f2061646472657373000000000000000000000000000000000000000000006064820152608401610587565b6001600160a01b038216600090815260046020526040902054610bba565b6000546001600160a01b03163314610de75760405162461bcd60e51b815260206004820181905260248201527f4f776e61626c653a2063616c6c6572206973206e6f7420746865206f776e65726044820152606401610587565b610df160006117a0565b565b6000546001600160a01b03163314610e4d5760405162461bcd60e51b815260206004820181905260248201527f4f776e61626c653a2063616c6c6572206973206e6f7420746865206f776e65726044820152606401610587565b610a42816117fd565b600e805461048090612bcf565b6000546001600160a01b03163314610ebd5760405162461bcd60e51b815260206004820181905260248201527f4f776e61626c653a2063616c6c6572206973206e6f7420746865206f776e65726044820152606401610587565b610a4281611810565b6001600160a01b038216331415610f1f5760405162461bcd60e51b815260206004820152601960248201527f4552433732313a20617070726f766520746f2063616c6c6572000000000000006044820152606401610587565b3360008181526005602090815260408083206001600160a01b0387168085529083529281902080547fffffffffffffffffffffffffffffffffffffffffffffffffffffffffffffff001686151590811790915590519081529192917f17307eab39ab6107e8899845ad3d59bd9653f200f220920489ca2b5937696c31910160405180910390a35050565b610fb333836112ed565b6110255760405162461bcd60e51b815260206004820152603160248201527f4552433732313a207472616e736665722063616c6c6572206973206e6f74206f60448201527f776e6572206e6f7220617070726f7665640000000000000000000000000000006064820152608401610587565b61103184848484611823565b50505050565b6000818152600f60209081526040808320805482518185028101850190935280835260609493849084015b828210156110aa576000848152602090819020604080518082019091526002850290910180546001600160a01b03168252600190810154828401529083529092019101611062565b5050505090506000815167ffffffffffffffff8111156110cc576110cc612839565b6040519080825280602002602001820160405280156110f5578160200160208202803683370190505b50905060005b82518110156108525782818151811061111657611116612c0a565b60200260200101516000015182828151811061113457611134612c0a565b6001600160a01b03909216602092830291909101909101528061115681612c36565b9150506110fb565b6007805461048090612bcf565b6000818152600260205260409020546060906001600160a01b03166111f85760405162461bcd60e51b815260206004820152602f60248201527f4552433732314d657461646174613a2055524920717565727920666f72206e6f60448201527f6e6578697374656e7420746f6b656e00000000000000000000000000000000006064820152608401610587565b610bba826118ac565b6006805461048090612bcf565b6000546001600160a01b031633146112685760405162461bcd60e51b815260206004820181905260248201527f4f776e61626c653a2063616c6c6572206973206e6f7420746865206f776e65726044820152606401610587565b6001600160a01b0381166112e45760405162461bcd60e51b815260206004820152602660248201527f4f776e61626c653a206e6577206f776e657220697320746865207a65726f206160448201527f64647265737300000000000000000000000000000000000000000000000000006064820152608401610587565b610a42816117a0565b6000818152600260205260408120546001600160a01b03166113775760405162461bcd60e51b815260206004820152602c60248201527f4552433732313a206f70657261746f7220717565727920666f72206e6f6e657860448201527f697374656e7420746f6b656e00000000000000000000000000000000000000006064820152608401610587565b600061138283610b2f565b9050806001600160a01b0316846001600160a01b031614806113bd5750836001600160a01b03166113b284610501565b6001600160a01b0316145b806113ed57506001600160a01b0380821660009081526005602090815260408083209388168352929052205460ff165b949350505050565b6108e28383836119e3565b610a4261140c82610b2f565b826119ee565b61141c83836119f8565b6000815167ffffffffffffffff81111561143857611438612839565b604051908082528060200260200182016040528015611461578160200160208202803683370190505b5090506000825167ffffffffffffffff81111561148057611480612839565b6040519080825280602002602001820160405280156114a9578160200160208202803683370190505b50905060005b83518110156116bd5760006001600160a01b03168482815181106114d5576114d5612c0a565b6020026020010151600001516001600160a01b031614156115385760405162461bcd60e51b815260206004820152601b60248201527f526563697069656e742073686f756c642062652070726573656e7400000000006044820152606401610587565b83818151811061154a5761154a612c0a565b602002602001015160200151600014156115a65760405162461bcd60e51b815260206004820152601c60248201527f4665652076616c75652073686f756c6420626520706f736974697665000000006044820152606401610587565b6000858152600f6020526040902084518590839081106115c8576115c8612c0a565b6020908102919091018101518254600180820185556000948552938390208251600290920201805473ffffffffffffffffffffffffffffffffffffffff19166001600160a01b03909216919091178155910151910155835184908290811061163257611632612c0a565b60200260200101516000015183828151811061165057611650612c0a565b60200260200101906001600160a01b031690816001600160a01b03168152505083818151811061168257611682612c0a565b6020026020010151602001518282815181106116a0576116a0612c0a565b6020908102919091010152806116b581612c36565b9150506114af565b50825115611701577f99aba1d63749cfd5ad1afda7c4663840924d54eb5f005bbbeadedc6ec13674b28483836040516116f893929190612c6f565b60405180910390a15b5050505050565b6000828152600260205260409020546001600160a01b03166117925760405162461bcd60e51b815260206004820152602c60248201527f4552433732314d657461646174613a2055524920736574206f66206e6f6e657860448201527f697374656e7420746f6b656e00000000000000000000000000000000000000006064820152608401610587565b61179c8282611a02565b5050565b600080546001600160a01b0383811673ffffffffffffffffffffffffffffffffffffffff19831681178455604051919092169283917f8be0079c531659141344cd1fd0a4f28419497f9722a3daafe3b4186f6b6457e09190a35050565b805161179c9060069060208401906125a9565b805161179c9060079060208401906125a9565b61182e8484846113f5565b61183a84848484611a21565b6110315760405162461bcd60e51b815260206004820152603260248201527f4552433732313a207472616e7366657220746f206e6f6e20455243373231526560448201527f63656976657220696d706c656d656e74657200000000000000000000000000006064820152608401610587565b60008181526008602052604090208054606091610bba916118cc90612bcf565b80601f01602080910402602001604051908101604052809291908181526020018280546118f890612bcf565b80156119455780601f1061191a57610100808354040283529160200191611945565b820191906000526020600020905b81548152906001019060200180831161192857829003601f168201915b50505050506007805461195790612bcf565b80601f016020809104026020016040519081016040528092919081815260200182805461198390612bcf565b80156119d05780601f106119a5576101008083540402835291602001916119d0565b820191906000526020600020905b8154815290600101906020018083116119b357829003601f168201915b5050505050611c1990919063ffffffff16565b6108e2838383611dca565b61179c8282611e1f565b61179c8282611e32565b600082815260086020908152604090912082516108e2928401906125a9565b60006001600160a01b0384163b611a3a575060016113ed565b6000806001600160a01b0386167f150b7a020000000000000000000000000000000000000000000000000000000033898888604051602401611a7f9493929190612cd9565b60408051601f198184030181529181526020820180517bffffffffffffffffffffffffffffffffffffffffffffffffffffffff167fffffffff00000000000000000000000000000000000000000000000000000000909416939093179092529051611aea9190612d15565b6000604051808303816000865af19150503d8060008114611b27576040519150601f19603f3d011682016040523d82523d6000602084013e611b2c565b606091505b509150915081611bb457805115611b465780518082602001fd5b60405162461bcd60e51b815260206004820152603260248201527f4552433732313a207472616e7366657220746f206e6f6e20455243373231526560448201527f63656976657220696d706c656d656e74657200000000000000000000000000006064820152608401610587565b600081806020019051810190611bca9190612d31565b7fffffffff00000000000000000000000000000000000000000000000000000000167f150b7a02000000000000000000000000000000000000000000000000000000001493506113ed92505050565b8051825160609184918491600091611c319190612d4e565b67ffffffffffffffff811115611c4957611c49612839565b6040519080825280601f01601f191660200182016040528015611c73576020820181803683370190505b5090506000805b8451811015611d1a57848181518110611c9557611c95612c0a565b01602001517fff00000000000000000000000000000000000000000000000000000000000000168383611cc781612c36565b945081518110611cd957611cd9612c0a565b60200101907effffffffffffffffffffffffffffffffffffffffffffffffffffffffffffff1916908160001a90535080611d1281612c36565b915050611c7a565b5060005b8351811015611dbe57838181518110611d3957611d39612c0a565b01602001517fff00000000000000000000000000000000000000000000000000000000000000168383611d6b81612c36565b945081518110611d7d57611d7d612c0a565b60200101907effffffffffffffffffffffffffffffffffffffffffffffffffffffffffffff1916908160001a90535080611db681612c36565b915050611d1e565b50909695505050505050565b611dd5838383611e3c565b611ddf8382611ffa565b6001600160a01b039190911660009081526009602081815260408084208054868652600a8452918520829055928252600181018355918352909120015550565b611e298282612109565b61179c81612135565b61179c828261216c565b826001600160a01b0316611e4f82610b2f565b6001600160a01b031614611ecb5760405162461bcd60e51b815260206004820152602960248201527f4552433732313a207472616e73666572206f6620746f6b656e2074686174206960448201527f73206e6f74206f776e00000000000000000000000000000000000000000000006064820152608401610587565b6001600160a01b038216611f465760405162461bcd60e51b8152602060048201526024808201527f4552433732313a207472616e7366657220746f20746865207a65726f2061646460448201527f72657373000000000000000000000000000000000000000000000000000000006064820152608401610587565b611f4f816121f1565b6001600160a01b0383166000908152600460205260409020611f7090612239565b6001600160a01b0382166000908152600460205260409020611f919061224a565b600081815260026020526040808220805473ffffffffffffffffffffffffffffffffffffffff19166001600160a01b0386811691821790925591518493918716917fddf252ad1be2c89b69c2b068fc378daa952ba7f163c4a11628f55a4df523b3ef91a4505050565b6001600160a01b03821660009081526009602052604081205461201f90600190612d66565b6000838152600a60205260409020549091508082146120c6576001600160a01b038416600090815260096020526040812080548490811061206257612062612c0a565b906000526020600020015490508060096000876001600160a01b03166001600160a01b0316815260200190815260200160002083815481106120a6576120a6612c0a565b6000918252602080832090910192909255918252600a9052604090208190555b6001600160a01b03841660009081526009602052604090208054806120ed576120ed612d7d565b6001900381819060005260206000200160009055905550505050565b6121138282612267565b61211d8282611ffa565b6000818152600a602052604081205561179c81612382565b6000818152600860205260409020805461214e90612bcf565b159050610a42576000818152600860205260408120610a429161262d565b6121768282612443565b6001600160a01b039190911660009081526009602090815260408083208054858552600a84528285208190556001808201835591855283852001859055600b8054868652600c909452918420839055820181559091527f0175b7a638427703f0dbe7bb9bbf987a2551717b34e79f33b5b1008d1fa01db90155565b6000818152600360205260409020546001600160a01b031615610a42576000908152600360205260409020805473ffffffffffffffffffffffffffffffffffffffff19169055565b8054612246906001612586565b9055565b600181600001600082825461225f9190612d4e565b909155505050565b816001600160a01b031661227a82610b2f565b6001600160a01b0316146122f65760405162461bcd60e51b815260206004820152602560248201527f4552433732313a206275726e206f6620746f6b656e2074686174206973206e6f60448201527f74206f776e0000000000000000000000000000000000000000000000000000006064820152608401610587565b6122ff816121f1565b6001600160a01b038216600090815260046020526040902061232090612239565b600081815260026020526040808220805473ffffffffffffffffffffffffffffffffffffffff19169055518291906001600160a01b038516907fddf252ad1be2c89b69c2b068fc378daa952ba7f163c4a11628f55a4df523b3ef908390a45050565b600b5460009061239490600190612d66565b6000838152600c6020526040812054600b80549394509092849081106123bc576123bc612c0a565b9060005260206000200154905080600b83815481106123dd576123dd612c0a565b6000918252602080832090910192909255828152600c90915260409020829055600b80548061240e5761240e612d7d565b600190038181906000526020600020016000905590556000600c60008681526020019081526020016000208190555050505050565b6001600160a01b0382166124995760405162461bcd60e51b815260206004820181905260248201527f4552433732313a206d696e7420746f20746865207a65726f20616464726573736044820152606401610587565b6000818152600260205260409020546001600160a01b0316156124fe5760405162461bcd60e51b815260206004820152601c60248201527f4552433732313a20746f6b656e20616c7265616479206d696e746564000000006044820152606401610587565b6000818152600260209081526040808320805473ffffffffffffffffffffffffffffffffffffffff19166001600160a01b03871690811790915583526004909152902061254a9061224a565b60405181906001600160a01b038416906000907fddf252ad1be2c89b69c2b068fc378daa952ba7f163c4a11628f55a4df523b3ef908290a45050565b60008282111561259857612598612d93565b6125a28284612d66565b9392505050565b8280546125b590612bcf565b90600052602060002090601f0160209004810192826125d7576000855561261d565b82601f106125f057805160ff191683800117855561261d565b8280016001018555821561261d579182015b8281111561261d578251825591602001919060010190612602565b50612629929150612663565b5090565b50805461263990612bcf565b6000825580601f10612649575050565b601f016020900490600052602060002090810190610a4291905b5b808211156126295760008155600101612664565b7fffffffff0000000000000000000000000000000000000000000000000000000081168114610a4257600080fd5b6000602082840312156126b857600080fd5b81356125a281612678565b60005b838110156126de5781810151838201526020016126c6565b838111156110315750506000910152565b600081518084526127078160208601602086016126c3565b601f01601f19169290920160200192915050565b6020815260006125a260208301846126ef565b60006020828403121561274057600080fd5b5035919050565b6001600160a01b0381168114610a4257600080fd5b6000806040838503121561276f57600080fd5b823561277a81612747565b946020939093013593505050565b600081518084526020808501945080840160005b838110156127b85781518752958201959082019060010161279c565b509495945050505050565b6020815260006125a26020830184612788565b6000806000606084860312156127eb57600080fd5b83356127f681612747565b9250602084013561280681612747565b929592945050506040919091013590565b6000806040838503121561282a57600080fd5b50508035926020909101359150565b634e487b7160e01b600052604160045260246000fd5b6040805190810167ffffffffffffffff8111828210171561287257612872612839565b60405290565b604051601f8201601f1916810167ffffffffffffffff811182821017156128a1576128a1612839565b604052919050565b600067ffffffffffffffff8311156128c3576128c3612839565b6128d66020601f19601f86011601612878565b90508281528383830111156128ea57600080fd5b828260208301376000602084830101529392505050565b600082601f83011261291257600080fd5b6125a2838335602085016128a9565b60008060008060008060c0878903121561293a57600080fd5b8635955060208088013560ff8116811461295357600080fd5b95506040880135945060608801359350608088013567ffffffffffffffff8082111561297e57600080fd5b818a0191508a601f83011261299257600080fd5b8135818111156129a4576129a4612839565b6129b2848260051b01612878565b81815260069190911b8301840190848101908d8311156129d157600080fd5b938501935b82851015612a1d576040858f0312156129ef5760008081fd5b6129f761284f565b8535612a0281612747565b815285870135878201528252604090940193908501906129d6565b9650505060a08a0135925080831115612a3557600080fd5b5050612a4389828a01612901565b9150509295509295509295565b600060208284031215612a6257600080fd5b81356125a281612747565b600060208284031215612a7f57600080fd5b813567ffffffffffffffff811115612a9657600080fd5b6113ed84828501612901565b60008060408385031215612ab557600080fd5b8235612ac081612747565b915060208301358015158114612ad557600080fd5b809150509250929050565b60008060008060808587031215612af657600080fd5b8435612b0181612747565b93506020850135612b1181612747565b925060408501359150606085013567ffffffffffffffff811115612b3457600080fd5b8501601f81018713612b4557600080fd5b612b54878235602084016128a9565b91505092959194509250565b6020808252825182820181905260009190848201906040850190845b81811015611dbe5783516001600160a01b031683529284019291840191600101612b7c565b60008060408385031215612bb457600080fd5b8235612bbf81612747565b91506020830135612ad581612747565b600181811c90821680612be357607f821691505b60208210811415612c0457634e487b7160e01b600052602260045260246000fd5b50919050565b634e487b7160e01b600052603260045260246000fd5b634e487b7160e01b600052601160045260246000fd5b60007fffffffffffffffffffffffffffffffffffffffffffffffffffffffffffffffff821415612c6857612c68612c20565b5060010190565b6000606082018583526020606081850152818651808452608086019150828801935060005b81811015612cb95784516001600160a01b031683529383019391830191600101612c94565b50508481036040860152612ccd8187612788565b98975050505050505050565b60006001600160a01b03808716835280861660208401525083604083015260806060830152612d0b60808301846126ef565b9695505050505050565b60008251612d278184602087016126c3565b9190910192915050565b600060208284031215612d4357600080fd5b81516125a281612678565b60008219821115612d6157612d61612c20565b500190565b600082821015612d7857612d78612c20565b500390565b634e487b7160e01b600052603160045260246000fd5b634e487b7160e01b600052600160045260246000fdfea26469706673582212206621bd9cf43225a52202c3686c2788ad630ba87e1553dbb4f030408fc78d234964736f6c63430008090033",
  "devdoc": {
    "details": "anyone can mint token.",
    "kind": "dev",
    "methods": {
      "approve(address,uint256)": {
        "details": "Approves another address to transfer the given token ID The zero address indicates there is no approved address. There can only be one approved address per token at a given time. Can only be called by the token owner or an approved operator.",
        "params": {
          "to": "address to be approved for the given token ID",
          "tokenId": "uint256 ID of the token to be approved"
        }
      },
      "balanceOf(address)": {
        "details": "Gets the balance of the specified address.",
        "params": {
          "owner": "address to query the balance of"
        },
        "returns": {
          "_0": "uint256 representing the amount owned by the passed address"
        }
      },
      "burn(uint256)": {
        "details": "Burns a specific ERC721 token.",
        "params": {
          "tokenId": "uint256 id of the ERC721 token to be burned."
        }
      },
      "getApproved(uint256)": {
        "details": "Gets the approved address for a token ID, or zero if no address set Reverts if the token ID does not exist.",
        "params": {
          "tokenId": "uint256 ID of the token to query the approval of"
        },
        "returns": {
          "_0": "address currently approved for the given token ID"
        }
      },
      "isApprovedForAll(address,address)": {
        "details": "Tells whether an operator is approved by a given owner.",
        "params": {
          "operator": "operator address which you want to query the approval of",
          "owner": "owner address which you want to query the approval of"
        },
        "returns": {
          "_0": "bool whether the given operator is approved by the given owner"
        }
      },
      "owner()": {
        "details": "Returns the address of the current owner."
      },
      "ownerOf(uint256)": {
        "details": "Gets the owner of the specified token ID.",
        "params": {
          "tokenId": "uint256 ID of the token to query the owner of"
        },
        "returns": {
          "_0": "address currently marked as the owner of the given token ID"
        }
      },
      "renounceOwnership()": {
        "details": "Leaves the contract without owner. It will not be possible to call `onlyOwner` functions anymore. Can only be called by the current owner. NOTE: Renouncing ownership will leave the contract without an owner, thereby removing any functionality that is only available to the owner."
      },
      "safeTransferFrom(address,address,uint256)": {
        "details": "Safely transfers the ownership of a given token ID to another address If the target address is a contract, it must implement {IERC721Receiver-onERC721Received}, which is called upon a safe transfer, and return the magic value `bytes4(keccak256(\"onERC721Received(address,address,uint256,bytes)\"))`; otherwise, the transfer is reverted. Requires the msg.sender to be the owner, approved, or operator",
        "params": {
          "from": "current owner of the token",
          "to": "address to receive the ownership of the given token ID",
          "tokenId": "uint256 ID of the token to be transferred"
        }
      },
      "safeTransferFrom(address,address,uint256,bytes)": {
        "details": "Safely transfers the ownership of a given token ID to another address If the target address is a contract, it must implement {IERC721Receiver-onERC721Received}, which is called upon a safe transfer, and return the magic value `bytes4(keccak256(\"onERC721Received(address,address,uint256,bytes)\"))`; otherwise, the transfer is reverted. Requires the _msgSender() to be the owner, approved, or operator",
        "params": {
          "_data": "bytes data to send along with a safe transfer check",
          "from": "current owner of the token",
          "to": "address to receive the ownership of the given token ID",
          "tokenId": "uint256 ID of the token to be transferred"
        }
      },
      "setApprovalForAll(address,bool)": {
        "details": "Sets or unsets the approval of a given operator An operator is allowed to transfer all tokens of the sender on their behalf.",
        "params": {
          "approved": "representing the status of the approval to be set",
          "to": "operator address to set the approval"
        }
      },
      "supportsInterface(bytes4)": {
        "details": "See {IERC165-supportsInterface}. Time complexity O(1), guaranteed to always use less than 30 000 gas."
      },
      "tokenByIndex(uint256)": {
        "details": "Gets the token ID at a given index of all the tokens in this contract Reverts if the index is greater or equal to the total number of tokens.",
        "params": {
          "index": "uint256 representing the index to be accessed of the tokens list"
        },
        "returns": {
          "_0": "uint256 token ID at the given index of the tokens list"
        }
      },
      "tokenOfOwnerByIndex(address,uint256)": {
        "details": "Gets the token ID at a given index of the tokens list of the requested owner.",
        "params": {
          "index": "uint256 representing the index to be accessed of the requested tokens list",
          "owner": "address owning the tokens list to be accessed"
        },
        "returns": {
          "_0": "uint256 token ID at the given index of the tokens list owned by the requested address"
        }
      },
      "tokenURI(uint256)": {
        "details": "Returns an URI for a given token ID. Throws if the token ID does not exist. May return an empty string.",
        "params": {
          "tokenId": "uint256 ID of the token to query"
        }
      },
      "totalSupply()": {
        "details": "Gets the total amount of tokens stored by the contract.",
        "returns": {
          "_0": "uint256 representing the total amount of tokens"
        }
      },
      "transferFrom(address,address,uint256)": {
        "details": "Transfers the ownership of a given token ID to another address. Usage of this method is discouraged, use {safeTransferFrom} whenever possible. Requires the msg.sender to be the owner, approved, or operator.",
        "params": {
          "from": "current owner of the token",
          "to": "address to receive the ownership of the given token ID",
          "tokenId": "uint256 ID of the token to be transferred"
        }
      },
      "transferOwnership(address)": {
        "details": "Transfers ownership of the contract to a new account (`newOwner`). Can only be called by the current owner."
      }
    },
    "title": "ERC721EMUSK",
    "version": 1
  },
  "userdoc": {
    "kind": "user",
    "methods": {},
    "version": 1
  },
  "storageLayout": {
    "storage": [
      {
        "astId": 1477,
        "contract": "src/ERC721EMUSK.sol:ERC721EMUSK",
        "label": "_owner",
        "offset": 0,
        "slot": "0",
        "type": "t_address"
      },
      {
        "astId": 6265,
        "contract": "src/ERC721EMUSK.sol:ERC721EMUSK",
        "label": "_supportedInterfaces",
        "offset": 0,
        "slot": "1",
        "type": "t_mapping(t_bytes4,t_bool)"
      },
      {
        "astId": 4781,
        "contract": "src/ERC721EMUSK.sol:ERC721EMUSK",
        "label": "_tokenOwner",
        "offset": 0,
        "slot": "2",
        "type": "t_mapping(t_uint256,t_address)"
      },
      {
        "astId": 4785,
        "contract": "src/ERC721EMUSK.sol:ERC721EMUSK",
        "label": "_tokenApprovals",
        "offset": 0,
        "slot": "3",
        "type": "t_mapping(t_uint256,t_address)"
      },
      {
        "astId": 4790,
        "contract": "src/ERC721EMUSK.sol:ERC721EMUSK",
        "label": "_ownedTokensCount",
        "offset": 0,
        "slot": "4",
        "type": "t_mapping(t_address,t_struct(Counter)2609_storage)"
      },
      {
        "astId": 4796,
        "contract": "src/ERC721EMUSK.sol:ERC721EMUSK",
        "label": "_operatorApprovals",
        "offset": 0,
        "slot": "5",
        "type": "t_mapping(t_address,t_mapping(t_address,t_bool))"
      },
      {
        "astId": 6314,
        "contract": "src/ERC721EMUSK.sol:ERC721EMUSK",
        "label": "contractURI",
        "offset": 0,
        "slot": "6",
        "type": "t_string_storage"
      },
      {
        "astId": 6394,
        "contract": "src/ERC721EMUSK.sol:ERC721EMUSK",
        "label": "tokenURIPrefix",
        "offset": 0,
        "slot": "7",
        "type": "t_string_storage"
      },
      {
        "astId": 6398,
        "contract": "src/ERC721EMUSK.sol:ERC721EMUSK",
        "label": "_tokenURIs",
        "offset": 0,
        "slot": "8",
        "type": "t_mapping(t_uint256,t_string_storage)"
      },
      {
        "astId": 5914,
        "contract": "src/ERC721EMUSK.sol:ERC721EMUSK",
        "label": "_ownedTokens",
        "offset": 0,
        "slot": "9",
        "type": "t_mapping(t_address,t_array(t_uint256)dyn_storage)"
      },
      {
        "astId": 5918,
        "contract": "src/ERC721EMUSK.sol:ERC721EMUSK",
        "label": "_ownedTokensIndex",
        "offset": 0,
        "slot": "10",
        "type": "t_mapping(t_uint256,t_uint256)"
      },
      {
        "astId": 5921,
        "contract": "src/ERC721EMUSK.sol:ERC721EMUSK",
        "label": "_allTokens",
        "offset": 0,
        "slot": "11",
        "type": "t_array(t_uint256)dyn_storage"
      },
      {
        "astId": 5925,
        "contract": "src/ERC721EMUSK.sol:ERC721EMUSK",
        "label": "_allTokensIndex",
        "offset": 0,
        "slot": "12",
        "type": "t_mapping(t_uint256,t_uint256)"
      },
      {
        "astId": 5483,
        "contract": "src/ERC721EMUSK.sol:ERC721EMUSK",
        "label": "name",
        "offset": 0,
        "slot": "13",
        "type": "t_string_storage"
      },
      {
        "astId": 5485,
        "contract": "src/ERC721EMUSK.sol:ERC721EMUSK",
        "label": "symbol",
        "offset": 0,
        "slot": "14",
        "type": "t_string_storage"
      },
      {
        "astId": 5496,
        "contract": "src/ERC721EMUSK.sol:ERC721EMUSK",
        "label": "fees",
        "offset": 0,
        "slot": "15",
        "type": "t_mapping(t_uint256,t_array(t_struct(Fee)5490_storage)dyn_storage)"
      }
    ],
    "types": {
      "t_address": {
        "encoding": "inplace",
        "label": "address",
        "numberOfBytes": "20"
      },
      "t_address_payable": {
        "encoding": "inplace",
        "label": "address payable",
        "numberOfBytes": "20"
      },
      "t_array(t_struct(Fee)5490_storage)dyn_storage": {
        "base": "t_struct(Fee)5490_storage",
        "encoding": "dynamic_array",
        "label": "struct ERC721Base.Fee[]",
        "numberOfBytes": "32"
      },
      "t_array(t_uint256)dyn_storage": {
        "base": "t_uint256",
        "encoding": "dynamic_array",
        "label": "uint256[]",
        "numberOfBytes": "32"
      },
      "t_bool": {
        "encoding": "inplace",
        "label": "bool",
        "numberOfBytes": "1"
      },
      "t_bytes4": {
        "encoding": "inplace",
        "label": "bytes4",
        "numberOfBytes": "4"
      },
      "t_mapping(t_address,t_array(t_uint256)dyn_storage)": {
        "encoding": "mapping",
        "key": "t_address",
        "label": "mapping(address => uint256[])",
        "numberOfBytes": "32",
        "value": "t_array(t_uint256)dyn_storage"
      },
      "t_mapping(t_address,t_bool)": {
        "encoding": "mapping",
        "key": "t_address",
        "label": "mapping(address => bool)",
        "numberOfBytes": "32",
        "value": "t_bool"
      },
      "t_mapping(t_address,t_mapping(t_address,t_bool))": {
        "encoding": "mapping",
        "key": "t_address",
        "label": "mapping(address => mapping(address => bool))",
        "numberOfBytes": "32",
        "value": "t_mapping(t_address,t_bool)"
      },
      "t_mapping(t_address,t_struct(Counter)2609_storage)": {
        "encoding": "mapping",
        "key": "t_address",
        "label": "mapping(address => struct Counters.Counter)",
        "numberOfBytes": "32",
        "value": "t_struct(Counter)2609_storage"
      },
      "t_mapping(t_bytes4,t_bool)": {
        "encoding": "mapping",
        "key": "t_bytes4",
        "label": "mapping(bytes4 => bool)",
        "numberOfBytes": "32",
        "value": "t_bool"
      },
      "t_mapping(t_uint256,t_address)": {
        "encoding": "mapping",
        "key": "t_uint256",
        "label": "mapping(uint256 => address)",
        "numberOfBytes": "32",
        "value": "t_address"
      },
      "t_mapping(t_uint256,t_array(t_struct(Fee)5490_storage)dyn_storage)": {
        "encoding": "mapping",
        "key": "t_uint256",
        "label": "mapping(uint256 => struct ERC721Base.Fee[])",
        "numberOfBytes": "32",
        "value": "t_array(t_struct(Fee)5490_storage)dyn_storage"
      },
      "t_mapping(t_uint256,t_string_storage)": {
        "encoding": "mapping",
        "key": "t_uint256",
        "label": "mapping(uint256 => string)",
        "numberOfBytes": "32",
        "value": "t_string_storage"
      },
      "t_mapping(t_uint256,t_uint256)": {
        "encoding": "mapping",
        "key": "t_uint256",
        "label": "mapping(uint256 => uint256)",
        "numberOfBytes": "32",
        "value": "t_uint256"
      },
      "t_string_storage": {
        "encoding": "bytes",
        "label": "string",
        "numberOfBytes": "32"
      },
      "t_struct(Counter)2609_storage": {
        "encoding": "inplace",
        "label": "struct Counters.Counter",
        "members": [
          {
            "astId": 2608,
            "contract": "src/ERC721EMUSK.sol:ERC721EMUSK",
            "label": "_value",
            "offset": 0,
            "slot": "0",
            "type": "t_uint256"
          }
        ],
        "numberOfBytes": "32"
      },
      "t_struct(Fee)5490_storage": {
        "encoding": "inplace",
        "label": "struct ERC721Base.Fee",
        "members": [
          {
            "astId": 5487,
            "contract": "src/ERC721EMUSK.sol:ERC721EMUSK",
            "label": "recipient",
            "offset": 0,
            "slot": "0",
            "type": "t_address_payable"
          },
          {
            "astId": 5489,
            "contract": "src/ERC721EMUSK.sol:ERC721EMUSK",
            "label": "value",
            "offset": 0,
            "slot": "1",
            "type": "t_uint256"
          }
        ],
        "numberOfBytes": "64"
      },
      "t_uint256": {
        "encoding": "inplace",
        "label": "uint256",
        "numberOfBytes": "32"
      }
    }
  }
}