{
  "address": "0xD8278FD5ABF9717Ab46174967BAB4898c7B54864",
  "abi": [
    {
      "inputs": [
        {
          "internalType": "contract TransferProxy",
          "name": "_transferProxy",
          "type": "address"
        },
        {
          "internalType": "contract TransferProxyForDeprecated",
          "name": "_transferProxyForDeprecated",
          "type": "address"
        },
        {
          "internalType": "contract ERC20TransferProxy",
          "name": "_erc20TransferProxy",
          "type": "address"
        },
        {
          "internalType": "contract ExchangeStateV1",
          "name": "_state",
          "type": "address"
        },
        {
          "internalType": "contract ExchangeOrdersHolderV1",
          "name": "_ordersHolder",
          "type": "address"
        },
        {
          "internalType": "address payable",
          "name": "_beneficiary",
          "type": "address"
        },
        {
          "internalType": "address",
          "name": "_buyerFeeSigner",
          "type": "address"
        }
      ],
      "stateMutability": "nonpayable",
      "type": "constructor"
    },
    {
      "anonymous": false,
      "inputs": [
        {
          "indexed": true,
          "internalType": "address",
          "name": "sellToken",
          "type": "address"
        },
        {
          "indexed": true,
          "internalType": "uint256",
          "name": "sellTokenId",
          "type": "uint256"
        },
        {
          "indexed": false,
          "internalType": "uint256",
          "name": "sellValue",
          "type": "uint256"
        },
        {
          "indexed": false,
          "internalType": "address",
          "name": "owner",
          "type": "address"
        },
        {
          "indexed": false,
          "internalType": "address",
          "name": "buyToken",
          "type": "address"
        },
        {
          "indexed": false,
          "internalType": "uint256",
          "name": "buyTokenId",
          "type": "uint256"
        },
        {
          "indexed": false,
          "internalType": "uint256",
          "name": "buyValue",
          "type": "uint256"
        },
        {
          "indexed": false,
          "internalType": "address",
          "name": "buyer",
          "type": "address"
        },
        {
          "indexed": false,
          "internalType": "uint256",
          "name": "amount",
          "type": "uint256"
        },
        {
          "indexed": false,
          "internalType": "uint256",
          "name": "salt",
          "type": "uint256"
        }
      ],
      "name": "Buy",
      "type": "event"
    },
    {
      "anonymous": false,
      "inputs": [
        {
          "indexed": true,
          "internalType": "address",
          "name": "sellToken",
          "type": "address"
        },
        {
          "indexed": true,
          "internalType": "uint256",
          "name": "sellTokenId",
          "type": "uint256"
        },
        {
          "indexed": false,
          "internalType": "address",
          "name": "owner",
          "type": "address"
        },
        {
          "indexed": false,
          "internalType": "address",
          "name": "buyToken",
          "type": "address"
        },
        {
          "indexed": false,
          "internalType": "uint256",
          "name": "buyTokenId",
          "type": "uint256"
        },
        {
          "indexed": false,
          "internalType": "uint256",
          "name": "salt",
          "type": "uint256"
        }
      ],
      "name": "Cancel",
      "type": "event"
    },
    {
      "anonymous": false,
      "inputs": [
        {
          "indexed": true,
          "internalType": "address",
          "name": "previousOwner",
          "type": "address"
        },
        {
          "indexed": true,
          "internalType": "address",
          "name": "newOwner",
          "type": "address"
        }
      ],
      "name": "OwnershipTransferred",
      "type": "event"
    },
    {
      "inputs": [],
      "name": "beneficiary",
      "outputs": [
        {
          "internalType": "address payable",
          "name": "",
          "type": "address"
        }
      ],
      "stateMutability": "view",
      "type": "function"
    },
    {
      "inputs": [],
      "name": "buyerFeeSigner",
      "outputs": [
        {
          "internalType": "address",
          "name": "",
          "type": "address"
        }
      ],
      "stateMutability": "view",
      "type": "function"
    },
    {
      "inputs": [
        {
          "components": [
            {
              "internalType": "address",
              "name": "owner",
              "type": "address"
            },
            {
              "internalType": "uint256",
              "name": "salt",
              "type": "uint256"
            },
            {
              "components": [
                {
                  "internalType": "address",
                  "name": "token",
                  "type": "address"
                },
                {
                  "internalType": "uint256",
                  "name": "tokenId",
                  "type": "uint256"
                },
                {
                  "internalType": "enum ExchangeDomainV1.AssetType",
                  "name": "assetType",
                  "type": "uint8"
                }
              ],
              "internalType": "struct ExchangeDomainV1.Asset",
              "name": "sellAsset",
              "type": "tuple"
            },
            {
              "components": [
                {
                  "internalType": "address",
                  "name": "token",
                  "type": "address"
                },
                {
                  "internalType": "uint256",
                  "name": "tokenId",
                  "type": "uint256"
                },
                {
                  "internalType": "enum ExchangeDomainV1.AssetType",
                  "name": "assetType",
                  "type": "uint8"
                }
              ],
              "internalType": "struct ExchangeDomainV1.Asset",
              "name": "buyAsset",
              "type": "tuple"
            }
          ],
          "internalType": "struct ExchangeDomainV1.OrderKey",
          "name": "key",
          "type": "tuple"
        }
      ],
      "name": "cancel",
      "outputs": [],
      "stateMutability": "nonpayable",
      "type": "function"
    },
    {
      "inputs": [],
      "name": "erc20TransferProxy",
      "outputs": [
        {
          "internalType": "contract ERC20TransferProxy",
          "name": "",
          "type": "address"
        }
      ],
      "stateMutability": "view",
      "type": "function"
    },
    {
      "inputs": [
        {
          "components": [
            {
              "components": [
                {
                  "internalType": "address",
                  "name": "owner",
                  "type": "address"
                },
                {
                  "internalType": "uint256",
                  "name": "salt",
                  "type": "uint256"
                },
                {
                  "components": [
                    {
                      "internalType": "address",
                      "name": "token",
                      "type": "address"
                    },
                    {
                      "internalType": "uint256",
                      "name": "tokenId",
                      "type": "uint256"
                    },
                    {
                      "internalType": "enum ExchangeDomainV1.AssetType",
                      "name": "assetType",
                      "type": "uint8"
                    }
                  ],
                  "internalType": "struct ExchangeDomainV1.Asset",
                  "name": "sellAsset",
                  "type": "tuple"
                },
                {
                  "components": [
                    {
                      "internalType": "address",
                      "name": "token",
                      "type": "address"
                    },
                    {
                      "internalType": "uint256",
                      "name": "tokenId",
                      "type": "uint256"
                    },
                    {
                      "internalType": "enum ExchangeDomainV1.AssetType",
                      "name": "assetType",
                      "type": "uint8"
                    }
                  ],
                  "internalType": "struct ExchangeDomainV1.Asset",
                  "name": "buyAsset",
                  "type": "tuple"
                }
              ],
              "internalType": "struct ExchangeDomainV1.OrderKey",
              "name": "key",
              "type": "tuple"
            },
            {
              "internalType": "uint256",
              "name": "selling",
              "type": "uint256"
            },
            {
              "internalType": "uint256",
              "name": "buying",
              "type": "uint256"
            },
            {
              "internalType": "uint256",
              "name": "sellerFee",
              "type": "uint256"
            }
          ],
          "internalType": "struct ExchangeDomainV1.Order",
          "name": "order",
          "type": "tuple"
        },
        {
          "components": [
            {
              "internalType": "uint8",
              "name": "v",
              "type": "uint8"
            },
            {
              "internalType": "bytes32",
              "name": "r",
              "type": "bytes32"
            },
            {
              "internalType": "bytes32",
              "name": "s",
              "type": "bytes32"
            }
          ],
          "internalType": "struct ExchangeDomainV1.Sig",
          "name": "sig",
          "type": "tuple"
        },
        {
          "internalType": "uint256",
          "name": "buyerFee",
          "type": "uint256"
        },
        {
          "components": [
            {
              "internalType": "uint8",
              "name": "v",
              "type": "uint8"
            },
            {
              "internalType": "bytes32",
              "name": "r",
              "type": "bytes32"
            },
            {
              "internalType": "bytes32",
              "name": "s",
              "type": "bytes32"
            }
          ],
          "internalType": "struct ExchangeDomainV1.Sig",
          "name": "buyerFeeSig",
          "type": "tuple"
        },
        {
          "internalType": "uint256",
          "name": "amount",
          "type": "uint256"
        },
        {
          "internalType": "address",
          "name": "buyer",
          "type": "address"
        }
      ],
      "name": "exchange",
      "outputs": [],
      "stateMutability": "payable",
      "type": "function"
    },
    {
      "inputs": [],
      "name": "ordersHolder",
      "outputs": [
        {
          "internalType": "contract ExchangeOrdersHolderV1",
          "name": "",
          "type": "address"
        }
      ],
      "stateMutability": "view",
      "type": "function"
    },
    {
      "inputs": [],
      "name": "owner",
      "outputs": [
        {
          "internalType": "address",
          "name": "",
          "type": "address"
        }
      ],
      "stateMutability": "view",
      "type": "function"
    },
    {
      "inputs": [
        {
          "components": [
            {
              "components": [
                {
                  "internalType": "address",
                  "name": "owner",
                  "type": "address"
                },
                {
                  "internalType": "uint256",
                  "name": "salt",
                  "type": "uint256"
                },
                {
                  "components": [
                    {
                      "internalType": "address",
                      "name": "token",
                      "type": "address"
                    },
                    {
                      "internalType": "uint256",
                      "name": "tokenId",
                      "type": "uint256"
                    },
                    {
                      "internalType": "enum ExchangeDomainV1.AssetType",
                      "name": "assetType",
                      "type": "uint8"
                    }
                  ],
                  "internalType": "struct ExchangeDomainV1.Asset",
                  "name": "sellAsset",
                  "type": "tuple"
                },
                {
                  "components": [
                    {
                      "internalType": "address",
                      "name": "token",
                      "type": "address"
                    },
                    {
                      "internalType": "uint256",
                      "name": "tokenId",
                      "type": "uint256"
                    },
                    {
                      "internalType": "enum ExchangeDomainV1.AssetType",
                      "name": "assetType",
                      "type": "uint8"
                    }
                  ],
                  "internalType": "struct ExchangeDomainV1.Asset",
                  "name": "buyAsset",
                  "type": "tuple"
                }
              ],
              "internalType": "struct ExchangeDomainV1.OrderKey",
              "name": "key",
              "type": "tuple"
            },
            {
              "internalType": "uint256",
              "name": "selling",
              "type": "uint256"
            },
            {
              "internalType": "uint256",
              "name": "buying",
              "type": "uint256"
            },
            {
              "internalType": "uint256",
              "name": "sellerFee",
              "type": "uint256"
            }
          ],
          "internalType": "struct ExchangeDomainV1.Order",
          "name": "order",
          "type": "tuple"
        },
        {
          "internalType": "uint256",
          "name": "fee",
          "type": "uint256"
        }
      ],
      "name": "prepareBuyerFeeMessage",
      "outputs": [
        {
          "internalType": "string",
          "name": "",
          "type": "string"
        }
      ],
      "stateMutability": "pure",
      "type": "function"
    },
    {
      "inputs": [
        {
          "components": [
            {
              "components": [
                {
                  "internalType": "address",
                  "name": "owner",
                  "type": "address"
                },
                {
                  "internalType": "uint256",
                  "name": "salt",
                  "type": "uint256"
                },
                {
                  "components": [
                    {
                      "internalType": "address",
                      "name": "token",
                      "type": "address"
                    },
                    {
                      "internalType": "uint256",
                      "name": "tokenId",
                      "type": "uint256"
                    },
                    {
                      "internalType": "enum ExchangeDomainV1.AssetType",
                      "name": "assetType",
                      "type": "uint8"
                    }
                  ],
                  "internalType": "struct ExchangeDomainV1.Asset",
                  "name": "sellAsset",
                  "type": "tuple"
                },
                {
                  "components": [
                    {
                      "internalType": "address",
                      "name": "token",
                      "type": "address"
                    },
                    {
                      "internalType": "uint256",
                      "name": "tokenId",
                      "type": "uint256"
                    },
                    {
                      "internalType": "enum ExchangeDomainV1.AssetType",
                      "name": "assetType",
                      "type": "uint8"
                    }
                  ],
                  "internalType": "struct ExchangeDomainV1.Asset",
                  "name": "buyAsset",
                  "type": "tuple"
                }
              ],
              "internalType": "struct ExchangeDomainV1.OrderKey",
              "name": "key",
              "type": "tuple"
            },
            {
              "internalType": "uint256",
              "name": "selling",
              "type": "uint256"
            },
            {
              "internalType": "uint256",
              "name": "buying",
              "type": "uint256"
            },
            {
              "internalType": "uint256",
              "name": "sellerFee",
              "type": "uint256"
            }
          ],
          "internalType": "struct ExchangeDomainV1.Order",
          "name": "order",
          "type": "tuple"
        }
      ],
      "name": "prepareMessage",
      "outputs": [
        {
          "internalType": "string",
          "name": "",
          "type": "string"
        }
      ],
      "stateMutability": "pure",
      "type": "function"
    },
    {
      "inputs": [],
      "name": "renounceOwnership",
      "outputs": [],
      "stateMutability": "nonpayable",
      "type": "function"
    },
    {
      "inputs": [
        {
          "internalType": "address payable",
          "name": "newBeneficiary",
          "type": "address"
        }
      ],
      "name": "setBeneficiary",
      "outputs": [],
      "stateMutability": "nonpayable",
      "type": "function"
    },
    {
      "inputs": [
        {
          "internalType": "address",
          "name": "newBuyerFeeSigner",
          "type": "address"
        }
      ],
      "name": "setBuyerFeeSigner",
      "outputs": [],
      "stateMutability": "nonpayable",
      "type": "function"
    },
    {
      "inputs": [],
      "name": "state",
      "outputs": [
        {
          "internalType": "contract ExchangeStateV1",
          "name": "",
          "type": "address"
        }
      ],
      "stateMutability": "view",
      "type": "function"
    },
    {
      "inputs": [
        {
          "internalType": "address",
          "name": "newOwner",
          "type": "address"
        }
      ],
      "name": "transferOwnership",
      "outputs": [],
      "stateMutability": "nonpayable",
      "type": "function"
    },
    {
      "inputs": [],
      "name": "transferProxy",
      "outputs": [
        {
          "internalType": "contract TransferProxy",
          "name": "",
          "type": "address"
        }
      ],
      "stateMutability": "view",
      "type": "function"
    },
    {
      "inputs": [],
      "name": "transferProxyForDeprecated",
      "outputs": [
        {
          "internalType": "contract TransferProxyForDeprecated",
          "name": "",
          "type": "address"
        }
      ],
      "stateMutability": "view",
      "type": "function"
    }
  ],
  "transactionHash": "0x6ebe36aa3d277c7e703831d33557f93cc58a83fd5c99f41ff3d5a7fac97620e6",
  "args": [
    "0x092a2e2Ddd8bbf36dE0A06B35e4473a5c2c7f7F7",
    "0xA17bda5ee019c9A77A94c77567dBbDCb9588C133",
    "0x3d061F687EC833C5Af5a6077702ae45Ca62d5256",
    "0x30e3BDce14a7adE31d88C2F3BD6E47167C6464A3",
    "0x8C4f213d6eC0D48Db1Cd736670d0d4180e558fc6",
    "0x3814dE21909d4C14d166898F1a2510DBA0c8702d",
    "0x80aEa81791Ded20568221346C79B0ad4E0890FAA"
  ],
  "solcInputHash": "bfee237833f79fb62b10e75a193797a6",
  "bytecode": "0x60806040523480156200001157600080fd5b50604051620029913803806200299183398101604081905262000034916200012a565b6200003f33620000c1565b600380546001600160a01b03199081166001600160a01b03998a1617909155600480548216978916979097179096556005805487169588169590951790945560068054861693871693909317909255600780548516918616919091179055600180548416918516919091179055600280549092169216919091179055620001d5565b600080546001600160a01b038381166001600160a01b0319831681178455604051919092169283917f8be0079c531659141344cd1fd0a4f28419497f9722a3daafe3b4186f6b6457e09190a35050565b6001600160a01b03811681146200012757600080fd5b50565b600080600080600080600060e0888a0312156200014657600080fd5b8751620001538162000111565b6020890151909750620001668162000111565b6040890151909650620001798162000111565b60608901519095506200018c8162000111565b60808901519094506200019f8162000111565b60a0890151909350620001b28162000111565b60c0890151909250620001c58162000111565b8091505092959891949750929550565b6127ac80620001e56000396000f3fe6080604052600436106100f35760003560e01c8063715018a61161008a578063c19d93fb11610059578063c19d93fb1461028a578063ca120b1f146102aa578063f2fde38b146102ca578063fee03e9e146102ea57600080fd5b8063715018a6146102245780638da5cb5b146102395780639704dc44146102575780639cec63921461027757600080fd5b806338af3eed116100c657806338af3eed146101a45780634df97bc5146101c457806355d5d326146101e45780636e667db31461020457600080fd5b806302329e10146100f8578063049944b6146101355780631b4c9874146101625780631c31f71014610182575b600080fd5b34801561010457600080fd5b50600454610118906001600160a01b031681565b6040516001600160a01b0390911681526020015b60405180910390f35b34801561014157600080fd5b50610155610150366004612131565b61030a565b60405161012c919061214e565b34801561016e57600080fd5b5061015561017d3660046121a3565b610341565b34801561018e57600080fd5b506101a261019d3660046121d0565b610360565b005b3480156101b057600080fd5b50600154610118906001600160a01b031681565b3480156101d057600080fd5b50600254610118906001600160a01b031681565b3480156101f057600080fd5b506101a26101ff3660046121d0565b6103ee565b34801561021057600080fd5b50600354610118906001600160a01b031681565b34801561023057600080fd5b506101a2610477565b34801561024557600080fd5b506000546001600160a01b0316610118565b34801561026357600080fd5b50600754610118906001600160a01b031681565b6101a2610285366004612205565b6104dd565b34801561029657600080fd5b50600654610118906001600160a01b031681565b3480156102b657600080fd5b506101a26102c5366004612280565b61074a565b3480156102d657600080fd5b506101a26102e53660046121d0565b6108b9565b3480156102f657600080fd5b50600554610118906001600160a01b031681565b606061033b82604051602001610320919061235e565b6040516020818303038152906040528051906020012061099b565b92915050565b6060610359838360405160200161032092919061236d565b9392505050565b6000546001600160a01b031633146103bf5760405162461bcd60e51b815260206004820181905260248201527f4f776e61626c653a2063616c6c6572206973206e6f7420746865206f776e657260448201526064015b60405180910390fd5b6001805473ffffffffffffffffffffffffffffffffffffffff19166001600160a01b0392909216919091179055565b6000546001600160a01b031633146104485760405162461bcd60e51b815260206004820181905260248201527f4f776e61626c653a2063616c6c6572206973206e6f7420746865206f776e657260448201526064016103b6565b6002805473ffffffffffffffffffffffffffffffffffffffff19166001600160a01b0392909216919091179055565b6000546001600160a01b031633146104d15760405162461bcd60e51b815260206004820181905260248201527f4f776e61626c653a2063616c6c6572206973206e6f7420746865206f776e657260448201526064016103b6565b6104db6000610b08565b565b6105036104ef36889003880188612131565b6104fe3688900388018861238a565b610b65565b61052a61051536889003880188612131565b856105253687900387018761238a565b610d00565b600061054a6101008801356105446101208a013586610d86565b90610db9565b905061056a61055e368990038901896123f2565b88610100013585610dc5565b600061057c60a0890160808a0161240f565b600481111561058d5761058d612293565b14156106015760405162461bcd60e51b815260206004820152602160248201527f455448206973206e6f7420737570706f72746564206f6e2073656c6c2073696460448201527f650000000000000000000000000000000000000000000000000000000000000060648201526084016103b6565b6000610614610100890160e08a0161240f565b600481111561062557610625612293565b1415610635576106358186610f68565b600061066061064a60a08a0160808b0161240f565b61065b6101008b0160e08c0161240f565b610fce565b90506001600160a01b038316610674573392505b6106d0610689368a90038a0160408b0161242a565b8561069760208c018c6121d0565b8660018660028111156106ac576106ac612293565b148b8e61014001358f60000160a0018036038101906106cb919061242a565b611081565b6107276106e5368a90038a0160a08b0161242a565b83336106f460208d018d6121d0565b600286600281111561070857610708612293565b148d61014001358c8f6000016040018036038101906106cb919061242a565b610740610739368a90038a018a612131565b85856110a6565b5050505050505050565b3361075860208301836121d0565b6001600160a01b0316146107ae5760405162461bcd60e51b815260206004820152600c60248201527f6e6f7420616e206f776e6572000000000000000000000000000000000000000060448201526064016103b6565b6006546040517f3a076e9a0000000000000000000000000000000000000000000000000000000081526001600160a01b0390911690633a076e9a906107fb9084906000199060040161247f565b600060405180830381600087803b15801561081557600080fd5b505af1158015610829573d6000803e3d6000fd5b505050606082018035915061084190604084016121d0565b6001600160a01b03167fbfe0e802e586c99960de1a111c80f598b281996d65080d74dbe29986f55b274a3361087c60c0860160a087016121d0565b604080516001600160a01b0393841681529190921660208083019190915260c087013582840152860135606082015290519081900360800190a350565b6000546001600160a01b031633146109135760405162461bcd60e51b815260206004820181905260248201527f4f776e61626c653a2063616c6c6572206973206e6f7420746865206f776e657260448201526064016103b6565b6001600160a01b03811661098f5760405162461bcd60e51b815260206004820152602660248201527f4f776e61626c653a206e6577206f776e657220697320746865207a65726f206160448201527f646472657373000000000000000000000000000000000000000000000000000060648201526084016103b6565b61099881610b08565b50565b604080518082018252601081527f30313233343536373839616263646566000000000000000000000000000000006020820152815182815260608181018452926000919060208201818036833701905050905060005b6020811015610b0057826004868360208110610a0f57610a0f6124d4565b1a60f81b6001600160f81b031916901c60f81c60ff1681518110610a3557610a356124d4565b01602001516001600160f81b03191682610a50836002612500565b81518110610a6057610a606124d4565b60200101906001600160f81b031916908160001a90535082858260208110610a8a57610a8a6124d4565b825191901a600f16908110610aa157610aa16124d4565b01602001516001600160f81b03191682610abc836002612500565b610ac790600161251f565b81518110610ad757610ad76124d4565b60200101906001600160f81b031916908160001a90535080610af881612537565b9150506109f1565b509392505050565b600080546001600160a01b0383811673ffffffffffffffffffffffffffffffffffffffff19831681178455604051919092169283917f8be0079c531659141344cd1fd0a4f28419497f9722a3daafe3b4186f6b6457e09190a35050565b805160ff16158015610b7957506020810151155b8015610b8757506040810151155b15610c75576007546040517f2aee7a310000000000000000000000000000000000000000000000000000000081526001600160a01b0390911690632aee7a3190610bd590859060040161235e565b60206040518083038186803b158015610bed57600080fd5b505afa158015610c01573d6000803e3d6000fd5b505050506040513d601f19601f82011682018060405250810190610c259190612552565b610c715760405162461bcd60e51b815260206004820152601360248201527f696e636f7272656374207369676e61747572650000000000000000000000000060448201526064016103b6565b5050565b8160000151600001516001600160a01b0316610caa826000015183602001518460400151610ca28761030a565b92919061114a565b6001600160a01b031614610c715760405162461bcd60e51b815260206004820152601360248201527f696e636f7272656374207369676e61747572650000000000000000000000000060448201526064016103b6565b6002548151602083015160408401516001600160a01b0390931692610d2b929190610ca28888610341565b6001600160a01b031614610d815760405162461bcd60e51b815260206004820152601d60248201527f696e636f727265637420627579657220666565207369676e617475726500000060448201526064016103b6565b505050565b600082610d955750600061033b565b610d9f8284612500565b905081610dac848361258a565b1461033b5761033b61259e565b6000610359828461258a565b6006546040517ffb0000c00000000000000000000000000000000000000000000000000000000081526000916001600160a01b03169063fb0000c090610e0f9087906004016125b4565b60206040518083038186803b158015610e2757600080fd5b505afa158015610e3b573d6000803e3d6000fd5b505050506040513d601f19601f82011682018060405250810190610e5f91906125c3565b90506000610e6d828461123f565b905083811115610ee45760405162461bcd60e51b8152602060048201526024808201527f6e6f7420656e6f7567682073746f636b206f66206f7264657220666f7220627560448201527f79696e670000000000000000000000000000000000000000000000000000000060648201526084016103b6565b6006546040517f3a076e9a0000000000000000000000000000000000000000000000000000000081526001600160a01b0390911690633a076e9a90610f2f90889085906004016125dc565b600060405180830381600087803b158015610f4957600080fd5b505af1158015610f5d573d6000803e3d6000fd5b505050505050505050565b6000610f74838361125d565b9050610f80818461251f565b3414610d815760405162461bcd60e51b815260206004820152601660248201527f6d73672e76616c756520697320696e636f72726563740000000000000000000060448201526064016103b6565b60006003836004811115610fe457610fe4612293565b148061100157506004836004811115610fff57610fff612293565b145b80156110395750600382600481111561101c5761101c612293565b14806110395750600482600481111561103757611037612293565b145b156110465750600061033b565b81600481111561105857611058612293565b83600481111561106a5761106a612293565b11156110785750600261033b565b50600192915050565b83611097576110928888888861126f565b610740565b6107408888888887878761162c565b82516040808201516020808201519151818801518551606080880151805190860151888d01519987015189519586526001600160a01b03948516978601979097529083168489015290830152608082019690965286861660a082015260c0810188905260e081019290925292519193909216917fdddcdb07e460849cf04a4445b7af9faf01b7f5c7ba75deaf969ac5ed830312c391908190036101000190a3505050565b60008085905060006111c26040518060400160405280601a81526020017f19457468657265756d205369676e6564204d6573736167653a0a00000000000081525061119584516119d3565b60408051600080825260208201818152828401828152606084019283526080840190945288939091611b03565b90506001818051906020012087878760405160008152602001604052604051611207949392919093845260ff9290921660208401526040830152606082015260800190565b6020604051602081039080840390855afa158015611229573d6000803e3d6000fd5b5050604051601f19015198975050505050505050565b600061124b828461251f565b90508281101561033b5761033b61259e565b60006103596127106105448585610d86565b60008460400151600481111561128757611287612293565b14156112cc5760405181906001600160a01b0382169085156108fc029086906000818181858888f193505050501580156112c5573d6000803e3d6000fd5b5050611626565b6001846040015160048111156112e4576112e4612293565b14156113d25760208401511561133c5760405162461bcd60e51b815260206004820152601360248201527f746f6b656e49642073686f756c6420626520300000000000000000000000000060448201526064016103b6565b60055484516040517f776062c30000000000000000000000000000000000000000000000000000000081526001600160a01b039182166004820152848216602482015283821660448201526064810186905291169063776062c3906084015b600060405180830381600087803b1580156113b557600080fd5b505af11580156113c9573d6000803e3d6000fd5b50505050611626565b6003846040015160048111156113ea576113ea612293565b14156114a957826001146114405760405162461bcd60e51b815260206004820152601d60248201527f76616c75652073686f756c64206265203120666f72204552432d37323100000060448201526064016103b6565b600354845160208601516040517ff709b9060000000000000000000000000000000000000000000000000000000081526001600160a01b03928316600482015285831660248201528483166044820152606481019190915291169063f709b9069060840161139b565b6004846040015160048111156114c1576114c1612293565b141561157f57826001146115175760405162461bcd60e51b815260206004820152601d60248201527f76616c75652073686f756c64206265203120666f72204552432d37323100000060448201526064016103b6565b60048054855160208701516040517f8450ebe40000000000000000000000000000000000000000000000000000000081526001600160a01b03928316948101949094528582166024850152848216604485015260648401521690638450ebe49060840161139b565b600354845160208601516040517f9c1c2ee90000000000000000000000000000000000000000000000000000000081526001600160a01b0392831660048201528583166024820152848316604482015260648101919091526084810186905260c060a4820152600060c4820152911690639c1c2ee99060e401600060405180830381600087803b15801561161257600080fd5b505af1158015610740573d6000803e3d6000fd5b50505050565b600061163b8887898787611ed1565b905060028260400151600481111561165557611655612293565b148015611710575081516040517f01ffc9a70000000000000000000000000000000000000000000000000000000081527fb77995840000000000000000000000000000000000000000000000000000000060048201526001600160a01b03909116906301ffc9a79060240160206040518083038186803b1580156116d857600080fd5b505afa1580156116ec573d6000803e3d6000fd5b505050506040513d601f19601f820116820180604052508101906117109190612552565b80611809575060038260400151600481111561172e5761172e612293565b148061174f575060048260400151600481111561174d5761174d612293565b145b8015611809575081516040517f01ffc9a70000000000000000000000000000000000000000000000000000000081527fb77995840000000000000000000000000000000000000000000000000000000060048201526001600160a01b03909116906301ffc9a79060240160206040518083038186803b1580156117d157600080fd5b505afa1580156117e5573d6000803e3d6000fd5b505050506040513d601f19601f820116820180604052508101906118099190612552565b156119c657815160208301516040517fb9c4d9fb0000000000000000000000000000000000000000000000000000000081526000916001600160a01b0384169163b9c4d9fb9161185f9160040190815260200190565b60006040518083038186803b15801561187757600080fd5b505afa15801561188b573d6000803e3d6000fd5b505050506040513d6000823e601f3d908101601f191682016040526118b3919081019061260f565b90506000826001600160a01b0316630ebd4c7f86602001516040518263ffffffff1660e01b81526004016118e991815260200190565b60006040518083038186803b15801561190157600080fd5b505afa158015611915573d6000803e3d6000fd5b505050506040513d6000823e601f3d908101601f1916820160405261193d91908101906126ae565b9050815181511461194d57600080fd5b60005b81518110156119c157600080611980878e868681518110611973576119736124d4565b6020026020010151611f31565b915091508196506119ac8e828e88878151811061199f5761199f6124d4565b602002602001015161126f565b505080806119b990612537565b915050611950565b505050505b84610f5d8983898461126f565b606081611a1357505060408051808201909152600181527f3000000000000000000000000000000000000000000000000000000000000000602082015290565b8160005b8115611a3d5780611a2781612537565b9150611a369050600a8361258a565b9150611a17565b60008167ffffffffffffffff811115611a5857611a58611f80565b6040519080825280601f01601f191660200182016040528015611a82576020820181803683370190505b5090506000611a92600184612734565b90505b8515611afa57611aa6600a8761274b565b611ab190603061251f565b60f81b8282611abf8161275f565b935081518110611ad157611ad16124d4565b60200101906001600160f81b031916908160001a905350611af3600a8761258a565b9550611a95565b50949350505050565b6060600082518451865188518a518c518e51611b1f919061251f565b611b29919061251f565b611b33919061251f565b611b3d919061251f565b611b47919061251f565b611b51919061251f565b67ffffffffffffffff811115611b6957611b69611f80565b6040519080825280601f01601f191660200182016040528015611b93576020820181803683370190505b5090506000805b8a51811015611c0a578a8181518110611bb557611bb56124d4565b01602001516001600160f81b0319168383611bcf81612537565b945081518110611be157611be16124d4565b60200101906001600160f81b031916908160001a90535080611c0281612537565b915050611b9a565b5060005b8951811015611c7e57898181518110611c2957611c296124d4565b01602001516001600160f81b0319168383611c4381612537565b945081518110611c5557611c556124d4565b60200101906001600160f81b031916908160001a90535080611c7681612537565b915050611c0e565b5060005b8851811015611cf257888181518110611c9d57611c9d6124d4565b01602001516001600160f81b0319168383611cb781612537565b945081518110611cc957611cc96124d4565b60200101906001600160f81b031916908160001a90535080611cea81612537565b915050611c82565b5060005b8751811015611d6657878181518110611d1157611d116124d4565b01602001516001600160f81b0319168383611d2b81612537565b945081518110611d3d57611d3d6124d4565b60200101906001600160f81b031916908160001a90535080611d5e81612537565b915050611cf6565b5060005b8651811015611dda57868181518110611d8557611d856124d4565b01602001516001600160f81b0319168383611d9f81612537565b945081518110611db157611db16124d4565b60200101906001600160f81b031916908160001a90535080611dd281612537565b915050611d6a565b5060005b8551811015611e4e57858181518110611df957611df96124d4565b01602001516001600160f81b0319168383611e1381612537565b945081518110611e2557611e256124d4565b60200101906001600160f81b031916908160001a90535080611e4681612537565b915050611dde565b5060005b8451811015611ec257848181518110611e6d57611e6d6124d4565b01602001516001600160f81b0319168383611e8781612537565b945081518110611e9957611e996124d4565b60200101906001600160f81b031916908160001a90535080611eba81612537565b915050611e52565b50909998505050505050505050565b6000806000611ee1868787611f31565b90925090506000611ef2878661125d565b90506000611f00828461123f565b90508015611f2357600154611f23908b9083908c906001600160a01b031661126f565b509198975050505050505050565b600080611f4785611f42868661125d565b611f53565b91509150935093915050565b60008082841115611f7257611f688385612734565b9150829050611f79565b5060009050825b9250929050565b634e487b7160e01b600052604160045260246000fd5b6040516080810167ffffffffffffffff81118282101715611fb957611fb9611f80565b60405290565b604051601f8201601f1916810167ffffffffffffffff81118282101715611fe857611fe8611f80565b604052919050565b6001600160a01b038116811461099857600080fd5b80356005811061201457600080fd5b919050565b60006060828403121561202b57600080fd5b6040516060810181811067ffffffffffffffff8211171561204e5761204e611f80565b604052905080823561205f81611ff0565b81526020838101359082015261207760408401612005565b60408201525092915050565b6000610100828403121561209657600080fd5b61209e611f96565b905081356120ab81611ff0565b8152602082810135908201526120c48360408401612019565b60408201526120d68360a08401612019565b606082015292915050565b600061016082840312156120f457600080fd5b6120fc611f96565b90506121088383612083565b815261010082013560208201526101208201356040820152610140820135606082015292915050565b6000610160828403121561214457600080fd5b61035983836120e1565b600060208083528351808285015260005b8181101561217b5785810183015185820160400152820161215f565b8181111561218d576000604083870101525b50601f01601f1916929092016040019392505050565b60008061018083850312156121b757600080fd5b6121c184846120e1565b94610160939093013593505050565b6000602082840312156121e257600080fd5b813561035981611ff0565b6000606082840312156121ff57600080fd5b50919050565b60008060008060008086880361028081121561222057600080fd5b6101608082121561223057600080fd5b88975061223f8a828b016121ed565b965050506101c08701359350612259886101e089016121ed565b9250610240870135915061026087013561227281611ff0565b809150509295509295509295565b600061010082840312156121ff57600080fd5b634e487b7160e01b600052602160045260246000fd5b600581106122c757634e487b7160e01b600052602160045260246000fd5b9052565b6001600160a01b038151168252602081015160208301526040810151610d8160408401826122a9565b6001600160a01b03815116825260208101516020830152604081015161231d60408401826122cb565b506060810151610d8160a08401826122cb565b61233b8282516122f4565b602081015161010083015260408101516101208301526060015161014090910152565b610160810161033b8284612330565b610180810161237c8285612330565b826101608301529392505050565b60006060828403121561239c57600080fd5b6040516060810181811067ffffffffffffffff821117156123bf576123bf611f80565b604052823560ff811681146123d357600080fd5b8152602083810135908201526040928301359281019290925250919050565b6000610100828403121561240557600080fd5b6103598383612083565b60006020828403121561242157600080fd5b61035982612005565b60006060828403121561243c57600080fd5b6103598383612019565b803561245181611ff0565b6001600160a01b031682526020818101359083015261247260408201612005565b610d8160408401826122a9565b6101208101833561248f81611ff0565b6001600160a01b038116835250602084013560208301526124b66040830160408601612446565b6124c660a0830160a08601612446565b826101008301529392505050565b634e487b7160e01b600052603260045260246000fd5b634e487b7160e01b600052601160045260246000fd5b600081600019048311821515161561251a5761251a6124ea565b500290565b60008219821115612532576125326124ea565b500190565b600060001982141561254b5761254b6124ea565b5060010190565b60006020828403121561256457600080fd5b8151801515811461035957600080fd5b634e487b7160e01b600052601260045260246000fd5b60008261259957612599612574565b500490565b634e487b7160e01b600052600160045260246000fd5b610100810161033b82846122f4565b6000602082840312156125d557600080fd5b5051919050565b61012081016124c682856122f4565b600067ffffffffffffffff82111561260557612605611f80565b5060051b60200190565b6000602080838503121561262257600080fd5b825167ffffffffffffffff81111561263957600080fd5b8301601f8101851361264a57600080fd5b805161265d612658826125eb565b611fbf565b81815260059190911b8201830190838101908783111561267c57600080fd5b928401925b828410156126a357835161269481611ff0565b82529284019290840190612681565b979650505050505050565b600060208083850312156126c157600080fd5b825167ffffffffffffffff8111156126d857600080fd5b8301601f810185136126e957600080fd5b80516126f7612658826125eb565b81815260059190911b8201830190838101908783111561271657600080fd5b928401925b828410156126a35783518252928401929084019061271b565b600082821015612746576127466124ea565b500390565b60008261275a5761275a612574565b500690565b60008161276e5761276e6124ea565b50600019019056fea26469706673582212202b0a58107b72a0fc64846afa7431938e6b836568f3de2564f5a91f87a214de6164736f6c63430008090033",
  "devdoc": {
    "kind": "dev",
    "methods": {
      "owner()": {
        "details": "Returns the address of the current owner."
      },
      "renounceOwnership()": {
        "details": "Leaves the contract without owner. It will not be possible to call `onlyOwner` functions anymore. Can only be called by the current owner. NOTE: Renouncing ownership will leave the contract without an owner, thereby removing any functionality that is only available to the owner."
      },
      "transferOwnership(address)": {
        "details": "Transfers ownership of the contract to a new account (`newOwner`). Can only be called by the current owner."
      }
    },
    "version": 1
  },
  "userdoc": {
    "kind": "user",
    "methods": {},
    "version": 1
  },
  "storageLayout": {
    "storage": [
      {
        "astId": 1477,
        "contract": "src/ExchangeV1.sol:ExchangeV1",
        "label": "_owner",
        "offset": 0,
        "slot": "0",
        "type": "t_address"
      },
      {
        "astId": 429,
        "contract": "src/ExchangeV1.sol:ExchangeV1",
        "label": "beneficiary",
        "offset": 0,
        "slot": "1",
        "type": "t_address_payable"
      },
      {
        "astId": 431,
        "contract": "src/ExchangeV1.sol:ExchangeV1",
        "label": "buyerFeeSigner",
        "offset": 0,
        "slot": "2",
        "type": "t_address"
      },
      {
        "astId": 434,
        "contract": "src/ExchangeV1.sol:ExchangeV1",
        "label": "transferProxy",
        "offset": 0,
        "slot": "3",
        "type": "t_contract(TransferProxy)3762"
      },
      {
        "astId": 437,
        "contract": "src/ExchangeV1.sol:ExchangeV1",
        "label": "transferProxyForDeprecated",
        "offset": 0,
        "slot": "4",
        "type": "t_contract(TransferProxyForDeprecated)3792"
      },
      {
        "astId": 440,
        "contract": "src/ExchangeV1.sol:ExchangeV1",
        "label": "erc20TransferProxy",
        "offset": 0,
        "slot": "5",
        "type": "t_contract(ERC20TransferProxy)3702"
      },
      {
        "astId": 443,
        "contract": "src/ExchangeV1.sol:ExchangeV1",
        "label": "state",
        "offset": 0,
        "slot": "6",
        "type": "t_contract(ExchangeStateV1)3670"
      },
      {
        "astId": 446,
        "contract": "src/ExchangeV1.sol:ExchangeV1",
        "label": "ordersHolder",
        "offset": 0,
        "slot": "7",
        "type": "t_contract(ExchangeOrdersHolderV1)3593"
      }
    ],
    "types": {
      "t_address": {
        "encoding": "inplace",
        "label": "address",
        "numberOfBytes": "20"
      },
      "t_address_payable": {
        "encoding": "inplace",
        "label": "address payable",
        "numberOfBytes": "20"
      },
      "t_contract(ERC20TransferProxy)3702": {
        "encoding": "inplace",
        "label": "contract ERC20TransferProxy",
        "numberOfBytes": "20"
      },
      "t_contract(ExchangeOrdersHolderV1)3593": {
        "encoding": "inplace",
        "label": "contract ExchangeOrdersHolderV1",
        "numberOfBytes": "20"
      },
      "t_contract(ExchangeStateV1)3670": {
        "encoding": "inplace",
        "label": "contract ExchangeStateV1",
        "numberOfBytes": "20"
      },
      "t_contract(TransferProxy)3762": {
        "encoding": "inplace",
        "label": "contract TransferProxy",
        "numberOfBytes": "20"
      },
      "t_contract(TransferProxyForDeprecated)3792": {
        "encoding": "inplace",
        "label": "contract TransferProxyForDeprecated",
        "numberOfBytes": "20"
      }
    }
  }
}