{
  "address": "0x90Ee90854866e7e7A3679ceb24aCF6B71C2bAB7b",
  "abi": [
    {
      "inputs": [
        {
          "internalType": "string",
          "name": "_name",
          "type": "string"
        },
        {
          "internalType": "string",
          "name": "_symbol",
          "type": "string"
        },
        {
          "internalType": "address",
          "name": "signer",
          "type": "address"
        },
        {
          "internalType": "string",
          "name": "contractURI",
          "type": "string"
        },
        {
          "internalType": "string",
          "name": "tokenURIPrefix",
          "type": "string"
        }
      ],
      "stateMutability": "nonpayable",
      "type": "constructor"
    },
    {
      "anonymous": false,
      "inputs": [
        {
          "indexed": true,
          "internalType": "address",
          "name": "owner",
          "type": "address"
        },
        {
          "indexed": true,
          "internalType": "address",
          "name": "approved",
          "type": "address"
        },
        {
          "indexed": true,
          "internalType": "uint256",
          "name": "tokenId",
          "type": "uint256"
        }
      ],
      "name": "Approval",
      "type": "event"
    },
    {
      "anonymous": false,
      "inputs": [
        {
          "indexed": true,
          "internalType": "address",
          "name": "owner",
          "type": "address"
        },
        {
          "indexed": true,
          "internalType": "address",
          "name": "operator",
          "type": "address"
        },
        {
          "indexed": false,
          "internalType": "bool",
          "name": "approved",
          "type": "bool"
        }
      ],
      "name": "ApprovalForAll",
      "type": "event"
    },
    {
      "anonymous": false,
      "inputs": [
        {
          "indexed": true,
          "internalType": "address",
          "name": "previousOwner",
          "type": "address"
        },
        {
          "indexed": true,
          "internalType": "address",
          "name": "newOwner",
          "type": "address"
        }
      ],
      "name": "OwnershipTransferred",
      "type": "event"
    },
    {
      "anonymous": false,
      "inputs": [
        {
          "indexed": false,
          "internalType": "uint256",
          "name": "tokenId",
          "type": "uint256"
        },
        {
          "indexed": false,
          "internalType": "address[]",
          "name": "recipients",
          "type": "address[]"
        },
        {
          "indexed": false,
          "internalType": "uint256[]",
          "name": "bps",
          "type": "uint256[]"
        }
      ],
      "name": "SecondarySaleFees",
      "type": "event"
    },
    {
      "anonymous": false,
      "inputs": [
        {
          "indexed": true,
          "internalType": "address",
          "name": "account",
          "type": "address"
        }
      ],
      "name": "SignerAdded",
      "type": "event"
    },
    {
      "anonymous": false,
      "inputs": [
        {
          "indexed": true,
          "internalType": "address",
          "name": "account",
          "type": "address"
        }
      ],
      "name": "SignerRemoved",
      "type": "event"
    },
    {
      "anonymous": false,
      "inputs": [
        {
          "indexed": true,
          "internalType": "address",
          "name": "from",
          "type": "address"
        },
        {
          "indexed": true,
          "internalType": "address",
          "name": "to",
          "type": "address"
        },
        {
          "indexed": true,
          "internalType": "uint256",
          "name": "tokenId",
          "type": "uint256"
        }
      ],
      "name": "Transfer",
      "type": "event"
    },
    {
      "inputs": [
        {
          "internalType": "address",
          "name": "account",
          "type": "address"
        }
      ],
      "name": "addSigner",
      "outputs": [],
      "stateMutability": "nonpayable",
      "type": "function"
    },
    {
      "inputs": [
        {
          "internalType": "address",
          "name": "to",
          "type": "address"
        },
        {
          "internalType": "uint256",
          "name": "tokenId",
          "type": "uint256"
        }
      ],
      "name": "approve",
      "outputs": [],
      "stateMutability": "nonpayable",
      "type": "function"
    },
    {
      "inputs": [
        {
          "internalType": "address",
          "name": "owner",
          "type": "address"
        }
      ],
      "name": "balanceOf",
      "outputs": [
        {
          "internalType": "uint256",
          "name": "",
          "type": "uint256"
        }
      ],
      "stateMutability": "view",
      "type": "function"
    },
    {
      "inputs": [
        {
          "internalType": "uint256",
          "name": "tokenId",
          "type": "uint256"
        }
      ],
      "name": "burn",
      "outputs": [],
      "stateMutability": "nonpayable",
      "type": "function"
    },
    {
      "inputs": [],
      "name": "contractURI",
      "outputs": [
        {
          "internalType": "string",
          "name": "",
          "type": "string"
        }
      ],
      "stateMutability": "view",
      "type": "function"
    },
    {
      "inputs": [
        {
          "internalType": "uint256",
          "name": "id",
          "type": "uint256"
        }
      ],
      "name": "encodePackedData",
      "outputs": [
        {
          "internalType": "bytes32",
          "name": "",
          "type": "bytes32"
        }
      ],
      "stateMutability": "view",
      "type": "function"
    },
    {
      "inputs": [
        {
          "internalType": "uint256",
          "name": "",
          "type": "uint256"
        },
        {
          "internalType": "uint256",
          "name": "",
          "type": "uint256"
        }
      ],
      "name": "fees",
      "outputs": [
        {
          "internalType": "address payable",
          "name": "recipient",
          "type": "address"
        },
        {
          "internalType": "uint256",
          "name": "value",
          "type": "uint256"
        }
      ],
      "stateMutability": "view",
      "type": "function"
    },
    {
      "inputs": [
        {
          "internalType": "uint256",
          "name": "tokenId",
          "type": "uint256"
        }
      ],
      "name": "getApproved",
      "outputs": [
        {
          "internalType": "address",
          "name": "",
          "type": "address"
        }
      ],
      "stateMutability": "view",
      "type": "function"
    },
    {
      "inputs": [
        {
          "internalType": "uint256",
          "name": "id",
          "type": "uint256"
        }
      ],
      "name": "getFeeBps",
      "outputs": [
        {
          "internalType": "uint256[]",
          "name": "",
          "type": "uint256[]"
        }
      ],
      "stateMutability": "view",
      "type": "function"
    },
    {
      "inputs": [
        {
          "internalType": "uint256",
          "name": "id",
          "type": "uint256"
        }
      ],
      "name": "getFeeRecipients",
      "outputs": [
        {
          "internalType": "address payable[]",
          "name": "",
          "type": "address[]"
        }
      ],
      "stateMutability": "view",
      "type": "function"
    },
    {
      "inputs": [
        {
          "internalType": "uint256",
          "name": "id",
          "type": "uint256"
        },
        {
          "internalType": "uint8",
          "name": "v",
          "type": "uint8"
        },
        {
          "internalType": "bytes32",
          "name": "r",
          "type": "bytes32"
        },
        {
          "internalType": "bytes32",
          "name": "s",
          "type": "bytes32"
        }
      ],
      "name": "getecrecover",
      "outputs": [
        {
          "internalType": "address",
          "name": "",
          "type": "address"
        }
      ],
      "stateMutability": "view",
      "type": "function"
    },
    {
      "inputs": [
        {
          "internalType": "address",
          "name": "owner",
          "type": "address"
        },
        {
          "internalType": "address",
          "name": "operator",
          "type": "address"
        }
      ],
      "name": "isApprovedForAll",
      "outputs": [
        {
          "internalType": "bool",
          "name": "",
          "type": "bool"
        }
      ],
      "stateMutability": "view",
      "type": "function"
    },
    {
      "inputs": [
        {
          "internalType": "address",
          "name": "account",
          "type": "address"
        }
      ],
      "name": "isSigner",
      "outputs": [
        {
          "internalType": "bool",
          "name": "",
          "type": "bool"
        }
      ],
      "stateMutability": "view",
      "type": "function"
    },
    {
      "inputs": [
        {
          "internalType": "uint256",
          "name": "tokenId",
          "type": "uint256"
        },
        {
          "internalType": "uint8",
          "name": "v",
          "type": "uint8"
        },
        {
          "internalType": "bytes32",
          "name": "r",
          "type": "bytes32"
        },
        {
          "internalType": "bytes32",
          "name": "s",
          "type": "bytes32"
        },
        {
          "components": [
            {
              "internalType": "address payable",
              "name": "recipient",
              "type": "address"
            },
            {
              "internalType": "uint256",
              "name": "value",
              "type": "uint256"
            }
          ],
          "internalType": "struct ERC721Base.Fee[]",
          "name": "_fees",
          "type": "tuple[]"
        },
        {
          "internalType": "string",
          "name": "_tokenURI",
          "type": "string"
        }
      ],
      "name": "mint",
      "outputs": [],
      "stateMutability": "nonpayable",
      "type": "function"
    },
    {
      "inputs": [],
      "name": "name",
      "outputs": [
        {
          "internalType": "string",
          "name": "",
          "type": "string"
        }
      ],
      "stateMutability": "view",
      "type": "function"
    },
    {
      "inputs": [],
      "name": "owner",
      "outputs": [
        {
          "internalType": "address",
          "name": "",
          "type": "address"
        }
      ],
      "stateMutability": "view",
      "type": "function"
    },
    {
      "inputs": [
        {
          "internalType": "uint256",
          "name": "tokenId",
          "type": "uint256"
        }
      ],
      "name": "ownerOf",
      "outputs": [
        {
          "internalType": "address",
          "name": "",
          "type": "address"
        }
      ],
      "stateMutability": "view",
      "type": "function"
    },
    {
      "inputs": [],
      "name": "renounceOwnership",
      "outputs": [],
      "stateMutability": "nonpayable",
      "type": "function"
    },
    {
      "inputs": [],
      "name": "renounceSigner",
      "outputs": [],
      "stateMutability": "nonpayable",
      "type": "function"
    },
    {
      "inputs": [
        {
          "internalType": "address",
          "name": "from",
          "type": "address"
        },
        {
          "internalType": "address",
          "name": "to",
          "type": "address"
        },
        {
          "internalType": "uint256",
          "name": "tokenId",
          "type": "uint256"
        }
      ],
      "name": "safeTransferFrom",
      "outputs": [],
      "stateMutability": "nonpayable",
      "type": "function"
    },
    {
      "inputs": [
        {
          "internalType": "address",
          "name": "from",
          "type": "address"
        },
        {
          "internalType": "address",
          "name": "to",
          "type": "address"
        },
        {
          "internalType": "uint256",
          "name": "tokenId",
          "type": "uint256"
        },
        {
          "internalType": "bytes",
          "name": "_data",
          "type": "bytes"
        }
      ],
      "name": "safeTransferFrom",
      "outputs": [],
      "stateMutability": "nonpayable",
      "type": "function"
    },
    {
      "inputs": [
        {
          "internalType": "address",
          "name": "to",
          "type": "address"
        },
        {
          "internalType": "bool",
          "name": "approved",
          "type": "bool"
        }
      ],
      "name": "setApprovalForAll",
      "outputs": [],
      "stateMutability": "nonpayable",
      "type": "function"
    },
    {
      "inputs": [
        {
          "internalType": "string",
          "name": "contractURI",
          "type": "string"
        }
      ],
      "name": "setContractURI",
      "outputs": [],
      "stateMutability": "nonpayable",
      "type": "function"
    },
    {
      "inputs": [
        {
          "internalType": "string",
          "name": "tokenURIPrefix",
          "type": "string"
        }
      ],
      "name": "setTokenURIPrefix",
      "outputs": [],
      "stateMutability": "nonpayable",
      "type": "function"
    },
    {
      "inputs": [
        {
          "internalType": "bytes4",
          "name": "interfaceId",
          "type": "bytes4"
        }
      ],
      "name": "supportsInterface",
      "outputs": [
        {
          "internalType": "bool",
          "name": "",
          "type": "bool"
        }
      ],
      "stateMutability": "view",
      "type": "function"
    },
    {
      "inputs": [],
      "name": "symbol",
      "outputs": [
        {
          "internalType": "string",
          "name": "",
          "type": "string"
        }
      ],
      "stateMutability": "view",
      "type": "function"
    },
    {
      "inputs": [
        {
          "internalType": "uint256",
          "name": "index",
          "type": "uint256"
        }
      ],
      "name": "tokenByIndex",
      "outputs": [
        {
          "internalType": "uint256",
          "name": "",
          "type": "uint256"
        }
      ],
      "stateMutability": "view",
      "type": "function"
    },
    {
      "inputs": [
        {
          "internalType": "address",
          "name": "owner",
          "type": "address"
        },
        {
          "internalType": "uint256",
          "name": "index",
          "type": "uint256"
        }
      ],
      "name": "tokenOfOwnerByIndex",
      "outputs": [
        {
          "internalType": "uint256",
          "name": "",
          "type": "uint256"
        }
      ],
      "stateMutability": "view",
      "type": "function"
    },
    {
      "inputs": [
        {
          "internalType": "uint256",
          "name": "tokenId",
          "type": "uint256"
        }
      ],
      "name": "tokenURI",
      "outputs": [
        {
          "internalType": "string",
          "name": "",
          "type": "string"
        }
      ],
      "stateMutability": "view",
      "type": "function"
    },
    {
      "inputs": [],
      "name": "tokenURIPrefix",
      "outputs": [
        {
          "internalType": "string",
          "name": "",
          "type": "string"
        }
      ],
      "stateMutability": "view",
      "type": "function"
    },
    {
      "inputs": [],
      "name": "totalSupply",
      "outputs": [
        {
          "internalType": "uint256",
          "name": "",
          "type": "uint256"
        }
      ],
      "stateMutability": "view",
      "type": "function"
    },
    {
      "inputs": [
        {
          "internalType": "address",
          "name": "from",
          "type": "address"
        },
        {
          "internalType": "address",
          "name": "to",
          "type": "address"
        },
        {
          "internalType": "uint256",
          "name": "tokenId",
          "type": "uint256"
        }
      ],
      "name": "transferFrom",
      "outputs": [],
      "stateMutability": "nonpayable",
      "type": "function"
    },
    {
      "inputs": [
        {
          "internalType": "address",
          "name": "newOwner",
          "type": "address"
        }
      ],
      "name": "transferOwnership",
      "outputs": [],
      "stateMutability": "nonpayable",
      "type": "function"
    }
  ],
  "transactionHash": "0xf646a8c32515cfc5ed684dc062c88824a3f569559825790d141a24633f676e2d",
  "args": [
    "Genius NFT",
    "GNFT",
    "0x80aEa81791Ded20568221346C79B0ad4E0890FAA",
    "https://api.emusk.com/contractMetadata/{address}",
    "https://ipfs.io/"
  ],
  "solcInputHash": "cde3f1481baf4e5e8f9f26a75614857b",
  "bytecode": "0x60806040523480156200001157600080fd5b506040516200389f3803806200389f833981016040819052620000349162000501565b848483838082620000453362000162565b6200005033620001b2565b620000626301ffc9a760e01b62000204565b62000074632dde656160e21b62000204565b620000866380ac58cd60e01b62000204565b80516200009b9060079060208401906200038e565b50620000ae63e8a3d48560e01b62000204565b508051620000c49060089060208401906200038e565b50620000d9905063780e9d6360e01b62000204565b8351620000ee90600e9060208701906200038e565b5082516200010490600f9060208601906200038e565b5062000117635b5e139f60e01b62000204565b505050506200012c83620001b260201b60201c565b620001577fe37243f27916e395706434720b54132b80ef5cc8c56f39b0df6485e8dfb697cf62000204565b505050505062000619565b600080546001600160a01b038381166001600160a01b0319831681178455604051919092169283917f8be0079c531659141344cd1fd0a4f28419497f9722a3daafe3b4186f6b6457e09190a35050565b620001cd8160016200028960201b620014c81790919060201c565b6040516001600160a01b038216907f47d1c22a25bb3a5d4e481b9b1e6944c2eade3181a0a20b495ed61d35b5323f2490600090a250565b6001600160e01b03198082161415620002645760405162461bcd60e51b815260206004820152601c60248201527f4552433136353a20696e76616c696420696e746572666163652069640000000060448201526064015b60405180910390fd5b6001600160e01b0319166000908152600260205260409020805460ff19166001179055565b62000295828262000309565b15620002e45760405162461bcd60e51b815260206004820152601f60248201527f526f6c65733a206163636f756e7420616c72656164792068617320726f6c650060448201526064016200025b565b6001600160a01b0316600090815260209190915260409020805460ff19166001179055565b60006001600160a01b0382166200036e5760405162461bcd60e51b815260206004820152602260248201527f526f6c65733a206163636f756e7420697320746865207a65726f206164647265604482015261737360f01b60648201526084016200025b565b506001600160a01b03166000908152602091909152604090205460ff1690565b8280546200039c90620005dc565b90600052602060002090601f016020900481019282620003c057600085556200040b565b82601f10620003db57805160ff19168380011785556200040b565b828001600101855582156200040b579182015b828111156200040b578251825591602001919060010190620003ee565b50620004199291506200041d565b5090565b5b808211156200041957600081556001016200041e565b634e487b7160e01b600052604160045260246000fd5b600082601f8301126200045c57600080fd5b81516001600160401b038082111562000479576200047962000434565b604051601f8301601f19908116603f01168101908282118183101715620004a457620004a462000434565b81604052838152602092508683858801011115620004c157600080fd5b600091505b83821015620004e55785820183015181830184015290820190620004c6565b83821115620004f75760008385830101525b9695505050505050565b600080600080600060a086880312156200051a57600080fd5b85516001600160401b03808211156200053257600080fd5b6200054089838a016200044a565b965060208801519150808211156200055757600080fd5b6200056589838a016200044a565b604089015190965091506001600160a01b03821682146200058557600080fd5b6060880151919450808211156200059b57600080fd5b620005a989838a016200044a565b93506080880151915080821115620005c057600080fd5b50620005cf888289016200044a565b9150509295509295909350565b600181811c90821680620005f157607f821691505b602082108114156200061357634e487b7160e01b600052602260045260246000fd5b50919050565b61327680620006296000396000f3fe608060405234801561001057600080fd5b506004361061020b5760003560e01c8063715018a61161012a578063b9c4d9fb116100bd578063e8a3d4851161008c578063eb12d61e11610071578063eb12d61e146104d5578063f2fde38b146104e8578063f53bbb7f146104fb57600080fd5b8063e8a3d48514610491578063e985e9c51461049957600080fd5b8063b9c4d9fb1461044e578063c0ac99831461046e578063c87b56dd14610476578063e5c8b03d1461048957600080fd5b806395d89b41116100f957806395d89b411461040d57806399e0dd7c14610415578063a22cb46514610428578063b88d4fde1461043b57600080fd5b8063715018a6146103ce5780637df73e27146103d65780638da5cb5b146103e9578063938e3d7b146103fa57600080fd5b80632f745c59116101a25780636308f1cd116101715780636308f1cd146103635780636352211e14610395578063672a9400146103a857806370a08231146103bb57600080fd5b80632f745c591461031757806342842e0e1461032a57806342966c681461033d5780634f6ccce71461035057600080fd5b80630ebd4c7f116101de5780630ebd4c7f146102bf57806318160ddd146102df5780631ff702a8146102f157806323b872dd1461030457600080fd5b806301ffc9a71461021057806306fdde031461026a578063081812fc1461027f578063095ea7b3146102aa575b600080fd5b61025561021e366004612af4565b7fffffffff000000000000000000000000000000000000000000000000000000001660009081526002602052604090205460ff1690565b60405190151581526020015b60405180910390f35b61027261050e565b6040516102619190612b69565b61029261028d366004612b7c565b61059c565b6040516001600160a01b039091168152602001610261565b6102bd6102b8366004612baa565b610647565b005b6102d26102cd366004612b7c565b6107d3565b6040516102619190612c11565b600c545b604051908152602001610261565b6102e36102ff366004612b7c565b6108f5565b6102bd610312366004612c24565b61093b565b6102e3610325366004612baa565b6109c8565b6102bd610338366004612c24565b610a84565b6102bd61034b366004612b7c565b610a9f565b6102e361035e366004612b7c565b610b26565b610376610371366004612c65565b610bca565b604080516001600160a01b039093168352602083019190915201610261565b6102926103a3366004612b7c565b610c10565b6102bd6103b6366004612d85565b610ca1565b6102e36103c9366004612eac565b610da3565b6102bd610e3f565b6102556103e4366004612eac565b610ea5565b6000546001600160a01b0316610292565b6102bd610408366004612ec9565b610eb2565b610272610f15565b6102bd610423366004612ec9565b610f22565b6102bd610436366004612efe565b610f85565b6102bd610449366004612f3c565b61104a565b61046161045c366004612b7c565b6110d8565b6040516102619190612fbc565b6102726111ff565b610272610484366004612b7c565b61120c565b6102bd6112a2565b6102726112ab565b6102556104a7366004612ffd565b6001600160a01b03918216600090815260066020908152604080832093909416825291909152205460ff1690565b6102bd6104e3366004612eac565b6112b8565b6102bd6104f6366004612eac565b61133c565b61029261050936600461302b565b61141b565b600e805461051b90613066565b80601f016020809104026020016040519081016040528092919081815260200182805461054790613066565b80156105945780601f1061056957610100808354040283529160200191610594565b820191906000526020600020905b81548152906001019060200180831161057757829003601f168201915b505050505081565b6000818152600360205260408120546001600160a01b031661062b5760405162461bcd60e51b815260206004820152602c60248201527f4552433732313a20617070726f76656420717565727920666f72206e6f6e657860448201527f697374656e7420746f6b656e000000000000000000000000000000000000000060648201526084015b60405180910390fd5b506000908152600460205260409020546001600160a01b031690565b600061065282610c10565b9050806001600160a01b0316836001600160a01b031614156106dc5760405162461bcd60e51b815260206004820152602160248201527f4552433732313a20617070726f76616c20746f2063757272656e74206f776e6560448201527f72000000000000000000000000000000000000000000000000000000000000006064820152608401610622565b336001600160a01b03821614806106f857506106f881336104a7565b61076a5760405162461bcd60e51b815260206004820152603860248201527f4552433732313a20617070726f76652063616c6c6572206973206e6f74206f7760448201527f6e6572206e6f7220617070726f76656420666f7220616c6c00000000000000006064820152608401610622565b600082815260046020526040808220805473ffffffffffffffffffffffffffffffffffffffff19166001600160a01b0387811691821790925591518593918516917f8c5be1e5ebec7d5bd14f71427d1e84f3dd0314c0f7b2291e5b200ac8c7c3b92591a4505050565b6000818152601060209081526040808320805482518185028101850190935280835260609493849084015b82821015610846576000848152602090819020604080518082019091526002850290910180546001600160a01b031682526001908101548284015290835290920191016107fe565b5050505090506000815167ffffffffffffffff81111561086857610868612c9d565b604051908082528060200260200182016040528015610891578160200160208202803683370190505b50905060005b82518110156108ed578281815181106108b2576108b26130a1565b6020026020010151602001518282815181106108d0576108d06130a1565b6020908102919091010152806108e5816130cd565b915050610897565b509392505050565b6040516bffffffffffffffffffffffff193060601b166020820152603481018290526000906054015b604051602081830303815290604052805190602001209050919050565b610946335b82611544565b6109b85760405162461bcd60e51b815260206004820152603160248201527f4552433732313a207472616e736665722063616c6c6572206973206e6f74206f60448201527f776e6572206e6f7220617070726f7665640000000000000000000000000000006064820152608401610622565b6109c3838383611648565b505050565b60006109d383610da3565b8210610a475760405162461bcd60e51b815260206004820152602b60248201527f455243373231456e756d657261626c653a206f776e657220696e646578206f7560448201527f74206f6620626f756e64730000000000000000000000000000000000000000006064820152608401610622565b6001600160a01b0383166000908152600a60205260409020805483908110610a7157610a716130a1565b9060005260206000200154905092915050565b6109c38383836040518060200160405280600081525061104a565b610aa833610940565b610b1a5760405162461bcd60e51b815260206004820152603060248201527f4552433732314275726e61626c653a2063616c6c6572206973206e6f74206f7760448201527f6e6572206e6f7220617070726f766564000000000000000000000000000000006064820152608401610622565b610b2381611653565b50565b6000610b31600c5490565b8210610ba55760405162461bcd60e51b815260206004820152602c60248201527f455243373231456e756d657261626c653a20676c6f62616c20696e646578206f60448201527f7574206f6620626f756e647300000000000000000000000000000000000000006064820152608401610622565b600c8281548110610bb857610bb86130a1565b90600052602060002001549050919050565b60106020528160005260406000208181548110610be657600080fd5b6000918252602090912060029091020180546001909101546001600160a01b039091169250905082565b6000818152600360205260408120546001600160a01b031680610c9b5760405162461bcd60e51b815260206004820152602960248201527f4552433732313a206f776e657220717565727920666f72206e6f6e657869737460448201527f656e7420746f6b656e00000000000000000000000000000000000000000000006064820152608401610622565b92915050565b6040516bffffffffffffffffffffffff193060601b16602082015260348101879052610d3a9060019060540160408051601f198184030181528282528051602091820120600084529083018083525260ff891690820152606081018790526080810186905260a0016020604051602081039080840390855afa158015610d2b573d6000803e3d6000fd5b50505060206040510351610ea5565b610d865760405162461bcd60e51b815260206004820152601960248201527f6f776e65722073686f756c64207369676e20746f6b656e4964000000000000006044820152606401610622565b610d91338784611665565b610d9b868261195b565b505050505050565b60006001600160a01b038216610e215760405162461bcd60e51b815260206004820152602a60248201527f4552433732313a2062616c616e636520717565727920666f7220746865207a6560448201527f726f2061646472657373000000000000000000000000000000000000000000006064820152608401610622565b6001600160a01b038216600090815260056020526040902054610c9b565b6000546001600160a01b03163314610e995760405162461bcd60e51b815260206004820181905260248201527f4f776e61626c653a2063616c6c6572206973206e6f7420746865206f776e65726044820152606401610622565b610ea360006119f3565b565b6000610c9b600183611a50565b6000546001600160a01b03163314610f0c5760405162461bcd60e51b815260206004820181905260248201527f4f776e61626c653a2063616c6c6572206973206e6f7420746865206f776e65726044820152606401610622565b610b2381611aee565b600f805461051b90613066565b6000546001600160a01b03163314610f7c5760405162461bcd60e51b815260206004820181905260248201527f4f776e61626c653a2063616c6c6572206973206e6f7420746865206f776e65726044820152606401610622565b610b2381611b01565b6001600160a01b038216331415610fde5760405162461bcd60e51b815260206004820152601960248201527f4552433732313a20617070726f766520746f2063616c6c6572000000000000006044820152606401610622565b3360008181526006602090815260408083206001600160a01b03871680855290835292819020805460ff191686151590811790915590519081529192917f17307eab39ab6107e8899845ad3d59bd9653f200f220920489ca2b5937696c31910160405180910390a35050565b6110543383611544565b6110c65760405162461bcd60e51b815260206004820152603160248201527f4552433732313a207472616e736665722063616c6c6572206973206e6f74206f60448201527f776e6572206e6f7220617070726f7665640000000000000000000000000000006064820152608401610622565b6110d284848484611b14565b50505050565b6000818152601060209081526040808320805482518185028101850190935280835260609493849084015b8282101561114b576000848152602090819020604080518082019091526002850290910180546001600160a01b03168252600190810154828401529083529092019101611103565b5050505090506000815167ffffffffffffffff81111561116d5761116d612c9d565b604051908082528060200260200182016040528015611196578160200160208202803683370190505b50905060005b82518110156108ed578281815181106111b7576111b76130a1565b6020026020010151600001518282815181106111d5576111d56130a1565b6001600160a01b0390921660209283029190910190910152806111f7816130cd565b91505061119c565b6008805461051b90613066565b6000818152600360205260409020546060906001600160a01b03166112995760405162461bcd60e51b815260206004820152602f60248201527f4552433732314d657461646174613a2055524920717565727920666f72206e6f60448201527f6e6578697374656e7420746f6b656e00000000000000000000000000000000006064820152608401610622565b610c9b82611b9d565b610ea333611cd4565b6007805461051b90613066565b6112c133610ea5565b6113335760405162461bcd60e51b815260206004820152603060248201527f5369676e6572526f6c653a2063616c6c657220646f6573206e6f74206861766560448201527f20746865205369676e657220726f6c65000000000000000000000000000000006064820152608401610622565b610b2381611d16565b6000546001600160a01b031633146113965760405162461bcd60e51b815260206004820181905260248201527f4f776e61626c653a2063616c6c6572206973206e6f7420746865206f776e65726044820152606401610622565b6001600160a01b0381166114125760405162461bcd60e51b815260206004820152602660248201527f4f776e61626c653a206e6577206f776e657220697320746865207a65726f206160448201527f64647265737300000000000000000000000000000000000000000000000000006064820152608401610622565b610b23816119f3565b6040516bffffffffffffffffffffffff193060601b166020820152603481018590526000906001906114659060540160405160208183030381529060405280519060200120611d58565b6040805160008152602081018083529290925260ff871690820152606081018590526080810184905260a0016020604051602081039080840390855afa1580156114b3573d6000803e3d6000fd5b5050506020604051035190505b949350505050565b6114d28282611a50565b1561151f5760405162461bcd60e51b815260206004820152601f60248201527f526f6c65733a206163636f756e7420616c72656164792068617320726f6c65006044820152606401610622565b6001600160a01b0316600090815260209190915260409020805460ff19166001179055565b6000818152600360205260408120546001600160a01b03166115ce5760405162461bcd60e51b815260206004820152602c60248201527f4552433732313a206f70657261746f7220717565727920666f72206e6f6e657860448201527f697374656e7420746f6b656e00000000000000000000000000000000000000006064820152608401610622565b60006115d983610c10565b9050806001600160a01b0316846001600160a01b031614806116145750836001600160a01b03166116098461059c565b6001600160a01b0316145b806114c057506001600160a01b0380821660009081526006602090815260408083209388168352929052205460ff166114c0565b6109c3838383611d93565b610b2361165f82610c10565b82611d9e565b61166f8383611da8565b6000815167ffffffffffffffff81111561168b5761168b612c9d565b6040519080825280602002602001820160405280156116b4578160200160208202803683370190505b5090506000825167ffffffffffffffff8111156116d3576116d3612c9d565b6040519080825280602002602001820160405280156116fc578160200160208202803683370190505b50905060005b83518110156119105760006001600160a01b0316848281518110611728576117286130a1565b6020026020010151600001516001600160a01b0316141561178b5760405162461bcd60e51b815260206004820152601b60248201527f526563697069656e742073686f756c642062652070726573656e7400000000006044820152606401610622565b83818151811061179d5761179d6130a1565b602002602001015160200151600014156117f95760405162461bcd60e51b815260206004820152601c60248201527f4665652076616c75652073686f756c6420626520706f736974697665000000006044820152606401610622565b6000858152601060205260409020845185908390811061181b5761181b6130a1565b6020908102919091018101518254600180820185556000948552938390208251600290920201805473ffffffffffffffffffffffffffffffffffffffff19166001600160a01b039092169190911781559101519101558351849082908110611885576118856130a1565b6020026020010151600001518382815181106118a3576118a36130a1565b60200260200101906001600160a01b031690816001600160a01b0316815250508381815181106118d5576118d56130a1565b6020026020010151602001518282815181106118f3576118f36130a1565b602090810291909101015280611908816130cd565b915050611702565b50825115611954577f99aba1d63749cfd5ad1afda7c4663840924d54eb5f005bbbeadedc6ec13674b284838360405161194b93929190613106565b60405180910390a15b5050505050565b6000828152600360205260409020546001600160a01b03166119e55760405162461bcd60e51b815260206004820152602c60248201527f4552433732314d657461646174613a2055524920736574206f66206e6f6e657860448201527f697374656e7420746f6b656e00000000000000000000000000000000000000006064820152608401610622565b6119ef8282611db2565b5050565b600080546001600160a01b0383811673ffffffffffffffffffffffffffffffffffffffff19831681178455604051919092169283917f8be0079c531659141344cd1fd0a4f28419497f9722a3daafe3b4186f6b6457e09190a35050565b60006001600160a01b038216611ace5760405162461bcd60e51b815260206004820152602260248201527f526f6c65733a206163636f756e7420697320746865207a65726f20616464726560448201527f73730000000000000000000000000000000000000000000000000000000000006064820152608401610622565b506001600160a01b03166000908152602091909152604090205460ff1690565b80516119ef9060079060208401906129f7565b80516119ef9060089060208401906129f7565b611b1f848484611648565b611b2b84848484611dd1565b6110d25760405162461bcd60e51b815260206004820152603260248201527f4552433732313a207472616e7366657220746f206e6f6e20455243373231526560448201527f63656976657220696d706c656d656e74657200000000000000000000000000006064820152608401610622565b60008181526009602052604090208054606091610c9b91611bbd90613066565b80601f0160208091040260200160405190810160405280929190818152602001828054611be990613066565b8015611c365780601f10611c0b57610100808354040283529160200191611c36565b820191906000526020600020905b815481529060010190602001808311611c1957829003601f168201915b505050505060088054611c4890613066565b80601f0160208091040260200160405190810160405280929190818152602001828054611c7490613066565b8015611cc15780601f10611c9657610100808354040283529160200191611cc1565b820191906000526020600020905b815481529060010190602001808311611ca457829003601f168201915b5050505050611fc990919063ffffffff16565b611cdf60018261217a565b6040516001600160a01b038216907f3525e22824a8a7df2c9a6029941c824cf95b6447f1e13d5128fd3826d35afe8b90600090a250565b611d216001826114c8565b6040516001600160a01b038216907f47d1c22a25bb3a5d4e481b9b1e6944c2eade3181a0a20b495ed61d35b5323f2490600090a250565b6040517f19457468657265756d205369676e6564204d6573736167653a0a3332000000006020820152603c8101829052600090605c0161091e565b6109c3838383612218565b6119ef828261226d565b6119ef8282612280565b600082815260096020908152604090912082516109c3928401906129f7565b60006001600160a01b0384163b611dea575060016114c0565b6000806001600160a01b0386167f150b7a020000000000000000000000000000000000000000000000000000000033898888604051602401611e2f9493929190613170565b60408051601f198184030181529181526020820180517bffffffffffffffffffffffffffffffffffffffffffffffffffffffff167fffffffff00000000000000000000000000000000000000000000000000000000909416939093179092529051611e9a91906131ac565b6000604051808303816000865af19150503d8060008114611ed7576040519150601f19603f3d011682016040523d82523d6000602084013e611edc565b606091505b509150915081611f6457805115611ef65780518082602001fd5b60405162461bcd60e51b815260206004820152603260248201527f4552433732313a207472616e7366657220746f206e6f6e20455243373231526560448201527f63656976657220696d706c656d656e74657200000000000000000000000000006064820152608401610622565b600081806020019051810190611f7a91906131c8565b7fffffffff00000000000000000000000000000000000000000000000000000000167f150b7a02000000000000000000000000000000000000000000000000000000001493506114c092505050565b8051825160609184918491600091611fe191906131e5565b67ffffffffffffffff811115611ff957611ff9612c9d565b6040519080825280601f01601f191660200182016040528015612023576020820181803683370190505b5090506000805b84518110156120ca57848181518110612045576120456130a1565b01602001517fff00000000000000000000000000000000000000000000000000000000000000168383612077816130cd565b945081518110612089576120896130a1565b60200101907effffffffffffffffffffffffffffffffffffffffffffffffffffffffffffff1916908160001a905350806120c2816130cd565b91505061202a565b5060005b835181101561216e578381815181106120e9576120e96130a1565b01602001517fff0000000000000000000000000000000000000000000000000000000000000016838361211b816130cd565b94508151811061212d5761212d6130a1565b60200101907effffffffffffffffffffffffffffffffffffffffffffffffffffffffffffff1916908160001a90535080612166816130cd565b9150506120ce565b50909695505050505050565b6121848282611a50565b6121f65760405162461bcd60e51b815260206004820152602160248201527f526f6c65733a206163636f756e7420646f6573206e6f74206861766520726f6c60448201527f65000000000000000000000000000000000000000000000000000000000000006064820152608401610622565b6001600160a01b0316600090815260209190915260409020805460ff19169055565b61222383838361228a565b61222d8382612448565b6001600160a01b03919091166000908152600a602081815260408084208054868652600b8452918520829055928252600181018355918352909120015550565b6122778282612557565b6119ef81612583565b6119ef82826125ba565b826001600160a01b031661229d82610c10565b6001600160a01b0316146123195760405162461bcd60e51b815260206004820152602960248201527f4552433732313a207472616e73666572206f6620746f6b656e2074686174206960448201527f73206e6f74206f776e00000000000000000000000000000000000000000000006064820152608401610622565b6001600160a01b0382166123945760405162461bcd60e51b8152602060048201526024808201527f4552433732313a207472616e7366657220746f20746865207a65726f2061646460448201527f72657373000000000000000000000000000000000000000000000000000000006064820152608401610622565b61239d8161263f565b6001600160a01b03831660009081526005602052604090206123be90612687565b6001600160a01b03821660009081526005602052604090206123df90612698565b600081815260036020526040808220805473ffffffffffffffffffffffffffffffffffffffff19166001600160a01b0386811691821790925591518493918716917fddf252ad1be2c89b69c2b068fc378daa952ba7f163c4a11628f55a4df523b3ef91a4505050565b6001600160a01b0382166000908152600a602052604081205461246d906001906131fd565b6000838152600b6020526040902054909150808214612514576001600160a01b0384166000908152600a602052604081208054849081106124b0576124b06130a1565b9060005260206000200154905080600a6000876001600160a01b03166001600160a01b0316815260200190815260200160002083815481106124f4576124f46130a1565b6000918252602080832090910192909255918252600b9052604090208190555b6001600160a01b0384166000908152600a6020526040902080548061253b5761253b613214565b6001900381819060005260206000200160009055905550505050565b61256182826126b5565b61256b8282612448565b6000818152600b60205260408120556119ef816127d0565b6000818152600960205260409020805461259c90613066565b159050610b23576000818152600960205260408120610b2391612a7b565b6125c48282612891565b6001600160a01b03919091166000908152600a602090815260408083208054858552600b84528285208190556001808201835591855283852001859055600c8054868652600d909452918420839055820181559091527fdf6966c971051c3d54ec59162606531493a51404a002842f56009d7e5cf4a8c70155565b6000818152600460205260409020546001600160a01b031615610b23576000908152600460205260409020805473ffffffffffffffffffffffffffffffffffffffff19169055565b80546126949060016129d4565b9055565b60018160000160008282546126ad91906131e5565b909155505050565b816001600160a01b03166126c882610c10565b6001600160a01b0316146127445760405162461bcd60e51b815260206004820152602560248201527f4552433732313a206275726e206f6620746f6b656e2074686174206973206e6f60448201527f74206f776e0000000000000000000000000000000000000000000000000000006064820152608401610622565b61274d8161263f565b6001600160a01b038216600090815260056020526040902061276e90612687565b600081815260036020526040808220805473ffffffffffffffffffffffffffffffffffffffff19169055518291906001600160a01b038516907fddf252ad1be2c89b69c2b068fc378daa952ba7f163c4a11628f55a4df523b3ef908390a45050565b600c546000906127e2906001906131fd565b6000838152600d6020526040812054600c805493945090928490811061280a5761280a6130a1565b9060005260206000200154905080600c838154811061282b5761282b6130a1565b6000918252602080832090910192909255828152600d90915260409020829055600c80548061285c5761285c613214565b600190038181906000526020600020016000905590556000600d60008681526020019081526020016000208190555050505050565b6001600160a01b0382166128e75760405162461bcd60e51b815260206004820181905260248201527f4552433732313a206d696e7420746f20746865207a65726f20616464726573736044820152606401610622565b6000818152600360205260409020546001600160a01b03161561294c5760405162461bcd60e51b815260206004820152601c60248201527f4552433732313a20746f6b656e20616c7265616479206d696e746564000000006044820152606401610622565b6000818152600360209081526040808320805473ffffffffffffffffffffffffffffffffffffffff19166001600160a01b03871690811790915583526005909152902061299890612698565b60405181906001600160a01b038416906000907fddf252ad1be2c89b69c2b068fc378daa952ba7f163c4a11628f55a4df523b3ef908290a45050565b6000828211156129e6576129e661322a565b6129f082846131fd565b9392505050565b828054612a0390613066565b90600052602060002090601f016020900481019282612a255760008555612a6b565b82601f10612a3e57805160ff1916838001178555612a6b565b82800160010185558215612a6b579182015b82811115612a6b578251825591602001919060010190612a50565b50612a77929150612ab1565b5090565b508054612a8790613066565b6000825580601f10612a97575050565b601f016020900490600052602060002090810190610b2391905b5b80821115612a775760008155600101612ab2565b7fffffffff0000000000000000000000000000000000000000000000000000000081168114610b2357600080fd5b600060208284031215612b0657600080fd5b81356129f081612ac6565b60005b83811015612b2c578181015183820152602001612b14565b838111156110d25750506000910152565b60008151808452612b55816020860160208601612b11565b601f01601f19169290920160200192915050565b6020815260006129f06020830184612b3d565b600060208284031215612b8e57600080fd5b5035919050565b6001600160a01b0381168114610b2357600080fd5b60008060408385031215612bbd57600080fd5b8235612bc881612b95565b946020939093013593505050565b600081518084526020808501945080840160005b83811015612c0657815187529582019590820190600101612bea565b509495945050505050565b6020815260006129f06020830184612bd6565b600080600060608486031215612c3957600080fd5b8335612c4481612b95565b92506020840135612c5481612b95565b929592945050506040919091013590565b60008060408385031215612c7857600080fd5b50508035926020909101359150565b803560ff81168114612c9857600080fd5b919050565b634e487b7160e01b600052604160045260246000fd5b6040805190810167ffffffffffffffff81118282101715612cd657612cd6612c9d565b60405290565b604051601f8201601f1916810167ffffffffffffffff81118282101715612d0557612d05612c9d565b604052919050565b600067ffffffffffffffff831115612d2757612d27612c9d565b612d3a6020601f19601f86011601612cdc565b9050828152838383011115612d4e57600080fd5b828260208301376000602084830101529392505050565b600082601f830112612d7657600080fd5b6129f083833560208501612d0d565b60008060008060008060c08789031215612d9e57600080fd5b863595506020612daf818901612c87565b95506040880135945060608801359350608088013567ffffffffffffffff80821115612dda57600080fd5b818a0191508a601f830112612dee57600080fd5b813581811115612e0057612e00612c9d565b612e0e848260051b01612cdc565b81815260069190911b8301840190848101908d831115612e2d57600080fd5b938501935b82851015612e79576040858f031215612e4b5760008081fd5b612e53612cb3565b8535612e5e81612b95565b81528587013587820152825260409094019390850190612e32565b9650505060a08a0135925080831115612e9157600080fd5b5050612e9f89828a01612d65565b9150509295509295509295565b600060208284031215612ebe57600080fd5b81356129f081612b95565b600060208284031215612edb57600080fd5b813567ffffffffffffffff811115612ef257600080fd5b6114c084828501612d65565b60008060408385031215612f1157600080fd5b8235612f1c81612b95565b915060208301358015158114612f3157600080fd5b809150509250929050565b60008060008060808587031215612f5257600080fd5b8435612f5d81612b95565b93506020850135612f6d81612b95565b925060408501359150606085013567ffffffffffffffff811115612f9057600080fd5b8501601f81018713612fa157600080fd5b612fb087823560208401612d0d565b91505092959194509250565b6020808252825182820181905260009190848201906040850190845b8181101561216e5783516001600160a01b031683529284019291840191600101612fd8565b6000806040838503121561301057600080fd5b823561301b81612b95565b91506020830135612f3181612b95565b6000806000806080858703121561304157600080fd5b8435935061305160208601612c87565b93969395505050506040820135916060013590565b600181811c9082168061307a57607f821691505b6020821081141561309b57634e487b7160e01b600052602260045260246000fd5b50919050565b634e487b7160e01b600052603260045260246000fd5b634e487b7160e01b600052601160045260246000fd5b60007fffffffffffffffffffffffffffffffffffffffffffffffffffffffffffffffff8214156130ff576130ff6130b7565b5060010190565b6000606082018583526020606081850152818651808452608086019150828801935060005b818110156131505784516001600160a01b03168352938301939183019160010161312b565b505084810360408601526131648187612bd6565b98975050505050505050565b60006001600160a01b038087168352808616602084015250836040830152608060608301526131a26080830184612b3d565b9695505050505050565b600082516131be818460208701612b11565b9190910192915050565b6000602082840312156131da57600080fd5b81516129f081612ac6565b600082198211156131f8576131f86130b7565b500190565b60008282101561320f5761320f6130b7565b500390565b634e487b7160e01b600052603160045260246000fd5b634e487b7160e01b600052600160045260246000fdfea2646970667358221220c3cf1b62c6982e19059645223c495896ebdde442dfbcce489c2923bea22b7e2d64736f6c63430008090033",
  "devdoc": {
    "details": "anyone can mint token.",
    "kind": "dev",
    "methods": {
      "approve(address,uint256)": {
        "details": "Approves another address to transfer the given token ID The zero address indicates there is no approved address. There can only be one approved address per token at a given time. Can only be called by the token owner or an approved operator.",
        "params": {
          "to": "address to be approved for the given token ID",
          "tokenId": "uint256 ID of the token to be approved"
        }
      },
      "balanceOf(address)": {
        "details": "Gets the balance of the specified address.",
        "params": {
          "owner": "address to query the balance of"
        },
        "returns": {
          "_0": "uint256 representing the amount owned by the passed address"
        }
      },
      "burn(uint256)": {
        "details": "Burns a specific ERC721 token.",
        "params": {
          "tokenId": "uint256 id of the ERC721 token to be burned."
        }
      },
      "getApproved(uint256)": {
        "details": "Gets the approved address for a token ID, or zero if no address set Reverts if the token ID does not exist.",
        "params": {
          "tokenId": "uint256 ID of the token to query the approval of"
        },
        "returns": {
          "_0": "address currently approved for the given token ID"
        }
      },
      "isApprovedForAll(address,address)": {
        "details": "Tells whether an operator is approved by a given owner.",
        "params": {
          "operator": "operator address which you want to query the approval of",
          "owner": "owner address which you want to query the approval of"
        },
        "returns": {
          "_0": "bool whether the given operator is approved by the given owner"
        }
      },
      "owner()": {
        "details": "Returns the address of the current owner."
      },
      "ownerOf(uint256)": {
        "details": "Gets the owner of the specified token ID.",
        "params": {
          "tokenId": "uint256 ID of the token to query the owner of"
        },
        "returns": {
          "_0": "address currently marked as the owner of the given token ID"
        }
      },
      "renounceOwnership()": {
        "details": "Leaves the contract without owner. It will not be possible to call `onlyOwner` functions anymore. Can only be called by the current owner. NOTE: Renouncing ownership will leave the contract without an owner, thereby removing any functionality that is only available to the owner."
      },
      "safeTransferFrom(address,address,uint256)": {
        "details": "Safely transfers the ownership of a given token ID to another address If the target address is a contract, it must implement {IERC721Receiver-onERC721Received}, which is called upon a safe transfer, and return the magic value `bytes4(keccak256(\"onERC721Received(address,address,uint256,bytes)\"))`; otherwise, the transfer is reverted. Requires the msg.sender to be the owner, approved, or operator",
        "params": {
          "from": "current owner of the token",
          "to": "address to receive the ownership of the given token ID",
          "tokenId": "uint256 ID of the token to be transferred"
        }
      },
      "safeTransferFrom(address,address,uint256,bytes)": {
        "details": "Safely transfers the ownership of a given token ID to another address If the target address is a contract, it must implement {IERC721Receiver-onERC721Received}, which is called upon a safe transfer, and return the magic value `bytes4(keccak256(\"onERC721Received(address,address,uint256,bytes)\"))`; otherwise, the transfer is reverted. Requires the _msgSender() to be the owner, approved, or operator",
        "params": {
          "_data": "bytes data to send along with a safe transfer check",
          "from": "current owner of the token",
          "to": "address to receive the ownership of the given token ID",
          "tokenId": "uint256 ID of the token to be transferred"
        }
      },
      "setApprovalForAll(address,bool)": {
        "details": "Sets or unsets the approval of a given operator An operator is allowed to transfer all tokens of the sender on their behalf.",
        "params": {
          "approved": "representing the status of the approval to be set",
          "to": "operator address to set the approval"
        }
      },
      "supportsInterface(bytes4)": {
        "details": "See {IERC165-supportsInterface}. Time complexity O(1), guaranteed to always use less than 30 000 gas."
      },
      "tokenByIndex(uint256)": {
        "details": "Gets the token ID at a given index of all the tokens in this contract Reverts if the index is greater or equal to the total number of tokens.",
        "params": {
          "index": "uint256 representing the index to be accessed of the tokens list"
        },
        "returns": {
          "_0": "uint256 token ID at the given index of the tokens list"
        }
      },
      "tokenOfOwnerByIndex(address,uint256)": {
        "details": "Gets the token ID at a given index of the tokens list of the requested owner.",
        "params": {
          "index": "uint256 representing the index to be accessed of the requested tokens list",
          "owner": "address owning the tokens list to be accessed"
        },
        "returns": {
          "_0": "uint256 token ID at the given index of the tokens list owned by the requested address"
        }
      },
      "tokenURI(uint256)": {
        "details": "Returns an URI for a given token ID. Throws if the token ID does not exist. May return an empty string.",
        "params": {
          "tokenId": "uint256 ID of the token to query"
        }
      },
      "totalSupply()": {
        "details": "Gets the total amount of tokens stored by the contract.",
        "returns": {
          "_0": "uint256 representing the total amount of tokens"
        }
      },
      "transferFrom(address,address,uint256)": {
        "details": "Transfers the ownership of a given token ID to another address. Usage of this method is discouraged, use {safeTransferFrom} whenever possible. Requires the msg.sender to be the owner, approved, or operator.",
        "params": {
          "from": "current owner of the token",
          "to": "address to receive the ownership of the given token ID",
          "tokenId": "uint256 ID of the token to be transferred"
        }
      },
      "transferOwnership(address)": {
        "details": "Transfers ownership of the contract to a new account (`newOwner`). Can only be called by the current owner."
      }
    },
    "title": "ERC721EMUSK",
    "version": 1
  },
  "userdoc": {
    "kind": "user",
    "methods": {},
    "version": 1
  },
  "storageLayout": {
    "storage": [
      {
        "astId": 2052,
        "contract": "src/GeniusNF.sol:GeniusNFT",
        "label": "_owner",
        "offset": 0,
        "slot": "0",
        "type": "t_address"
      },
      {
        "astId": 2286,
        "contract": "src/GeniusNF.sol:GeniusNFT",
        "label": "_signers",
        "offset": 0,
        "slot": "1",
        "type": "t_struct(Role)3235_storage"
      },
      {
        "astId": 6839,
        "contract": "src/GeniusNF.sol:GeniusNFT",
        "label": "_supportedInterfaces",
        "offset": 0,
        "slot": "2",
        "type": "t_mapping(t_bytes4,t_bool)"
      },
      {
        "astId": 5355,
        "contract": "src/GeniusNF.sol:GeniusNFT",
        "label": "_tokenOwner",
        "offset": 0,
        "slot": "3",
        "type": "t_mapping(t_uint256,t_address)"
      },
      {
        "astId": 5359,
        "contract": "src/GeniusNF.sol:GeniusNFT",
        "label": "_tokenApprovals",
        "offset": 0,
        "slot": "4",
        "type": "t_mapping(t_uint256,t_address)"
      },
      {
        "astId": 5364,
        "contract": "src/GeniusNF.sol:GeniusNFT",
        "label": "_ownedTokensCount",
        "offset": 0,
        "slot": "5",
        "type": "t_mapping(t_address,t_struct(Counter)3184_storage)"
      },
      {
        "astId": 5370,
        "contract": "src/GeniusNF.sol:GeniusNFT",
        "label": "_operatorApprovals",
        "offset": 0,
        "slot": "6",
        "type": "t_mapping(t_address,t_mapping(t_address,t_bool))"
      },
      {
        "astId": 6888,
        "contract": "src/GeniusNF.sol:GeniusNFT",
        "label": "contractURI",
        "offset": 0,
        "slot": "7",
        "type": "t_string_storage"
      },
      {
        "astId": 6968,
        "contract": "src/GeniusNF.sol:GeniusNFT",
        "label": "tokenURIPrefix",
        "offset": 0,
        "slot": "8",
        "type": "t_string_storage"
      },
      {
        "astId": 6972,
        "contract": "src/GeniusNF.sol:GeniusNFT",
        "label": "_tokenURIs",
        "offset": 0,
        "slot": "9",
        "type": "t_mapping(t_uint256,t_string_storage)"
      },
      {
        "astId": 6488,
        "contract": "src/GeniusNF.sol:GeniusNFT",
        "label": "_ownedTokens",
        "offset": 0,
        "slot": "10",
        "type": "t_mapping(t_address,t_array(t_uint256)dyn_storage)"
      },
      {
        "astId": 6492,
        "contract": "src/GeniusNF.sol:GeniusNFT",
        "label": "_ownedTokensIndex",
        "offset": 0,
        "slot": "11",
        "type": "t_mapping(t_uint256,t_uint256)"
      },
      {
        "astId": 6495,
        "contract": "src/GeniusNF.sol:GeniusNFT",
        "label": "_allTokens",
        "offset": 0,
        "slot": "12",
        "type": "t_array(t_uint256)dyn_storage"
      },
      {
        "astId": 6499,
        "contract": "src/GeniusNF.sol:GeniusNFT",
        "label": "_allTokensIndex",
        "offset": 0,
        "slot": "13",
        "type": "t_mapping(t_uint256,t_uint256)"
      },
      {
        "astId": 6057,
        "contract": "src/GeniusNF.sol:GeniusNFT",
        "label": "name",
        "offset": 0,
        "slot": "14",
        "type": "t_string_storage"
      },
      {
        "astId": 6059,
        "contract": "src/GeniusNF.sol:GeniusNFT",
        "label": "symbol",
        "offset": 0,
        "slot": "15",
        "type": "t_string_storage"
      },
      {
        "astId": 6070,
        "contract": "src/GeniusNF.sol:GeniusNFT",
        "label": "fees",
        "offset": 0,
        "slot": "16",
        "type": "t_mapping(t_uint256,t_array(t_struct(Fee)6064_storage)dyn_storage)"
      }
    ],
    "types": {
      "t_address": {
        "encoding": "inplace",
        "label": "address",
        "numberOfBytes": "20"
      },
      "t_address_payable": {
        "encoding": "inplace",
        "label": "address payable",
        "numberOfBytes": "20"
      },
      "t_array(t_struct(Fee)6064_storage)dyn_storage": {
        "base": "t_struct(Fee)6064_storage",
        "encoding": "dynamic_array",
        "label": "struct ERC721Base.Fee[]",
        "numberOfBytes": "32"
      },
      "t_array(t_uint256)dyn_storage": {
        "base": "t_uint256",
        "encoding": "dynamic_array",
        "label": "uint256[]",
        "numberOfBytes": "32"
      },
      "t_bool": {
        "encoding": "inplace",
        "label": "bool",
        "numberOfBytes": "1"
      },
      "t_bytes4": {
        "encoding": "inplace",
        "label": "bytes4",
        "numberOfBytes": "4"
      },
      "t_mapping(t_address,t_array(t_uint256)dyn_storage)": {
        "encoding": "mapping",
        "key": "t_address",
        "label": "mapping(address => uint256[])",
        "numberOfBytes": "32",
        "value": "t_array(t_uint256)dyn_storage"
      },
      "t_mapping(t_address,t_bool)": {
        "encoding": "mapping",
        "key": "t_address",
        "label": "mapping(address => bool)",
        "numberOfBytes": "32",
        "value": "t_bool"
      },
      "t_mapping(t_address,t_mapping(t_address,t_bool))": {
        "encoding": "mapping",
        "key": "t_address",
        "label": "mapping(address => mapping(address => bool))",
        "numberOfBytes": "32",
        "value": "t_mapping(t_address,t_bool)"
      },
      "t_mapping(t_address,t_struct(Counter)3184_storage)": {
        "encoding": "mapping",
        "key": "t_address",
        "label": "mapping(address => struct Counters.Counter)",
        "numberOfBytes": "32",
        "value": "t_struct(Counter)3184_storage"
      },
      "t_mapping(t_bytes4,t_bool)": {
        "encoding": "mapping",
        "key": "t_bytes4",
        "label": "mapping(bytes4 => bool)",
        "numberOfBytes": "32",
        "value": "t_bool"
      },
      "t_mapping(t_uint256,t_address)": {
        "encoding": "mapping",
        "key": "t_uint256",
        "label": "mapping(uint256 => address)",
        "numberOfBytes": "32",
        "value": "t_address"
      },
      "t_mapping(t_uint256,t_array(t_struct(Fee)6064_storage)dyn_storage)": {
        "encoding": "mapping",
        "key": "t_uint256",
        "label": "mapping(uint256 => struct ERC721Base.Fee[])",
        "numberOfBytes": "32",
        "value": "t_array(t_struct(Fee)6064_storage)dyn_storage"
      },
      "t_mapping(t_uint256,t_string_storage)": {
        "encoding": "mapping",
        "key": "t_uint256",
        "label": "mapping(uint256 => string)",
        "numberOfBytes": "32",
        "value": "t_string_storage"
      },
      "t_mapping(t_uint256,t_uint256)": {
        "encoding": "mapping",
        "key": "t_uint256",
        "label": "mapping(uint256 => uint256)",
        "numberOfBytes": "32",
        "value": "t_uint256"
      },
      "t_string_storage": {
        "encoding": "bytes",
        "label": "string",
        "numberOfBytes": "32"
      },
      "t_struct(Counter)3184_storage": {
        "encoding": "inplace",
        "label": "struct Counters.Counter",
        "members": [
          {
            "astId": 3183,
            "contract": "src/GeniusNF.sol:GeniusNFT",
            "label": "_value",
            "offset": 0,
            "slot": "0",
            "type": "t_uint256"
          }
        ],
        "numberOfBytes": "32"
      },
      "t_struct(Fee)6064_storage": {
        "encoding": "inplace",
        "label": "struct ERC721Base.Fee",
        "members": [
          {
            "astId": 6061,
            "contract": "src/GeniusNF.sol:GeniusNFT",
            "label": "recipient",
            "offset": 0,
            "slot": "0",
            "type": "t_address_payable"
          },
          {
            "astId": 6063,
            "contract": "src/GeniusNF.sol:GeniusNFT",
            "label": "value",
            "offset": 0,
            "slot": "1",
            "type": "t_uint256"
          }
        ],
        "numberOfBytes": "64"
      },
      "t_struct(Role)3235_storage": {
        "encoding": "inplace",
        "label": "struct Roles.Role",
        "members": [
          {
            "astId": 3234,
            "contract": "src/GeniusNF.sol:GeniusNFT",
            "label": "bearer",
            "offset": 0,
            "slot": "0",
            "type": "t_mapping(t_address,t_bool)"
          }
        ],
        "numberOfBytes": "32"
      },
      "t_uint256": {
        "encoding": "inplace",
        "label": "uint256",
        "numberOfBytes": "32"
      }
    }
  }
}