{
  "address": "0x28837eC2829AE2EF190536D2375141220d9f586C",
  "abi": [
    {
      "inputs": [],
      "stateMutability": "nonpayable",
      "type": "constructor"
    },
    {
      "inputs": [
        {
          "internalType": "address[]",
          "name": "to",
          "type": "address[]"
        },
        {
          "internalType": "address",
          "name": "collection",
          "type": "address"
        },
        {
          "internalType": "uint256",
          "name": "id",
          "type": "uint256"
        },
        {
          "internalType": "uint256",
          "name": "amount",
          "type": "uint256"
        }
      ],
      "name": "multiSend",
      "outputs": [],
      "stateMutability": "nonpayable",
      "type": "function"
    },
    {
      "inputs": [
        {
          "internalType": "address",
          "name": "",
          "type": "address"
        },
        {
          "internalType": "address",
          "name": "",
          "type": "address"
        },
        {
          "internalType": "uint256[]",
          "name": "",
          "type": "uint256[]"
        },
        {
          "internalType": "uint256[]",
          "name": "",
          "type": "uint256[]"
        },
        {
          "internalType": "bytes",
          "name": "",
          "type": "bytes"
        }
      ],
      "name": "onERC1155BatchReceived",
      "outputs": [
        {
          "internalType": "bytes4",
          "name": "",
          "type": "bytes4"
        }
      ],
      "stateMutability": "nonpayable",
      "type": "function"
    },
    {
      "inputs": [
        {
          "internalType": "address",
          "name": "",
          "type": "address"
        },
        {
          "internalType": "address",
          "name": "",
          "type": "address"
        },
        {
          "internalType": "uint256",
          "name": "",
          "type": "uint256"
        },
        {
          "internalType": "uint256",
          "name": "",
          "type": "uint256"
        },
        {
          "internalType": "bytes",
          "name": "",
          "type": "bytes"
        }
      ],
      "name": "onERC1155Received",
      "outputs": [
        {
          "internalType": "bytes4",
          "name": "",
          "type": "bytes4"
        }
      ],
      "stateMutability": "nonpayable",
      "type": "function"
    },
    {
      "inputs": [
        {
          "internalType": "bytes4",
          "name": "interfaceId",
          "type": "bytes4"
        }
      ],
      "name": "supportsInterface",
      "outputs": [
        {
          "internalType": "bool",
          "name": "",
          "type": "bool"
        }
      ],
      "stateMutability": "view",
      "type": "function"
    },
    {
      "stateMutability": "payable",
      "type": "receive"
    }
  ],
  "transactionHash": "0x9f12b22651a95f628a14a1e72fdf0e8fdf7acf5dcb4e5380fc4fdab4ff3e5526",
  "args": [],
  "solcInputHash": "9f7ef5259f92d242b64c8ac143025c34",
  "bytecode": "0x608060405234801561001057600080fd5b506107a7806100206000396000f3fe6080604052600436106100435760003560e01c806301ffc9a714610052578063b6742b9514610087578063bc197c81146100a9578063f23a6e611461011f57600080fd5b3661004d57600080fd5b600080fd5b34801561005e57600080fd5b5061007261006d366004610393565b610164565b60405190151581526020015b60405180910390f35b34801561009357600080fd5b506100a76100a2366004610470565b6101fd565b005b3480156100b557600080fd5b506100ee6100c4366004610605565b7fbc197c810000000000000000000000000000000000000000000000000000000095945050505050565b6040517fffffffff00000000000000000000000000000000000000000000000000000000909116815260200161007e565b34801561012b57600080fd5b506100ee61013a3660046106af565b7ff23a6e610000000000000000000000000000000000000000000000000000000095945050505050565b60007fffffffff0000000000000000000000000000000000000000000000000000000082167f4e2312e00000000000000000000000000000000000000000000000000000000014806101f757507f01ffc9a7000000000000000000000000000000000000000000000000000000007fffffffff000000000000000000000000000000000000000000000000000000008316145b92915050565b600084511161026c576040517f08c379a000000000000000000000000000000000000000000000000000000000815260206004820152601260248201527f696e76616c696420746f20616464726573730000000000000000000000000000604482015260640160405180910390fd5b60005b845181101561038c578373ffffffffffffffffffffffffffffffffffffffff1663f242432a338784815181106102a7576102a7610714565b60209081029190910101516040517fffffffff0000000000000000000000000000000000000000000000000000000060e085901b16815273ffffffffffffffffffffffffffffffffffffffff928316600482015291166024820152604481018690526064810185905260a06084820152600a60a48201527f6d756c74692073656e640000000000000000000000000000000000000000000060c482015260e401600060405180830381600087803b15801561036157600080fd5b505af1158015610375573d6000803e3d6000fd5b5050505080806103849061072a565b91505061026f565b5050505050565b6000602082840312156103a557600080fd5b81357fffffffff00000000000000000000000000000000000000000000000000000000811681146103d557600080fd5b9392505050565b634e487b7160e01b600052604160045260246000fd5b604051601f8201601f1916810167ffffffffffffffff8111828210171561041b5761041b6103dc565b604052919050565b600067ffffffffffffffff82111561043d5761043d6103dc565b5060051b60200190565b803573ffffffffffffffffffffffffffffffffffffffff8116811461046b57600080fd5b919050565b6000806000806080858703121561048657600080fd5b843567ffffffffffffffff81111561049d57600080fd5b8501601f810187136104ae57600080fd5b803560206104c36104be83610423565b6103f2565b82815260059290921b8301810191818101908a8411156104e257600080fd5b938201935b83851015610507576104f885610447565b825293820193908201906104e7565b97506105169050888201610447565b9699969850505050604085013594606001359392505050565b600082601f83011261054057600080fd5b813560206105506104be83610423565b82815260059290921b8401810191818101908684111561056f57600080fd5b8286015b8481101561058a5780358352918301918301610573565b509695505050505050565b600082601f8301126105a657600080fd5b813567ffffffffffffffff8111156105c0576105c06103dc565b6105d36020601f19601f840116016103f2565b8181528460208386010111156105e857600080fd5b816020850160208301376000918101602001919091529392505050565b600080600080600060a0868803121561061d57600080fd5b61062686610447565b945061063460208701610447565b9350604086013567ffffffffffffffff8082111561065157600080fd5b61065d89838a0161052f565b9450606088013591508082111561067357600080fd5b61067f89838a0161052f565b9350608088013591508082111561069557600080fd5b506106a288828901610595565b9150509295509295909350565b600080600080600060a086880312156106c757600080fd5b6106d086610447565b94506106de60208701610447565b93506040860135925060608601359150608086013567ffffffffffffffff81111561070857600080fd5b6106a288828901610595565b634e487b7160e01b600052603260045260246000fd5b60007fffffffffffffffffffffffffffffffffffffffffffffffffffffffffffffffff82141561076a57634e487b7160e01b600052601160045260246000fd5b506001019056fea26469706673582212205c9c8b9c834496542bc867a3a6e36735838e093008fa90947c951f741990de8864736f6c63430008090033",
  "devdoc": {
    "kind": "dev",
    "methods": {
      "supportsInterface(bytes4)": {
        "details": "See {IERC165-supportsInterface}."
      }
    },
    "version": 1
  },
  "userdoc": {
    "kind": "user",
    "methods": {
      "multiSend(address[],address,uint256,uint256)": {
        "notice": "Multi sender"
      }
    },
    "version": 1
  },
  "storageLayout": {
    "storage": [],
    "types": null
  }
}