{
  "address": "0xf5C440f9B9E945236e64809A3c412679FC19c474",
  "abi": [
    {
      "inputs": [
        {
          "internalType": "string",
          "name": "_name",
          "type": "string"
        },
        {
          "internalType": "string",
          "name": "_symbol",
          "type": "string"
        },
        {
          "internalType": "address",
          "name": "signer",
          "type": "address"
        },
        {
          "internalType": "string",
          "name": "contractURI",
          "type": "string"
        },
        {
          "internalType": "string",
          "name": "tokenURIPrefix",
          "type": "string"
        }
      ],
      "stateMutability": "nonpayable",
      "type": "constructor"
    },
    {
      "anonymous": false,
      "inputs": [
        {
          "indexed": true,
          "internalType": "address",
          "name": "owner",
          "type": "address"
        },
        {
          "indexed": true,
          "internalType": "address",
          "name": "approved",
          "type": "address"
        },
        {
          "indexed": true,
          "internalType": "uint256",
          "name": "tokenId",
          "type": "uint256"
        }
      ],
      "name": "Approval",
      "type": "event"
    },
    {
      "anonymous": false,
      "inputs": [
        {
          "indexed": true,
          "internalType": "address",
          "name": "owner",
          "type": "address"
        },
        {
          "indexed": true,
          "internalType": "address",
          "name": "operator",
          "type": "address"
        },
        {
          "indexed": false,
          "internalType": "bool",
          "name": "approved",
          "type": "bool"
        }
      ],
      "name": "ApprovalForAll",
      "type": "event"
    },
    {
      "anonymous": false,
      "inputs": [
        {
          "indexed": true,
          "internalType": "address",
          "name": "previousOwner",
          "type": "address"
        },
        {
          "indexed": true,
          "internalType": "address",
          "name": "newOwner",
          "type": "address"
        }
      ],
      "name": "OwnershipTransferred",
      "type": "event"
    },
    {
      "anonymous": false,
      "inputs": [
        {
          "indexed": false,
          "internalType": "uint256",
          "name": "tokenId",
          "type": "uint256"
        },
        {
          "indexed": false,
          "internalType": "address[]",
          "name": "recipients",
          "type": "address[]"
        },
        {
          "indexed": false,
          "internalType": "uint256[]",
          "name": "bps",
          "type": "uint256[]"
        }
      ],
      "name": "SecondarySaleFees",
      "type": "event"
    },
    {
      "anonymous": false,
      "inputs": [
        {
          "indexed": true,
          "internalType": "address",
          "name": "account",
          "type": "address"
        }
      ],
      "name": "SignerAdded",
      "type": "event"
    },
    {
      "anonymous": false,
      "inputs": [
        {
          "indexed": true,
          "internalType": "address",
          "name": "account",
          "type": "address"
        }
      ],
      "name": "SignerRemoved",
      "type": "event"
    },
    {
      "anonymous": false,
      "inputs": [
        {
          "indexed": true,
          "internalType": "address",
          "name": "from",
          "type": "address"
        },
        {
          "indexed": true,
          "internalType": "address",
          "name": "to",
          "type": "address"
        },
        {
          "indexed": true,
          "internalType": "uint256",
          "name": "tokenId",
          "type": "uint256"
        }
      ],
      "name": "Transfer",
      "type": "event"
    },
    {
      "inputs": [
        {
          "internalType": "address",
          "name": "account",
          "type": "address"
        }
      ],
      "name": "addSigner",
      "outputs": [],
      "stateMutability": "nonpayable",
      "type": "function"
    },
    {
      "inputs": [
        {
          "internalType": "address",
          "name": "to",
          "type": "address"
        },
        {
          "internalType": "uint256",
          "name": "tokenId",
          "type": "uint256"
        }
      ],
      "name": "approve",
      "outputs": [],
      "stateMutability": "nonpayable",
      "type": "function"
    },
    {
      "inputs": [
        {
          "internalType": "address",
          "name": "owner",
          "type": "address"
        }
      ],
      "name": "balanceOf",
      "outputs": [
        {
          "internalType": "uint256",
          "name": "",
          "type": "uint256"
        }
      ],
      "stateMutability": "view",
      "type": "function"
    },
    {
      "inputs": [
        {
          "internalType": "uint256",
          "name": "tokenId",
          "type": "uint256"
        }
      ],
      "name": "burn",
      "outputs": [],
      "stateMutability": "nonpayable",
      "type": "function"
    },
    {
      "inputs": [],
      "name": "contractURI",
      "outputs": [
        {
          "internalType": "string",
          "name": "",
          "type": "string"
        }
      ],
      "stateMutability": "view",
      "type": "function"
    },
    {
      "inputs": [
        {
          "internalType": "uint256",
          "name": "id",
          "type": "uint256"
        }
      ],
      "name": "encodePackedData",
      "outputs": [
        {
          "internalType": "bytes32",
          "name": "",
          "type": "bytes32"
        }
      ],
      "stateMutability": "view",
      "type": "function"
    },
    {
      "inputs": [
        {
          "internalType": "uint256",
          "name": "",
          "type": "uint256"
        },
        {
          "internalType": "uint256",
          "name": "",
          "type": "uint256"
        }
      ],
      "name": "fees",
      "outputs": [
        {
          "internalType": "address payable",
          "name": "recipient",
          "type": "address"
        },
        {
          "internalType": "uint256",
          "name": "value",
          "type": "uint256"
        }
      ],
      "stateMutability": "view",
      "type": "function"
    },
    {
      "inputs": [
        {
          "internalType": "uint256",
          "name": "tokenId",
          "type": "uint256"
        }
      ],
      "name": "getApproved",
      "outputs": [
        {
          "internalType": "address",
          "name": "",
          "type": "address"
        }
      ],
      "stateMutability": "view",
      "type": "function"
    },
    {
      "inputs": [
        {
          "internalType": "uint256",
          "name": "id",
          "type": "uint256"
        }
      ],
      "name": "getFeeBps",
      "outputs": [
        {
          "internalType": "uint256[]",
          "name": "",
          "type": "uint256[]"
        }
      ],
      "stateMutability": "view",
      "type": "function"
    },
    {
      "inputs": [
        {
          "internalType": "uint256",
          "name": "id",
          "type": "uint256"
        }
      ],
      "name": "getFeeRecipients",
      "outputs": [
        {
          "internalType": "address payable[]",
          "name": "",
          "type": "address[]"
        }
      ],
      "stateMutability": "view",
      "type": "function"
    },
    {
      "inputs": [
        {
          "internalType": "uint256",
          "name": "id",
          "type": "uint256"
        },
        {
          "internalType": "uint8",
          "name": "v",
          "type": "uint8"
        },
        {
          "internalType": "bytes32",
          "name": "r",
          "type": "bytes32"
        },
        {
          "internalType": "bytes32",
          "name": "s",
          "type": "bytes32"
        }
      ],
      "name": "getecrecover",
      "outputs": [
        {
          "internalType": "address",
          "name": "",
          "type": "address"
        }
      ],
      "stateMutability": "view",
      "type": "function"
    },
    {
      "inputs": [
        {
          "internalType": "address",
          "name": "owner",
          "type": "address"
        },
        {
          "internalType": "address",
          "name": "operator",
          "type": "address"
        }
      ],
      "name": "isApprovedForAll",
      "outputs": [
        {
          "internalType": "bool",
          "name": "",
          "type": "bool"
        }
      ],
      "stateMutability": "view",
      "type": "function"
    },
    {
      "inputs": [
        {
          "internalType": "address",
          "name": "account",
          "type": "address"
        }
      ],
      "name": "isSigner",
      "outputs": [
        {
          "internalType": "bool",
          "name": "",
          "type": "bool"
        }
      ],
      "stateMutability": "view",
      "type": "function"
    },
    {
      "inputs": [
        {
          "internalType": "uint256",
          "name": "tokenId",
          "type": "uint256"
        },
        {
          "internalType": "uint8",
          "name": "v",
          "type": "uint8"
        },
        {
          "internalType": "bytes32",
          "name": "r",
          "type": "bytes32"
        },
        {
          "internalType": "bytes32",
          "name": "s",
          "type": "bytes32"
        },
        {
          "components": [
            {
              "internalType": "address payable",
              "name": "recipient",
              "type": "address"
            },
            {
              "internalType": "uint256",
              "name": "value",
              "type": "uint256"
            }
          ],
          "internalType": "struct ERC721Base.Fee[]",
          "name": "_fees",
          "type": "tuple[]"
        },
        {
          "internalType": "string",
          "name": "_tokenURI",
          "type": "string"
        }
      ],
      "name": "mint",
      "outputs": [],
      "stateMutability": "nonpayable",
      "type": "function"
    },
    {
      "inputs": [],
      "name": "name",
      "outputs": [
        {
          "internalType": "string",
          "name": "",
          "type": "string"
        }
      ],
      "stateMutability": "view",
      "type": "function"
    },
    {
      "inputs": [],
      "name": "owner",
      "outputs": [
        {
          "internalType": "address",
          "name": "",
          "type": "address"
        }
      ],
      "stateMutability": "view",
      "type": "function"
    },
    {
      "inputs": [
        {
          "internalType": "uint256",
          "name": "tokenId",
          "type": "uint256"
        }
      ],
      "name": "ownerOf",
      "outputs": [
        {
          "internalType": "address",
          "name": "",
          "type": "address"
        }
      ],
      "stateMutability": "view",
      "type": "function"
    },
    {
      "inputs": [],
      "name": "renounceOwnership",
      "outputs": [],
      "stateMutability": "nonpayable",
      "type": "function"
    },
    {
      "inputs": [],
      "name": "renounceSigner",
      "outputs": [],
      "stateMutability": "nonpayable",
      "type": "function"
    },
    {
      "inputs": [
        {
          "internalType": "address",
          "name": "from",
          "type": "address"
        },
        {
          "internalType": "address",
          "name": "to",
          "type": "address"
        },
        {
          "internalType": "uint256",
          "name": "tokenId",
          "type": "uint256"
        }
      ],
      "name": "safeTransferFrom",
      "outputs": [],
      "stateMutability": "nonpayable",
      "type": "function"
    },
    {
      "inputs": [
        {
          "internalType": "address",
          "name": "from",
          "type": "address"
        },
        {
          "internalType": "address",
          "name": "to",
          "type": "address"
        },
        {
          "internalType": "uint256",
          "name": "tokenId",
          "type": "uint256"
        },
        {
          "internalType": "bytes",
          "name": "_data",
          "type": "bytes"
        }
      ],
      "name": "safeTransferFrom",
      "outputs": [],
      "stateMutability": "nonpayable",
      "type": "function"
    },
    {
      "inputs": [
        {
          "internalType": "address",
          "name": "to",
          "type": "address"
        },
        {
          "internalType": "bool",
          "name": "approved",
          "type": "bool"
        }
      ],
      "name": "setApprovalForAll",
      "outputs": [],
      "stateMutability": "nonpayable",
      "type": "function"
    },
    {
      "inputs": [
        {
          "internalType": "string",
          "name": "contractURI",
          "type": "string"
        }
      ],
      "name": "setContractURI",
      "outputs": [],
      "stateMutability": "nonpayable",
      "type": "function"
    },
    {
      "inputs": [
        {
          "internalType": "uint256",
          "name": "timestamp",
          "type": "uint256"
        }
      ],
      "name": "setEndTime",
      "outputs": [],
      "stateMutability": "nonpayable",
      "type": "function"
    },
    {
      "inputs": [
        {
          "internalType": "string",
          "name": "tokenURIPrefix",
          "type": "string"
        }
      ],
      "name": "setTokenURIPrefix",
      "outputs": [],
      "stateMutability": "nonpayable",
      "type": "function"
    },
    {
      "inputs": [
        {
          "internalType": "bytes4",
          "name": "interfaceId",
          "type": "bytes4"
        }
      ],
      "name": "supportsInterface",
      "outputs": [
        {
          "internalType": "bool",
          "name": "",
          "type": "bool"
        }
      ],
      "stateMutability": "view",
      "type": "function"
    },
    {
      "inputs": [],
      "name": "symbol",
      "outputs": [
        {
          "internalType": "string",
          "name": "",
          "type": "string"
        }
      ],
      "stateMutability": "view",
      "type": "function"
    },
    {
      "inputs": [
        {
          "internalType": "uint256",
          "name": "index",
          "type": "uint256"
        }
      ],
      "name": "tokenByIndex",
      "outputs": [
        {
          "internalType": "uint256",
          "name": "",
          "type": "uint256"
        }
      ],
      "stateMutability": "view",
      "type": "function"
    },
    {
      "inputs": [
        {
          "internalType": "address",
          "name": "owner",
          "type": "address"
        },
        {
          "internalType": "uint256",
          "name": "index",
          "type": "uint256"
        }
      ],
      "name": "tokenOfOwnerByIndex",
      "outputs": [
        {
          "internalType": "uint256",
          "name": "",
          "type": "uint256"
        }
      ],
      "stateMutability": "view",
      "type": "function"
    },
    {
      "inputs": [
        {
          "internalType": "uint256",
          "name": "tokenId",
          "type": "uint256"
        }
      ],
      "name": "tokenURI",
      "outputs": [
        {
          "internalType": "string",
          "name": "",
          "type": "string"
        }
      ],
      "stateMutability": "view",
      "type": "function"
    },
    {
      "inputs": [],
      "name": "tokenURIPrefix",
      "outputs": [
        {
          "internalType": "string",
          "name": "",
          "type": "string"
        }
      ],
      "stateMutability": "view",
      "type": "function"
    },
    {
      "inputs": [],
      "name": "totalSupply",
      "outputs": [
        {
          "internalType": "uint256",
          "name": "",
          "type": "uint256"
        }
      ],
      "stateMutability": "view",
      "type": "function"
    },
    {
      "inputs": [
        {
          "internalType": "address",
          "name": "from",
          "type": "address"
        },
        {
          "internalType": "address",
          "name": "to",
          "type": "address"
        },
        {
          "internalType": "uint256",
          "name": "tokenId",
          "type": "uint256"
        }
      ],
      "name": "transferFrom",
      "outputs": [],
      "stateMutability": "nonpayable",
      "type": "function"
    },
    {
      "inputs": [
        {
          "internalType": "address",
          "name": "newOwner",
          "type": "address"
        }
      ],
      "name": "transferOwnership",
      "outputs": [],
      "stateMutability": "nonpayable",
      "type": "function"
    }
  ],
  "transactionHash": "0x4e5466644bb43d19260978d4d45c5284202537e3d99c39d15528adfb16187171",
  "args": [
    "SkyNFT",
    "Sky",
    "0x80aEa81791Ded20568221346C79B0ad4E0890FAA",
    "https://api.emusk.com/contractMetadata/{address}",
    "https://ipfs.io/"
  ],
  "solcInputHash": "d11d116e540a2c81c9e73743f355ea11",
  "bytecode": "0x608060405260006011553480156200001657600080fd5b506040516200393b3803806200393b833981016040819052620000399162000506565b8484838380826200004a3362000167565b6200005533620001b7565b620000676301ffc9a760e01b62000209565b62000079632dde656160e21b62000209565b6200008b6380ac58cd60e01b62000209565b8051620000a090600790602084019062000393565b50620000b363e8a3d48560e01b62000209565b508051620000c990600890602084019062000393565b50620000de905063780e9d6360e01b62000209565b8351620000f390600e90602087019062000393565b5082516200010990600f90602086019062000393565b506200011c635b5e139f60e01b62000209565b505050506200013183620001b760201b60201c565b6200015c7fe37243f27916e395706434720b54132b80ef5cc8c56f39b0df6485e8dfb697cf62000209565b50505050506200061e565b600080546001600160a01b038381166001600160a01b0319831681178455604051919092169283917f8be0079c531659141344cd1fd0a4f28419497f9722a3daafe3b4186f6b6457e09190a35050565b620001d28160016200028e60201b620015551790919060201c565b6040516001600160a01b038216907f47d1c22a25bb3a5d4e481b9b1e6944c2eade3181a0a20b495ed61d35b5323f2490600090a250565b6001600160e01b03198082161415620002695760405162461bcd60e51b815260206004820152601c60248201527f4552433136353a20696e76616c696420696e746572666163652069640000000060448201526064015b60405180910390fd5b6001600160e01b0319166000908152600260205260409020805460ff19166001179055565b6200029a82826200030e565b15620002e95760405162461bcd60e51b815260206004820152601f60248201527f526f6c65733a206163636f756e7420616c72656164792068617320726f6c6500604482015260640162000260565b6001600160a01b0316600090815260209190915260409020805460ff19166001179055565b60006001600160a01b038216620003735760405162461bcd60e51b815260206004820152602260248201527f526f6c65733a206163636f756e7420697320746865207a65726f206164647265604482015261737360f01b606482015260840162000260565b506001600160a01b03166000908152602091909152604090205460ff1690565b828054620003a190620005e1565b90600052602060002090601f016020900481019282620003c5576000855562000410565b82601f10620003e057805160ff191683800117855562000410565b8280016001018555821562000410579182015b8281111562000410578251825591602001919060010190620003f3565b506200041e92915062000422565b5090565b5b808211156200041e576000815560010162000423565b634e487b7160e01b600052604160045260246000fd5b600082601f8301126200046157600080fd5b81516001600160401b03808211156200047e576200047e62000439565b604051601f8301601f19908116603f01168101908282118183101715620004a957620004a962000439565b81604052838152602092508683858801011115620004c657600080fd5b600091505b83821015620004ea5785820183015181830184015290820190620004cb565b83821115620004fc5760008385830101525b9695505050505050565b600080600080600060a086880312156200051f57600080fd5b85516001600160401b03808211156200053757600080fd5b6200054589838a016200044f565b965060208801519150808211156200055c57600080fd5b6200056a89838a016200044f565b604089015190965091506001600160a01b03821682146200058a57600080fd5b606088015191945080821115620005a057600080fd5b620005ae89838a016200044f565b93506080880151915080821115620005c557600080fd5b50620005d4888289016200044f565b9150509295509295909350565b600181811c90821680620005f657607f821691505b602082108114156200061857634e487b7160e01b600052602260045260246000fd5b50919050565b61330d806200062e6000396000f3fe608060405234801561001057600080fd5b50600436106102265760003560e01c80637df73e271161012a578063c0ac9983116100bd578063e8a3d4851161008c578063eb12d61e11610071578063eb12d61e14610503578063f2fde38b14610516578063f53bbb7f1461052957600080fd5b8063e8a3d485146104bf578063e985e9c5146104c757600080fd5b8063c0ac998314610489578063c87b56dd14610491578063ccb98ffc146104a4578063e5c8b03d146104b757600080fd5b806399e0dd7c116100f957806399e0dd7c14610430578063a22cb46514610443578063b88d4fde14610456578063b9c4d9fb1461046957600080fd5b80637df73e27146103f15780638da5cb5b14610404578063938e3d7b1461041557806395d89b411461042857600080fd5b80632f745c59116101bd5780636308f1cd1161018c578063672a940011610171578063672a9400146103c357806370a08231146103d6578063715018a6146103e957600080fd5b80636308f1cd1461037e5780636352211e146103b057600080fd5b80632f745c591461033257806342842e0e1461034557806342966c68146103585780634f6ccce71461036b57600080fd5b80630ebd4c7f116101f95780630ebd4c7f146102da57806318160ddd146102fa5780631ff702a81461030c57806323b872dd1461031f57600080fd5b806301ffc9a71461022b57806306fdde0314610285578063081812fc1461029a578063095ea7b3146102c5575b600080fd5b610270610239366004612b8b565b7fffffffff000000000000000000000000000000000000000000000000000000001660009081526002602052604090205460ff1690565b60405190151581526020015b60405180910390f35b61028d61053c565b60405161027c9190612c00565b6102ad6102a8366004612c13565b6105ca565b6040516001600160a01b03909116815260200161027c565b6102d86102d3366004612c41565b610675565b005b6102ed6102e8366004612c13565b610801565b60405161027c9190612ca8565b600c545b60405190815260200161027c565b6102fe61031a366004612c13565b610923565b6102d861032d366004612cbb565b610969565b6102fe610340366004612c41565b6109f6565b6102d8610353366004612cbb565b610ab2565b6102d8610366366004612c13565b610acd565b6102fe610379366004612c13565b610b54565b61039161038c366004612cfc565b610bf8565b604080516001600160a01b03909316835260208301919091520161027c565b6102ad6103be366004612c13565b610c3e565b6102d86103d1366004612e1c565b610ccf565b6102fe6103e4366004612f43565b610dd1565b6102d8610e6d565b6102706103ff366004612f43565b610ed3565b6000546001600160a01b03166102ad565b6102d8610423366004612f60565b610ee0565b61028d610f43565b6102d861043e366004612f60565b610f50565b6102d8610451366004612f95565b610fb3565b6102d8610464366004612fd3565b611078565b61047c610477366004612c13565b611106565b60405161027c9190613053565b61028d61122d565b61028d61049f366004612c13565b61123a565b6102d86104b2366004612c13565b6112d0565b6102d861132f565b61028d611338565b6102706104d5366004613094565b6001600160a01b03918216600090815260066020908152604080832093909416825291909152205460ff1690565b6102d8610511366004612f43565b611345565b6102d8610524366004612f43565b6113c9565b6102ad6105373660046130c2565b6114a8565b600e8054610549906130fd565b80601f0160208091040260200160405190810160405280929190818152602001828054610575906130fd565b80156105c25780601f10610597576101008083540402835291602001916105c2565b820191906000526020600020905b8154815290600101906020018083116105a557829003601f168201915b505050505081565b6000818152600360205260408120546001600160a01b03166106595760405162461bcd60e51b815260206004820152602c60248201527f4552433732313a20617070726f76656420717565727920666f72206e6f6e657860448201527f697374656e7420746f6b656e000000000000000000000000000000000000000060648201526084015b60405180910390fd5b506000908152600460205260409020546001600160a01b031690565b600061068082610c3e565b9050806001600160a01b0316836001600160a01b0316141561070a5760405162461bcd60e51b815260206004820152602160248201527f4552433732313a20617070726f76616c20746f2063757272656e74206f776e6560448201527f72000000000000000000000000000000000000000000000000000000000000006064820152608401610650565b336001600160a01b0382161480610726575061072681336104d5565b6107985760405162461bcd60e51b815260206004820152603860248201527f4552433732313a20617070726f76652063616c6c6572206973206e6f74206f7760448201527f6e6572206e6f7220617070726f76656420666f7220616c6c00000000000000006064820152608401610650565b600082815260046020526040808220805473ffffffffffffffffffffffffffffffffffffffff19166001600160a01b0387811691821790925591518593918516917f8c5be1e5ebec7d5bd14f71427d1e84f3dd0314c0f7b2291e5b200ac8c7c3b92591a4505050565b6000818152601060209081526040808320805482518185028101850190935280835260609493849084015b82821015610874576000848152602090819020604080518082019091526002850290910180546001600160a01b0316825260019081015482840152908352909201910161082c565b5050505090506000815167ffffffffffffffff81111561089657610896612d34565b6040519080825280602002602001820160405280156108bf578160200160208202803683370190505b50905060005b825181101561091b578281815181106108e0576108e0613138565b6020026020010151602001518282815181106108fe576108fe613138565b60209081029190910101528061091381613164565b9150506108c5565b509392505050565b6040516bffffffffffffffffffffffff193060601b166020820152603481018290526000906054015b604051602081830303815290604052805190602001209050919050565b610974335b826115d1565b6109e65760405162461bcd60e51b815260206004820152603160248201527f4552433732313a207472616e736665722063616c6c6572206973206e6f74206f60448201527f776e6572206e6f7220617070726f7665640000000000000000000000000000006064820152608401610650565b6109f18383836116d5565b505050565b6000610a0183610dd1565b8210610a755760405162461bcd60e51b815260206004820152602b60248201527f455243373231456e756d657261626c653a206f776e657220696e646578206f7560448201527f74206f6620626f756e64730000000000000000000000000000000000000000006064820152608401610650565b6001600160a01b0383166000908152600a60205260409020805483908110610a9f57610a9f613138565b9060005260206000200154905092915050565b6109f183838360405180602001604052806000815250611078565b610ad63361096e565b610b485760405162461bcd60e51b815260206004820152603060248201527f4552433732314275726e61626c653a2063616c6c6572206973206e6f74206f7760448201527f6e6572206e6f7220617070726f766564000000000000000000000000000000006064820152608401610650565b610b51816116e0565b50565b6000610b5f600c5490565b8210610bd35760405162461bcd60e51b815260206004820152602c60248201527f455243373231456e756d657261626c653a20676c6f62616c20696e646578206f60448201527f7574206f6620626f756e647300000000000000000000000000000000000000006064820152608401610650565b600c8281548110610be657610be6613138565b90600052602060002001549050919050565b60106020528160005260406000208181548110610c1457600080fd5b6000918252602090912060029091020180546001909101546001600160a01b039091169250905082565b6000818152600360205260408120546001600160a01b031680610cc95760405162461bcd60e51b815260206004820152602960248201527f4552433732313a206f776e657220717565727920666f72206e6f6e657869737460448201527f656e7420746f6b656e00000000000000000000000000000000000000000000006064820152608401610650565b92915050565b6040516bffffffffffffffffffffffff193060601b16602082015260348101879052610d689060019060540160408051601f198184030181528282528051602091820120600084529083018083525260ff891690820152606081018790526080810186905260a0016020604051602081039080840390855afa158015610d59573d6000803e3d6000fd5b50505060206040510351610ed3565b610db45760405162461bcd60e51b815260206004820152601960248201527f6f776e65722073686f756c64207369676e20746f6b656e4964000000000000006044820152606401610650565b610dbf3387846116f2565b610dc986826119e8565b505050505050565b60006001600160a01b038216610e4f5760405162461bcd60e51b815260206004820152602a60248201527f4552433732313a2062616c616e636520717565727920666f7220746865207a6560448201527f726f2061646472657373000000000000000000000000000000000000000000006064820152608401610650565b6001600160a01b038216600090815260056020526040902054610cc9565b6000546001600160a01b03163314610ec75760405162461bcd60e51b815260206004820181905260248201527f4f776e61626c653a2063616c6c6572206973206e6f7420746865206f776e65726044820152606401610650565b610ed16000611a80565b565b6000610cc9600183611add565b6000546001600160a01b03163314610f3a5760405162461bcd60e51b815260206004820181905260248201527f4f776e61626c653a2063616c6c6572206973206e6f7420746865206f776e65726044820152606401610650565b610b5181611b7b565b600f8054610549906130fd565b6000546001600160a01b03163314610faa5760405162461bcd60e51b815260206004820181905260248201527f4f776e61626c653a2063616c6c6572206973206e6f7420746865206f776e65726044820152606401610650565b610b5181611b8e565b6001600160a01b03821633141561100c5760405162461bcd60e51b815260206004820152601960248201527f4552433732313a20617070726f766520746f2063616c6c6572000000000000006044820152606401610650565b3360008181526006602090815260408083206001600160a01b03871680855290835292819020805460ff191686151590811790915590519081529192917f17307eab39ab6107e8899845ad3d59bd9653f200f220920489ca2b5937696c31910160405180910390a35050565b61108233836115d1565b6110f45760405162461bcd60e51b815260206004820152603160248201527f4552433732313a207472616e736665722063616c6c6572206973206e6f74206f60448201527f776e6572206e6f7220617070726f7665640000000000000000000000000000006064820152608401610650565b61110084848484611ba1565b50505050565b6000818152601060209081526040808320805482518185028101850190935280835260609493849084015b82821015611179576000848152602090819020604080518082019091526002850290910180546001600160a01b03168252600190810154828401529083529092019101611131565b5050505090506000815167ffffffffffffffff81111561119b5761119b612d34565b6040519080825280602002602001820160405280156111c4578160200160208202803683370190505b50905060005b825181101561091b578281815181106111e5576111e5613138565b60200260200101516000015182828151811061120357611203613138565b6001600160a01b03909216602092830291909101909101528061122581613164565b9150506111ca565b60088054610549906130fd565b6000818152600360205260409020546060906001600160a01b03166112c75760405162461bcd60e51b815260206004820152602f60248201527f4552433732314d657461646174613a2055524920717565727920666f72206e6f60448201527f6e6578697374656e7420746f6b656e00000000000000000000000000000000006064820152608401610650565b610cc982611c2a565b6000546001600160a01b0316331461132a5760405162461bcd60e51b815260206004820181905260248201527f4f776e61626c653a2063616c6c6572206973206e6f7420746865206f776e65726044820152606401610650565b601155565b610ed133611d61565b60078054610549906130fd565b61134e33610ed3565b6113c05760405162461bcd60e51b815260206004820152603060248201527f5369676e6572526f6c653a2063616c6c657220646f6573206e6f74206861766560448201527f20746865205369676e657220726f6c65000000000000000000000000000000006064820152608401610650565b610b5181611da3565b6000546001600160a01b031633146114235760405162461bcd60e51b815260206004820181905260248201527f4f776e61626c653a2063616c6c6572206973206e6f7420746865206f776e65726044820152606401610650565b6001600160a01b03811661149f5760405162461bcd60e51b815260206004820152602660248201527f4f776e61626c653a206e6577206f776e657220697320746865207a65726f206160448201527f64647265737300000000000000000000000000000000000000000000000000006064820152608401610650565b610b5181611a80565b6040516bffffffffffffffffffffffff193060601b166020820152603481018590526000906001906114f29060540160405160208183030381529060405280519060200120611de5565b6040805160008152602081018083529290925260ff871690820152606081018590526080810184905260a0016020604051602081039080840390855afa158015611540573d6000803e3d6000fd5b5050506020604051035190505b949350505050565b61155f8282611add565b156115ac5760405162461bcd60e51b815260206004820152601f60248201527f526f6c65733a206163636f756e7420616c72656164792068617320726f6c65006044820152606401610650565b6001600160a01b0316600090815260209190915260409020805460ff19166001179055565b6000818152600360205260408120546001600160a01b031661165b5760405162461bcd60e51b815260206004820152602c60248201527f4552433732313a206f70657261746f7220717565727920666f72206e6f6e657860448201527f697374656e7420746f6b656e00000000000000000000000000000000000000006064820152608401610650565b600061166683610c3e565b9050806001600160a01b0316846001600160a01b031614806116a15750836001600160a01b0316611696846105ca565b6001600160a01b0316145b8061154d57506001600160a01b0380821660009081526006602090815260408083209388168352929052205460ff1661154d565b6109f1838383611e20565b610b516116ec82610c3e565b82611e2b565b6116fc8383611e35565b6000815167ffffffffffffffff81111561171857611718612d34565b604051908082528060200260200182016040528015611741578160200160208202803683370190505b5090506000825167ffffffffffffffff81111561176057611760612d34565b604051908082528060200260200182016040528015611789578160200160208202803683370190505b50905060005b835181101561199d5760006001600160a01b03168482815181106117b5576117b5613138565b6020026020010151600001516001600160a01b031614156118185760405162461bcd60e51b815260206004820152601b60248201527f526563697069656e742073686f756c642062652070726573656e7400000000006044820152606401610650565b83818151811061182a5761182a613138565b602002602001015160200151600014156118865760405162461bcd60e51b815260206004820152601c60248201527f4665652076616c75652073686f756c6420626520706f736974697665000000006044820152606401610650565b600085815260106020526040902084518590839081106118a8576118a8613138565b6020908102919091018101518254600180820185556000948552938390208251600290920201805473ffffffffffffffffffffffffffffffffffffffff19166001600160a01b03909216919091178155910151910155835184908290811061191257611912613138565b60200260200101516000015183828151811061193057611930613138565b60200260200101906001600160a01b031690816001600160a01b03168152505083818151811061196257611962613138565b60200260200101516020015182828151811061198057611980613138565b60209081029190910101528061199581613164565b91505061178f565b508251156119e1577f99aba1d63749cfd5ad1afda7c4663840924d54eb5f005bbbeadedc6ec13674b28483836040516119d89392919061319d565b60405180910390a15b5050505050565b6000828152600360205260409020546001600160a01b0316611a725760405162461bcd60e51b815260206004820152602c60248201527f4552433732314d657461646174613a2055524920736574206f66206e6f6e657860448201527f697374656e7420746f6b656e00000000000000000000000000000000000000006064820152608401610650565b611a7c8282611e49565b5050565b600080546001600160a01b0383811673ffffffffffffffffffffffffffffffffffffffff19831681178455604051919092169283917f8be0079c531659141344cd1fd0a4f28419497f9722a3daafe3b4186f6b6457e09190a35050565b60006001600160a01b038216611b5b5760405162461bcd60e51b815260206004820152602260248201527f526f6c65733a206163636f756e7420697320746865207a65726f20616464726560448201527f73730000000000000000000000000000000000000000000000000000000000006064820152608401610650565b506001600160a01b03166000908152602091909152604090205460ff1690565b8051611a7c906007906020840190612a8e565b8051611a7c906008906020840190612a8e565b611bac8484846116d5565b611bb884848484611e68565b6111005760405162461bcd60e51b815260206004820152603260248201527f4552433732313a207472616e7366657220746f206e6f6e20455243373231526560448201527f63656976657220696d706c656d656e74657200000000000000000000000000006064820152608401610650565b60008181526009602052604090208054606091610cc991611c4a906130fd565b80601f0160208091040260200160405190810160405280929190818152602001828054611c76906130fd565b8015611cc35780601f10611c9857610100808354040283529160200191611cc3565b820191906000526020600020905b815481529060010190602001808311611ca657829003601f168201915b505050505060088054611cd5906130fd565b80601f0160208091040260200160405190810160405280929190818152602001828054611d01906130fd565b8015611d4e5780601f10611d2357610100808354040283529160200191611d4e565b820191906000526020600020905b815481529060010190602001808311611d3157829003601f168201915b505050505061206090919063ffffffff16565b611d6c600182612211565b6040516001600160a01b038216907f3525e22824a8a7df2c9a6029941c824cf95b6447f1e13d5128fd3826d35afe8b90600090a250565b611dae600182611555565b6040516001600160a01b038216907f47d1c22a25bb3a5d4e481b9b1e6944c2eade3181a0a20b495ed61d35b5323f2490600090a250565b6040517f19457468657265756d205369676e6564204d6573736167653a0a3332000000006020820152603c8101829052600090605c0161094c565b6109f18383836122af565b611a7c8282612304565b426011541015611a7c57611a7c8282612317565b600082815260096020908152604090912082516109f192840190612a8e565b60006001600160a01b0384163b611e815750600161154d565b6000806001600160a01b0386167f150b7a020000000000000000000000000000000000000000000000000000000033898888604051602401611ec69493929190613207565b60408051601f198184030181529181526020820180517bffffffffffffffffffffffffffffffffffffffffffffffffffffffff167fffffffff00000000000000000000000000000000000000000000000000000000909416939093179092529051611f319190613243565b6000604051808303816000865af19150503d8060008114611f6e576040519150601f19603f3d011682016040523d82523d6000602084013e611f73565b606091505b509150915081611ffb57805115611f8d5780518082602001fd5b60405162461bcd60e51b815260206004820152603260248201527f4552433732313a207472616e7366657220746f206e6f6e20455243373231526560448201527f63656976657220696d706c656d656e74657200000000000000000000000000006064820152608401610650565b600081806020019051810190612011919061325f565b7fffffffff00000000000000000000000000000000000000000000000000000000167f150b7a020000000000000000000000000000000000000000000000000000000014935061154d92505050565b8051825160609184918491600091612078919061327c565b67ffffffffffffffff81111561209057612090612d34565b6040519080825280601f01601f1916602001820160405280156120ba576020820181803683370190505b5090506000805b8451811015612161578481815181106120dc576120dc613138565b01602001517fff0000000000000000000000000000000000000000000000000000000000000016838361210e81613164565b94508151811061212057612120613138565b60200101907effffffffffffffffffffffffffffffffffffffffffffffffffffffffffffff1916908160001a9053508061215981613164565b9150506120c1565b5060005b83518110156122055783818151811061218057612180613138565b01602001517fff000000000000000000000000000000000000000000000000000000000000001683836121b281613164565b9450815181106121c4576121c4613138565b60200101907effffffffffffffffffffffffffffffffffffffffffffffffffffffffffffff1916908160001a905350806121fd81613164565b915050612165565b50909695505050505050565b61221b8282611add565b61228d5760405162461bcd60e51b815260206004820152602160248201527f526f6c65733a206163636f756e7420646f6573206e6f74206861766520726f6c60448201527f65000000000000000000000000000000000000000000000000000000000000006064820152608401610650565b6001600160a01b0316600090815260209190915260409020805460ff19169055565b6122ba838383612321565b6122c483826124df565b6001600160a01b03919091166000908152600a602081815260408084208054868652600b8452918520829055928252600181018355918352909120015550565b61230e82826125ee565b611a7c8161261a565b611a7c8282612651565b826001600160a01b031661233482610c3e565b6001600160a01b0316146123b05760405162461bcd60e51b815260206004820152602960248201527f4552433732313a207472616e73666572206f6620746f6b656e2074686174206960448201527f73206e6f74206f776e00000000000000000000000000000000000000000000006064820152608401610650565b6001600160a01b03821661242b5760405162461bcd60e51b8152602060048201526024808201527f4552433732313a207472616e7366657220746f20746865207a65726f2061646460448201527f72657373000000000000000000000000000000000000000000000000000000006064820152608401610650565b612434816126d6565b6001600160a01b03831660009081526005602052604090206124559061271e565b6001600160a01b03821660009081526005602052604090206124769061272f565b600081815260036020526040808220805473ffffffffffffffffffffffffffffffffffffffff19166001600160a01b0386811691821790925591518493918716917fddf252ad1be2c89b69c2b068fc378daa952ba7f163c4a11628f55a4df523b3ef91a4505050565b6001600160a01b0382166000908152600a602052604081205461250490600190613294565b6000838152600b60205260409020549091508082146125ab576001600160a01b0384166000908152600a6020526040812080548490811061254757612547613138565b9060005260206000200154905080600a6000876001600160a01b03166001600160a01b03168152602001908152602001600020838154811061258b5761258b613138565b6000918252602080832090910192909255918252600b9052604090208190555b6001600160a01b0384166000908152600a602052604090208054806125d2576125d26132ab565b6001900381819060005260206000200160009055905550505050565b6125f8828261274c565b61260282826124df565b6000818152600b6020526040812055611a7c81612867565b60008181526009602052604090208054612633906130fd565b159050610b51576000818152600960205260408120610b5191612b12565b61265b8282612928565b6001600160a01b03919091166000908152600a602090815260408083208054858552600b84528285208190556001808201835591855283852001859055600c8054868652600d909452918420839055820181559091527fdf6966c971051c3d54ec59162606531493a51404a002842f56009d7e5cf4a8c70155565b6000818152600460205260409020546001600160a01b031615610b51576000908152600460205260409020805473ffffffffffffffffffffffffffffffffffffffff19169055565b805461272b906001612a6b565b9055565b6001816000016000828254612744919061327c565b909155505050565b816001600160a01b031661275f82610c3e565b6001600160a01b0316146127db5760405162461bcd60e51b815260206004820152602560248201527f4552433732313a206275726e206f6620746f6b656e2074686174206973206e6f60448201527f74206f776e0000000000000000000000000000000000000000000000000000006064820152608401610650565b6127e4816126d6565b6001600160a01b03821660009081526005602052604090206128059061271e565b600081815260036020526040808220805473ffffffffffffffffffffffffffffffffffffffff19169055518291906001600160a01b038516907fddf252ad1be2c89b69c2b068fc378daa952ba7f163c4a11628f55a4df523b3ef908390a45050565b600c5460009061287990600190613294565b6000838152600d6020526040812054600c80549394509092849081106128a1576128a1613138565b9060005260206000200154905080600c83815481106128c2576128c2613138565b6000918252602080832090910192909255828152600d90915260409020829055600c8054806128f3576128f36132ab565b600190038181906000526020600020016000905590556000600d60008681526020019081526020016000208190555050505050565b6001600160a01b03821661297e5760405162461bcd60e51b815260206004820181905260248201527f4552433732313a206d696e7420746f20746865207a65726f20616464726573736044820152606401610650565b6000818152600360205260409020546001600160a01b0316156129e35760405162461bcd60e51b815260206004820152601c60248201527f4552433732313a20746f6b656e20616c7265616479206d696e746564000000006044820152606401610650565b6000818152600360209081526040808320805473ffffffffffffffffffffffffffffffffffffffff19166001600160a01b038716908117909155835260059091529020612a2f9061272f565b60405181906001600160a01b038416906000907fddf252ad1be2c89b69c2b068fc378daa952ba7f163c4a11628f55a4df523b3ef908290a45050565b600082821115612a7d57612a7d6132c1565b612a878284613294565b9392505050565b828054612a9a906130fd565b90600052602060002090601f016020900481019282612abc5760008555612b02565b82601f10612ad557805160ff1916838001178555612b02565b82800160010185558215612b02579182015b82811115612b02578251825591602001919060010190612ae7565b50612b0e929150612b48565b5090565b508054612b1e906130fd565b6000825580601f10612b2e575050565b601f016020900490600052602060002090810190610b5191905b5b80821115612b0e5760008155600101612b49565b7fffffffff0000000000000000000000000000000000000000000000000000000081168114610b5157600080fd5b600060208284031215612b9d57600080fd5b8135612a8781612b5d565b60005b83811015612bc3578181015183820152602001612bab565b838111156111005750506000910152565b60008151808452612bec816020860160208601612ba8565b601f01601f19169290920160200192915050565b602081526000612a876020830184612bd4565b600060208284031215612c2557600080fd5b5035919050565b6001600160a01b0381168114610b5157600080fd5b60008060408385031215612c5457600080fd5b8235612c5f81612c2c565b946020939093013593505050565b600081518084526020808501945080840160005b83811015612c9d57815187529582019590820190600101612c81565b509495945050505050565b602081526000612a876020830184612c6d565b600080600060608486031215612cd057600080fd5b8335612cdb81612c2c565b92506020840135612ceb81612c2c565b929592945050506040919091013590565b60008060408385031215612d0f57600080fd5b50508035926020909101359150565b803560ff81168114612d2f57600080fd5b919050565b634e487b7160e01b600052604160045260246000fd5b6040805190810167ffffffffffffffff81118282101715612d6d57612d6d612d34565b60405290565b604051601f8201601f1916810167ffffffffffffffff81118282101715612d9c57612d9c612d34565b604052919050565b600067ffffffffffffffff831115612dbe57612dbe612d34565b612dd16020601f19601f86011601612d73565b9050828152838383011115612de557600080fd5b828260208301376000602084830101529392505050565b600082601f830112612e0d57600080fd5b612a8783833560208501612da4565b60008060008060008060c08789031215612e3557600080fd5b863595506020612e46818901612d1e565b95506040880135945060608801359350608088013567ffffffffffffffff80821115612e7157600080fd5b818a0191508a601f830112612e8557600080fd5b813581811115612e9757612e97612d34565b612ea5848260051b01612d73565b81815260069190911b8301840190848101908d831115612ec457600080fd5b938501935b82851015612f10576040858f031215612ee25760008081fd5b612eea612d4a565b8535612ef581612c2c565b81528587013587820152825260409094019390850190612ec9565b9650505060a08a0135925080831115612f2857600080fd5b5050612f3689828a01612dfc565b9150509295509295509295565b600060208284031215612f5557600080fd5b8135612a8781612c2c565b600060208284031215612f7257600080fd5b813567ffffffffffffffff811115612f8957600080fd5b61154d84828501612dfc565b60008060408385031215612fa857600080fd5b8235612fb381612c2c565b915060208301358015158114612fc857600080fd5b809150509250929050565b60008060008060808587031215612fe957600080fd5b8435612ff481612c2c565b9350602085013561300481612c2c565b925060408501359150606085013567ffffffffffffffff81111561302757600080fd5b8501601f8101871361303857600080fd5b61304787823560208401612da4565b91505092959194509250565b6020808252825182820181905260009190848201906040850190845b818110156122055783516001600160a01b03168352928401929184019160010161306f565b600080604083850312156130a757600080fd5b82356130b281612c2c565b91506020830135612fc881612c2c565b600080600080608085870312156130d857600080fd5b843593506130e860208601612d1e565b93969395505050506040820135916060013590565b600181811c9082168061311157607f821691505b6020821081141561313257634e487b7160e01b600052602260045260246000fd5b50919050565b634e487b7160e01b600052603260045260246000fd5b634e487b7160e01b600052601160045260246000fd5b60007fffffffffffffffffffffffffffffffffffffffffffffffffffffffffffffffff8214156131965761319661314e565b5060010190565b6000606082018583526020606081850152818651808452608086019150828801935060005b818110156131e75784516001600160a01b0316835293830193918301916001016131c2565b505084810360408601526131fb8187612c6d565b98975050505050505050565b60006001600160a01b038087168352808616602084015250836040830152608060608301526132396080830184612bd4565b9695505050505050565b60008251613255818460208701612ba8565b9190910192915050565b60006020828403121561327157600080fd5b8151612a8781612b5d565b6000821982111561328f5761328f61314e565b500190565b6000828210156132a6576132a661314e565b500390565b634e487b7160e01b600052603160045260246000fd5b634e487b7160e01b600052600160045260246000fdfea2646970667358221220b1a84f698537c25badd4a9f9af10a90157ef7b5ffb6508a0aba668f0f113837b64736f6c63430008090033",
  "devdoc": {
    "details": "anyone can mint token.",
    "kind": "dev",
    "methods": {
      "approve(address,uint256)": {
        "details": "Approves another address to transfer the given token ID The zero address indicates there is no approved address. There can only be one approved address per token at a given time. Can only be called by the token owner or an approved operator.",
        "params": {
          "to": "address to be approved for the given token ID",
          "tokenId": "uint256 ID of the token to be approved"
        }
      },
      "balanceOf(address)": {
        "details": "Gets the balance of the specified address.",
        "params": {
          "owner": "address to query the balance of"
        },
        "returns": {
          "_0": "uint256 representing the amount owned by the passed address"
        }
      },
      "burn(uint256)": {
        "details": "Burns a specific ERC721 token.",
        "params": {
          "tokenId": "uint256 id of the ERC721 token to be burned."
        }
      },
      "getApproved(uint256)": {
        "details": "Gets the approved address for a token ID, or zero if no address set Reverts if the token ID does not exist.",
        "params": {
          "tokenId": "uint256 ID of the token to query the approval of"
        },
        "returns": {
          "_0": "address currently approved for the given token ID"
        }
      },
      "isApprovedForAll(address,address)": {
        "details": "Tells whether an operator is approved by a given owner.",
        "params": {
          "operator": "operator address which you want to query the approval of",
          "owner": "owner address which you want to query the approval of"
        },
        "returns": {
          "_0": "bool whether the given operator is approved by the given owner"
        }
      },
      "owner()": {
        "details": "Returns the address of the current owner."
      },
      "ownerOf(uint256)": {
        "details": "Gets the owner of the specified token ID.",
        "params": {
          "tokenId": "uint256 ID of the token to query the owner of"
        },
        "returns": {
          "_0": "address currently marked as the owner of the given token ID"
        }
      },
      "renounceOwnership()": {
        "details": "Leaves the contract without owner. It will not be possible to call `onlyOwner` functions anymore. Can only be called by the current owner. NOTE: Renouncing ownership will leave the contract without an owner, thereby removing any functionality that is only available to the owner."
      },
      "safeTransferFrom(address,address,uint256)": {
        "details": "Safely transfers the ownership of a given token ID to another address If the target address is a contract, it must implement {IERC721Receiver-onERC721Received}, which is called upon a safe transfer, and return the magic value `bytes4(keccak256(\"onERC721Received(address,address,uint256,bytes)\"))`; otherwise, the transfer is reverted. Requires the msg.sender to be the owner, approved, or operator",
        "params": {
          "from": "current owner of the token",
          "to": "address to receive the ownership of the given token ID",
          "tokenId": "uint256 ID of the token to be transferred"
        }
      },
      "safeTransferFrom(address,address,uint256,bytes)": {
        "details": "Safely transfers the ownership of a given token ID to another address If the target address is a contract, it must implement {IERC721Receiver-onERC721Received}, which is called upon a safe transfer, and return the magic value `bytes4(keccak256(\"onERC721Received(address,address,uint256,bytes)\"))`; otherwise, the transfer is reverted. Requires the _msgSender() to be the owner, approved, or operator",
        "params": {
          "_data": "bytes data to send along with a safe transfer check",
          "from": "current owner of the token",
          "to": "address to receive the ownership of the given token ID",
          "tokenId": "uint256 ID of the token to be transferred"
        }
      },
      "setApprovalForAll(address,bool)": {
        "details": "Sets or unsets the approval of a given operator An operator is allowed to transfer all tokens of the sender on their behalf.",
        "params": {
          "approved": "representing the status of the approval to be set",
          "to": "operator address to set the approval"
        }
      },
      "supportsInterface(bytes4)": {
        "details": "See {IERC165-supportsInterface}. Time complexity O(1), guaranteed to always use less than 30 000 gas."
      },
      "tokenByIndex(uint256)": {
        "details": "Gets the token ID at a given index of all the tokens in this contract Reverts if the index is greater or equal to the total number of tokens.",
        "params": {
          "index": "uint256 representing the index to be accessed of the tokens list"
        },
        "returns": {
          "_0": "uint256 token ID at the given index of the tokens list"
        }
      },
      "tokenOfOwnerByIndex(address,uint256)": {
        "details": "Gets the token ID at a given index of the tokens list of the requested owner.",
        "params": {
          "index": "uint256 representing the index to be accessed of the requested tokens list",
          "owner": "address owning the tokens list to be accessed"
        },
        "returns": {
          "_0": "uint256 token ID at the given index of the tokens list owned by the requested address"
        }
      },
      "tokenURI(uint256)": {
        "details": "Returns an URI for a given token ID. Throws if the token ID does not exist. May return an empty string.",
        "params": {
          "tokenId": "uint256 ID of the token to query"
        }
      },
      "totalSupply()": {
        "details": "Gets the total amount of tokens stored by the contract.",
        "returns": {
          "_0": "uint256 representing the total amount of tokens"
        }
      },
      "transferFrom(address,address,uint256)": {
        "details": "Transfers the ownership of a given token ID to another address. Usage of this method is discouraged, use {safeTransferFrom} whenever possible. Requires the msg.sender to be the owner, approved, or operator.",
        "params": {
          "from": "current owner of the token",
          "to": "address to receive the ownership of the given token ID",
          "tokenId": "uint256 ID of the token to be transferred"
        }
      },
      "transferOwnership(address)": {
        "details": "Transfers ownership of the contract to a new account (`newOwner`). Can only be called by the current owner."
      }
    },
    "title": "SkyNFT",
    "version": 1
  },
  "userdoc": {
    "kind": "user",
    "methods": {},
    "version": 1
  },
  "storageLayout": {
    "storage": [
      {
        "astId": 2052,
        "contract": "src/SkyNFT.sol:SkyNFT",
        "label": "_owner",
        "offset": 0,
        "slot": "0",
        "type": "t_address"
      },
      {
        "astId": 2286,
        "contract": "src/SkyNFT.sol:SkyNFT",
        "label": "_signers",
        "offset": 0,
        "slot": "1",
        "type": "t_struct(Role)3235_storage"
      },
      {
        "astId": 6839,
        "contract": "src/SkyNFT.sol:SkyNFT",
        "label": "_supportedInterfaces",
        "offset": 0,
        "slot": "2",
        "type": "t_mapping(t_bytes4,t_bool)"
      },
      {
        "astId": 5355,
        "contract": "src/SkyNFT.sol:SkyNFT",
        "label": "_tokenOwner",
        "offset": 0,
        "slot": "3",
        "type": "t_mapping(t_uint256,t_address)"
      },
      {
        "astId": 5359,
        "contract": "src/SkyNFT.sol:SkyNFT",
        "label": "_tokenApprovals",
        "offset": 0,
        "slot": "4",
        "type": "t_mapping(t_uint256,t_address)"
      },
      {
        "astId": 5364,
        "contract": "src/SkyNFT.sol:SkyNFT",
        "label": "_ownedTokensCount",
        "offset": 0,
        "slot": "5",
        "type": "t_mapping(t_address,t_struct(Counter)3184_storage)"
      },
      {
        "astId": 5370,
        "contract": "src/SkyNFT.sol:SkyNFT",
        "label": "_operatorApprovals",
        "offset": 0,
        "slot": "6",
        "type": "t_mapping(t_address,t_mapping(t_address,t_bool))"
      },
      {
        "astId": 6888,
        "contract": "src/SkyNFT.sol:SkyNFT",
        "label": "contractURI",
        "offset": 0,
        "slot": "7",
        "type": "t_string_storage"
      },
      {
        "astId": 6968,
        "contract": "src/SkyNFT.sol:SkyNFT",
        "label": "tokenURIPrefix",
        "offset": 0,
        "slot": "8",
        "type": "t_string_storage"
      },
      {
        "astId": 6972,
        "contract": "src/SkyNFT.sol:SkyNFT",
        "label": "_tokenURIs",
        "offset": 0,
        "slot": "9",
        "type": "t_mapping(t_uint256,t_string_storage)"
      },
      {
        "astId": 6488,
        "contract": "src/SkyNFT.sol:SkyNFT",
        "label": "_ownedTokens",
        "offset": 0,
        "slot": "10",
        "type": "t_mapping(t_address,t_array(t_uint256)dyn_storage)"
      },
      {
        "astId": 6492,
        "contract": "src/SkyNFT.sol:SkyNFT",
        "label": "_ownedTokensIndex",
        "offset": 0,
        "slot": "11",
        "type": "t_mapping(t_uint256,t_uint256)"
      },
      {
        "astId": 6495,
        "contract": "src/SkyNFT.sol:SkyNFT",
        "label": "_allTokens",
        "offset": 0,
        "slot": "12",
        "type": "t_array(t_uint256)dyn_storage"
      },
      {
        "astId": 6499,
        "contract": "src/SkyNFT.sol:SkyNFT",
        "label": "_allTokensIndex",
        "offset": 0,
        "slot": "13",
        "type": "t_mapping(t_uint256,t_uint256)"
      },
      {
        "astId": 6057,
        "contract": "src/SkyNFT.sol:SkyNFT",
        "label": "name",
        "offset": 0,
        "slot": "14",
        "type": "t_string_storage"
      },
      {
        "astId": 6059,
        "contract": "src/SkyNFT.sol:SkyNFT",
        "label": "symbol",
        "offset": 0,
        "slot": "15",
        "type": "t_string_storage"
      },
      {
        "astId": 6070,
        "contract": "src/SkyNFT.sol:SkyNFT",
        "label": "fees",
        "offset": 0,
        "slot": "16",
        "type": "t_mapping(t_uint256,t_array(t_struct(Fee)6064_storage)dyn_storage)"
      },
      {
        "astId": 1778,
        "contract": "src/SkyNFT.sol:SkyNFT",
        "label": "endTimeStamp",
        "offset": 0,
        "slot": "17",
        "type": "t_uint256"
      }
    ],
    "types": {
      "t_address": {
        "encoding": "inplace",
        "label": "address",
        "numberOfBytes": "20"
      },
      "t_address_payable": {
        "encoding": "inplace",
        "label": "address payable",
        "numberOfBytes": "20"
      },
      "t_array(t_struct(Fee)6064_storage)dyn_storage": {
        "base": "t_struct(Fee)6064_storage",
        "encoding": "dynamic_array",
        "label": "struct ERC721Base.Fee[]",
        "numberOfBytes": "32"
      },
      "t_array(t_uint256)dyn_storage": {
        "base": "t_uint256",
        "encoding": "dynamic_array",
        "label": "uint256[]",
        "numberOfBytes": "32"
      },
      "t_bool": {
        "encoding": "inplace",
        "label": "bool",
        "numberOfBytes": "1"
      },
      "t_bytes4": {
        "encoding": "inplace",
        "label": "bytes4",
        "numberOfBytes": "4"
      },
      "t_mapping(t_address,t_array(t_uint256)dyn_storage)": {
        "encoding": "mapping",
        "key": "t_address",
        "label": "mapping(address => uint256[])",
        "numberOfBytes": "32",
        "value": "t_array(t_uint256)dyn_storage"
      },
      "t_mapping(t_address,t_bool)": {
        "encoding": "mapping",
        "key": "t_address",
        "label": "mapping(address => bool)",
        "numberOfBytes": "32",
        "value": "t_bool"
      },
      "t_mapping(t_address,t_mapping(t_address,t_bool))": {
        "encoding": "mapping",
        "key": "t_address",
        "label": "mapping(address => mapping(address => bool))",
        "numberOfBytes": "32",
        "value": "t_mapping(t_address,t_bool)"
      },
      "t_mapping(t_address,t_struct(Counter)3184_storage)": {
        "encoding": "mapping",
        "key": "t_address",
        "label": "mapping(address => struct Counters.Counter)",
        "numberOfBytes": "32",
        "value": "t_struct(Counter)3184_storage"
      },
      "t_mapping(t_bytes4,t_bool)": {
        "encoding": "mapping",
        "key": "t_bytes4",
        "label": "mapping(bytes4 => bool)",
        "numberOfBytes": "32",
        "value": "t_bool"
      },
      "t_mapping(t_uint256,t_address)": {
        "encoding": "mapping",
        "key": "t_uint256",
        "label": "mapping(uint256 => address)",
        "numberOfBytes": "32",
        "value": "t_address"
      },
      "t_mapping(t_uint256,t_array(t_struct(Fee)6064_storage)dyn_storage)": {
        "encoding": "mapping",
        "key": "t_uint256",
        "label": "mapping(uint256 => struct ERC721Base.Fee[])",
        "numberOfBytes": "32",
        "value": "t_array(t_struct(Fee)6064_storage)dyn_storage"
      },
      "t_mapping(t_uint256,t_string_storage)": {
        "encoding": "mapping",
        "key": "t_uint256",
        "label": "mapping(uint256 => string)",
        "numberOfBytes": "32",
        "value": "t_string_storage"
      },
      "t_mapping(t_uint256,t_uint256)": {
        "encoding": "mapping",
        "key": "t_uint256",
        "label": "mapping(uint256 => uint256)",
        "numberOfBytes": "32",
        "value": "t_uint256"
      },
      "t_string_storage": {
        "encoding": "bytes",
        "label": "string",
        "numberOfBytes": "32"
      },
      "t_struct(Counter)3184_storage": {
        "encoding": "inplace",
        "label": "struct Counters.Counter",
        "members": [
          {
            "astId": 3183,
            "contract": "src/SkyNFT.sol:SkyNFT",
            "label": "_value",
            "offset": 0,
            "slot": "0",
            "type": "t_uint256"
          }
        ],
        "numberOfBytes": "32"
      },
      "t_struct(Fee)6064_storage": {
        "encoding": "inplace",
        "label": "struct ERC721Base.Fee",
        "members": [
          {
            "astId": 6061,
            "contract": "src/SkyNFT.sol:SkyNFT",
            "label": "recipient",
            "offset": 0,
            "slot": "0",
            "type": "t_address_payable"
          },
          {
            "astId": 6063,
            "contract": "src/SkyNFT.sol:SkyNFT",
            "label": "value",
            "offset": 0,
            "slot": "1",
            "type": "t_uint256"
          }
        ],
        "numberOfBytes": "64"
      },
      "t_struct(Role)3235_storage": {
        "encoding": "inplace",
        "label": "struct Roles.Role",
        "members": [
          {
            "astId": 3234,
            "contract": "src/SkyNFT.sol:SkyNFT",
            "label": "bearer",
            "offset": 0,
            "slot": "0",
            "type": "t_mapping(t_address,t_bool)"
          }
        ],
        "numberOfBytes": "32"
      },
      "t_uint256": {
        "encoding": "inplace",
        "label": "uint256",
        "numberOfBytes": "32"
      }
    }
  }
}