{
  "address": "0x45F9a836c9Ae0a63DC460195c12740E219819ca3",
  "abi": [
    {
      "inputs": [
        {
          "internalType": "uint256",
          "name": "rate",
          "type": "uint256"
        },
        {
          "internalType": "address",
          "name": "depositTokenAddress",
          "type": "address"
        }
      ],
      "stateMutability": "nonpayable",
      "type": "constructor"
    },
    {
      "anonymous": false,
      "inputs": [
        {
          "indexed": true,
          "internalType": "address",
          "name": "previousOwner",
          "type": "address"
        },
        {
          "indexed": true,
          "internalType": "address",
          "name": "newOwner",
          "type": "address"
        }
      ],
      "name": "OwnershipTransferred",
      "type": "event"
    },
    {
      "anonymous": false,
      "inputs": [
        {
          "indexed": true,
          "internalType": "address",
          "name": "purchaser",
          "type": "address"
        },
        {
          "indexed": false,
          "internalType": "uint256",
          "name": "value",
          "type": "uint256"
        },
        {
          "indexed": false,
          "internalType": "uint256",
          "name": "amount",
          "type": "uint256"
        }
      ],
      "name": "TokenPurchased",
      "type": "event"
    },
    {
      "inputs": [],
      "name": "buyTokens",
      "outputs": [],
      "stateMutability": "payable",
      "type": "function"
    },
    {
      "inputs": [
        {
          "internalType": "uint256",
          "name": "depositAmount",
          "type": "uint256"
        }
      ],
      "name": "depositICOTokens",
      "outputs": [],
      "stateMutability": "nonpayable",
      "type": "function"
    },
    {
      "inputs": [],
      "name": "depositToken",
      "outputs": [
        {
          "internalType": "contract IERC20",
          "name": "",
          "type": "address"
        }
      ],
      "stateMutability": "view",
      "type": "function"
    },
    {
      "inputs": [],
      "name": "endICO",
      "outputs": [
        {
          "internalType": "uint256",
          "name": "",
          "type": "uint256"
        }
      ],
      "stateMutability": "view",
      "type": "function"
    },
    {
      "inputs": [],
      "name": "getRate",
      "outputs": [
        {
          "internalType": "uint256",
          "name": "",
          "type": "uint256"
        }
      ],
      "stateMutability": "view",
      "type": "function"
    },
    {
      "inputs": [],
      "name": "isPaused",
      "outputs": [
        {
          "internalType": "bool",
          "name": "",
          "type": "bool"
        }
      ],
      "stateMutability": "view",
      "type": "function"
    },
    {
      "inputs": [],
      "name": "maxPurchase",
      "outputs": [
        {
          "internalType": "uint256",
          "name": "",
          "type": "uint256"
        }
      ],
      "stateMutability": "view",
      "type": "function"
    },
    {
      "inputs": [],
      "name": "minPurchase",
      "outputs": [
        {
          "internalType": "uint256",
          "name": "",
          "type": "uint256"
        }
      ],
      "stateMutability": "view",
      "type": "function"
    },
    {
      "inputs": [],
      "name": "owner",
      "outputs": [
        {
          "internalType": "address",
          "name": "",
          "type": "address"
        }
      ],
      "stateMutability": "view",
      "type": "function"
    },
    {
      "inputs": [],
      "name": "renounceOwnership",
      "outputs": [],
      "stateMutability": "nonpayable",
      "type": "function"
    },
    {
      "inputs": [
        {
          "internalType": "uint256",
          "name": "newAmount",
          "type": "uint256"
        }
      ],
      "name": "setAvaialbleTokens",
      "outputs": [],
      "stateMutability": "nonpayable",
      "type": "function"
    },
    {
      "inputs": [
        {
          "internalType": "address",
          "name": "depositTokenAddress",
          "type": "address"
        }
      ],
      "name": "setDepositToken",
      "outputs": [],
      "stateMutability": "nonpayable",
      "type": "function"
    },
    {
      "inputs": [
        {
          "internalType": "uint256",
          "name": "newRate",
          "type": "uint256"
        }
      ],
      "name": "setRate",
      "outputs": [],
      "stateMutability": "nonpayable",
      "type": "function"
    },
    {
      "inputs": [
        {
          "internalType": "uint256",
          "name": "endDate",
          "type": "uint256"
        },
        {
          "internalType": "uint256",
          "name": "_minPurchase",
          "type": "uint256"
        },
        {
          "internalType": "uint256",
          "name": "_maxPurchase",
          "type": "uint256"
        }
      ],
      "name": "startICO",
      "outputs": [],
      "stateMutability": "nonpayable",
      "type": "function"
    },
    {
      "inputs": [
        {
          "internalType": "uint256",
          "name": "tokenAmount",
          "type": "uint256"
        }
      ],
      "name": "takeICOTokens",
      "outputs": [],
      "stateMutability": "nonpayable",
      "type": "function"
    },
    {
      "inputs": [
        {
          "internalType": "address",
          "name": "newOwner",
          "type": "address"
        }
      ],
      "name": "transferOwnership",
      "outputs": [],
      "stateMutability": "nonpayable",
      "type": "function"
    },
    {
      "inputs": [],
      "name": "weiRaised",
      "outputs": [
        {
          "internalType": "uint256",
          "name": "",
          "type": "uint256"
        }
      ],
      "stateMutability": "view",
      "type": "function"
    },
    {
      "inputs": [],
      "name": "withdraw",
      "outputs": [],
      "stateMutability": "nonpayable",
      "type": "function"
    }
  ],
  "transactionHash": "0x99a58f5ad283339db57565e17ac996647d7e3888d49e3a6ce9362cd4e30e96a3",
  "args": [
    100000000000,
    "0x0199Bfa055eb910f9D630D25C84381976486c99D"
  ],
  "solcInputHash": "e326cfa6203991f0c7bd1738bc143771",
  "bytecode": "0x608060405234801561001057600080fd5b5060405161128838038061128883398101604081905261002f9161016a565b6100383361011a565b600180558161008e5760405162461bcd60e51b815260206004820152601860248201527f726174652073686f756c6420626520677265617465722030000000000000000060448201526064015b60405180910390fd5b6001600160a01b0381166100f05760405162461bcd60e51b815260206004820152602360248201527f6465706f73697420746f6b656e2063616e2774206265207a65726f206164647260448201526265737360e81b6064820152608401610085565b600291909155600380546001600160a01b0319166001600160a01b039092169190911790556101a7565b600080546001600160a01b038381166001600160a01b0319831681178455604051919092169283917f8be0079c531659141344cd1fd0a4f28419497f9722a3daafe3b4186f6b6457e09190a35050565b6000806040838503121561017d57600080fd5b825160208401519092506001600160a01b038116811461019c57600080fd5b809150509250929050565b6110d2806101b66000396000f3fe6080604052600436106101295760003560e01c8063715018a6116100a5578063b187bd2611610074578063d0febe4c11610059578063d0febe4c1461030d578063f2fde38b14610315578063f3cffa3d1461033557600080fd5b8063b187bd26146102ab578063c89039c5146102ed57600080fd5b8063715018a61461022e57806372a39f1b146102435780638da5cb5b14610263578063977b055b1461029557600080fd5b80634042b66f116100fc5780635fab11a5116100e15780635fab11a5146101d957806362219786146101f9578063679aefce1461021957600080fd5b80634042b66f146101ae5780634f248409146101c357600080fd5b80630c4ed7991461012e57806333b5b62e1461015057806334fcf437146101795780633ccfd60b14610199575b600080fd5b34801561013a57600080fd5b5061014e610149366004610ed7565b610355565b005b34801561015c57600080fd5b5061016660055481565b6040519081526020015b60405180910390f35b34801561018557600080fd5b5061014e610194366004610f00565b6103ee565b3480156101a557600080fd5b5061014e61044d565b3480156101ba57600080fd5b50600854610166565b3480156101cf57600080fd5b5061016660045481565b3480156101e557600080fd5b5061014e6101f4366004610f19565b610526565b34801561020557600080fd5b5061014e610214366004610f00565b6105dd565b34801561022557600080fd5b50600254610166565b34801561023a57600080fd5b5061014e61063c565b34801561024f57600080fd5b5061014e61025e366004610f00565b6106a2565b34801561026f57600080fd5b506000546001600160a01b03165b6040516001600160a01b039091168152602001610170565b3480156102a157600080fd5b5061016660065481565b3480156102b757600080fd5b506003546102dd9074010000000000000000000000000000000000000000900460ff1681565b6040519015158152602001610170565b3480156102f957600080fd5b5060035461027d906001600160a01b031681565b61014e61072b565b34801561032157600080fd5b5061014e610330366004610ed7565b6108ca565b34801561034157600080fd5b5061014e610350366004610f00565b6109a9565b6000546001600160a01b031633146103b45760405162461bcd60e51b815260206004820181905260248201527f4f776e61626c653a2063616c6c6572206973206e6f7420746865206f776e657260448201526064015b60405180910390fd5b600380547fffffffffffffffffffffffff0000000000000000000000000000000000000000166001600160a01b0392909216919091179055565b6000546001600160a01b031633146104485760405162461bcd60e51b815260206004820181905260248201527f4f776e61626c653a2063616c6c6572206973206e6f7420746865206f776e657260448201526064016103ab565b600255565b6000546001600160a01b031633146104a75760405162461bcd60e51b815260206004820181905260248201527f4f776e61626c653a2063616c6c6572206973206e6f7420746865206f776e657260448201526064016103ab565b600047116104f75760405162461bcd60e51b815260206004820152601760248201527f436f6e747261637420686173206e6f2062616c616e636500000000000000000060448201526064016103ab565b60405133904780156108fc02916000818181858888f19350505050158015610523573d6000803e3d6000fd5b50565b6000546001600160a01b031633146105805760405162461bcd60e51b815260206004820181905260248201527f4f776e61626c653a2063616c6c6572206973206e6f7420746865206f776e657260448201526064016103ab565b4283116105cf5760405162461bcd60e51b815260206004820152601460248201527f656e64206461746520697320696e76616c69642e00000000000000000000000060448201526064016103ab565b600492909255600555600655565b6000546001600160a01b031633146106375760405162461bcd60e51b815260206004820181905260248201527f4f776e61626c653a2063616c6c6572206973206e6f7420746865206f776e657260448201526064016103ab565b600755565b6000546001600160a01b031633146106965760405162461bcd60e51b815260206004820181905260248201527f4f776e61626c653a2063616c6c6572206973206e6f7420746865206f776e657260448201526064016103ab565b6106a06000610a81565b565b6000546001600160a01b031633146106fc5760405162461bcd60e51b815260206004820181905260248201527f4f776e61626c653a2063616c6c6572206973206e6f7420746865206f776e657260448201526064016103ab565b806007600082825461070e9190610f5b565b9091555050600354610523906001600160a01b0316333084610ae9565b6002600154141561077e5760405162461bcd60e51b815260206004820152601f60248201527f5265656e7472616e637947756172643a207265656e7472616e742063616c6c0060448201526064016103ab565b60026001556004544210801561079657506000600754115b6107e25760405162461bcd60e51b815260206004820152601460248201527f69636f2073686f756c642062652061637469766500000000000000000000000060448201526064016103ab565b60055434116108335760405162461bcd60e51b815260206004820152600f60248201527f746f6f20736d616c6c2076616c7565000000000000000000000000000000000060448201526064016103ab565b600061083e34610ba0565b905080600760008282546108529190610f73565b92505081905550346008600082825461086b9190610f5b565b9091555050600354610888906001600160a01b0316335b83610bcf565b604080513481526020810183905233917f3ceffd410054fdaed44f598ff5c1fb450658778e2241892da4aa646979dee617910160405180910390a25060018055565b6000546001600160a01b031633146109245760405162461bcd60e51b815260206004820181905260248201527f4f776e61626c653a2063616c6c6572206973206e6f7420746865206f776e657260448201526064016103ab565b6001600160a01b0381166109a05760405162461bcd60e51b815260206004820152602660248201527f4f776e61626c653a206e6577206f776e657220697320746865207a65726f206160448201527f646472657373000000000000000000000000000000000000000000000000000060648201526084016103ab565b61052381610a81565b6000546001600160a01b03163314610a035760405162461bcd60e51b815260206004820181905260248201527f4f776e61626c653a2063616c6c6572206973206e6f7420746865206f776e657260448201526064016103ab565b8060075411610a545760405162461bcd60e51b815260206004820152601a60248201527f696e73756666696369656e7420746f6b656e2062616c616e636500000000000060448201526064016103ab565b8060076000828254610a669190610f73565b9091555050600354610523906001600160a01b031633610882565b600080546001600160a01b038381167fffffffffffffffffffffffff0000000000000000000000000000000000000000831681178455604051919092169283917f8be0079c531659141344cd1fd0a4f28419497f9722a3daafe3b4186f6b6457e09190a35050565b6040516001600160a01b0380851660248301528316604482015260648101829052610b9a9085907f23b872dd00000000000000000000000000000000000000000000000000000000906084015b60408051601f198184030181529190526020810180517bffffffffffffffffffffffffffffffffffffffffffffffffffffffff167fffffffff0000000000000000000000000000000000000000000000000000000090931692909217909152610c1d565b50505050565b6000610bc9670de0b6b3a7640000610bc360025485610d0290919063ffffffff16565b90610d35565b92915050565b6040516001600160a01b038316602482015260448101829052610c189084907fa9059cbb0000000000000000000000000000000000000000000000000000000090606401610b36565b505050565b6000610c72826040518060400160405280602081526020017f5361666545524332303a206c6f772d6c6576656c2063616c6c206661696c6564815250856001600160a01b0316610d489092919063ffffffff16565b805190915015610c185780806020019051810190610c909190610f8a565b610c185760405162461bcd60e51b815260206004820152602a60248201527f5361666545524332303a204552433230206f7065726174696f6e20646964206e60448201527f6f7420737563636565640000000000000000000000000000000000000000000060648201526084016103ab565b600082610d1157506000610bc9565b610d1b8284610fac565b905081610d288483610fe9565b14610bc957610bc961100b565b6000610d418284610fe9565b9392505050565b6060610d578484600085610d5f565b949350505050565b606082471015610dd75760405162461bcd60e51b815260206004820152602660248201527f416464726573733a20696e73756666696369656e742062616c616e636520666f60448201527f722063616c6c000000000000000000000000000000000000000000000000000060648201526084016103ab565b843b610e255760405162461bcd60e51b815260206004820152601d60248201527f416464726573733a2063616c6c20746f206e6f6e2d636f6e747261637400000060448201526064016103ab565b600080866001600160a01b03168587604051610e41919061104d565b60006040518083038185875af1925050503d8060008114610e7e576040519150601f19603f3d011682016040523d82523d6000602084013e610e83565b606091505b5091509150610e93828286610e9e565b979650505050505050565b60608315610ead575081610d41565b825115610ebd5782518084602001fd5b8160405162461bcd60e51b81526004016103ab9190611069565b600060208284031215610ee957600080fd5b81356001600160a01b0381168114610d4157600080fd5b600060208284031215610f1257600080fd5b5035919050565b600080600060608486031215610f2e57600080fd5b505081359360208301359350604090920135919050565b634e487b7160e01b600052601160045260246000fd5b60008219821115610f6e57610f6e610f45565b500190565b600082821015610f8557610f85610f45565b500390565b600060208284031215610f9c57600080fd5b81518015158114610d4157600080fd5b6000817fffffffffffffffffffffffffffffffffffffffffffffffffffffffffffffffff0483118215151615610fe457610fe4610f45565b500290565b60008261100657634e487b7160e01b600052601260045260246000fd5b500490565b634e487b7160e01b600052600160045260246000fd5b60005b8381101561103c578181015183820152602001611024565b83811115610b9a5750506000910152565b6000825161105f818460208701611021565b9190910192915050565b6020815260008251806020840152611088816040850160208701611021565b601f01601f1916919091016040019291505056fea26469706673582212203f46e781698cbbcfbab115843c548492af01cf7040b79f866be9a90b38d967d864736f6c63430008090033",
  "devdoc": {
    "kind": "dev",
    "methods": {
      "owner()": {
        "details": "Returns the address of the current owner."
      },
      "renounceOwnership()": {
        "details": "Leaves the contract without owner. It will not be possible to call `onlyOwner` functions anymore. Can only be called by the current owner. NOTE: Renouncing ownership will leave the contract without an owner, thereby removing any functionality that is only available to the owner."
      },
      "transferOwnership(address)": {
        "details": "Transfers ownership of the contract to a new account (`newOwner`). Can only be called by the current owner."
      }
    },
    "version": 1
  },
  "userdoc": {
    "kind": "user",
    "methods": {},
    "version": 1
  },
  "storageLayout": {
    "storage": [
      {
        "astId": 2959,
        "contract": "src/TokenPresale.sol:TokenPresale",
        "label": "_owner",
        "offset": 0,
        "slot": "0",
        "type": "t_address"
      },
      {
        "astId": 10,
        "contract": "src/TokenPresale.sol:TokenPresale",
        "label": "_status",
        "offset": 0,
        "slot": "1",
        "type": "t_uint256"
      },
      {
        "astId": 2609,
        "contract": "src/TokenPresale.sol:TokenPresale",
        "label": "_rate",
        "offset": 0,
        "slot": "2",
        "type": "t_uint256"
      },
      {
        "astId": 2612,
        "contract": "src/TokenPresale.sol:TokenPresale",
        "label": "depositToken",
        "offset": 0,
        "slot": "3",
        "type": "t_contract(IERC20)3371"
      },
      {
        "astId": 2614,
        "contract": "src/TokenPresale.sol:TokenPresale",
        "label": "isPaused",
        "offset": 20,
        "slot": "3",
        "type": "t_bool"
      },
      {
        "astId": 2616,
        "contract": "src/TokenPresale.sol:TokenPresale",
        "label": "endICO",
        "offset": 0,
        "slot": "4",
        "type": "t_uint256"
      },
      {
        "astId": 2618,
        "contract": "src/TokenPresale.sol:TokenPresale",
        "label": "minPurchase",
        "offset": 0,
        "slot": "5",
        "type": "t_uint256"
      },
      {
        "astId": 2620,
        "contract": "src/TokenPresale.sol:TokenPresale",
        "label": "maxPurchase",
        "offset": 0,
        "slot": "6",
        "type": "t_uint256"
      },
      {
        "astId": 2622,
        "contract": "src/TokenPresale.sol:TokenPresale",
        "label": "_availableICOAmount",
        "offset": 0,
        "slot": "7",
        "type": "t_uint256"
      },
      {
        "astId": 2624,
        "contract": "src/TokenPresale.sol:TokenPresale",
        "label": "_weiRaised",
        "offset": 0,
        "slot": "8",
        "type": "t_uint256"
      }
    ],
    "types": {
      "t_address": {
        "encoding": "inplace",
        "label": "address",
        "numberOfBytes": "20"
      },
      "t_bool": {
        "encoding": "inplace",
        "label": "bool",
        "numberOfBytes": "1"
      },
      "t_contract(IERC20)3371": {
        "encoding": "inplace",
        "label": "contract IERC20",
        "numberOfBytes": "20"
      },
      "t_uint256": {
        "encoding": "inplace",
        "label": "uint256",
        "numberOfBytes": "32"
      }
    }
  }
}